:020000040800F2
:10000000F8440020450200080F2A0008B52800081F
:100010000D2A0008FD160008032D0008000000004E
:10002000000000000000000000000000AD0100081A
:100030000118000800000000F1010008852A0008EE
:100040005F0200085F0200085F0200085F0200080C
:100050005F0200085F0200085F0200085F020008FC
:100060005F0200085F0200085F0200085F020008EC
:100070005F0200085F0200085F0200085F020008DC
:100080005F0200085F0200085F0200085F020008CC
:100090005F0200085F0200085F0200085F020008BC
:1000A0005F0200085F0200085F0200085F020008AC
:1000B000052B00085F0200085F0200085F020008CD
:1000C0005F0200085F0200085F0200085F0200088C
:1000D0005F0200085F0200085F0200085F0200087C
:1000E0005F0200085F0200085F02000800F002F8EB
:1000F00000F04DF80AA090E8000C82448344AAF175
:100100000107DA4501D100F042F8AFF2090EBAE872
:100110000F0013F0010F18BFFB1A43F0010318473B
:10012000B8520000D8520000103A24BF78C878C1F5
:10013000FAD8520724BF30C830C144BF04680C60ED
:10014000704700000023002400250026103A28BF35
:1001500078C1FBD8520728BF30C148BF0B60704739
:10016000662904F05E87642900F09A80752900F002
:100170009780002070471FB500F09CFC0400002011
:10018000002104F0E3FDE0601FBD10B510BD00F0DC
:10019000ADFD1146FFF7EFFF02F0F2FD00F0CBFDE1
:1001A00003B4FFF7F2FF03BC02F0D7FD224B19683E
:1001B0000868B0E8F00F80F30988BFF36F8F4FF045
:1001C000000080F311884EF00D0E70470000000013
:1001D00006480068006880F3088862B661B6BFF31D
:1001E0004F8FBFF36F8F00DF00BF00BF08ED00E04F
:1001F000EFF30980BFF36F8F0F4B1A6820E9F00F00
:10020000106008B54FF0500080F31188BFF34F8F96
:10021000BFF36F8F03F03CFE4FF0000080F31188B6
:10022000BDE8084019680868B0E8F00F80F3098855
:10023000BFF36F8F704700BF18000020EFF30580F9
:10024000704700000948804709480047FEE7FEE77D
:10025000FEE7FEE7FEE7FEE7FEE7FEE7FEE7FEE776
:1002600004480549054A064B70470000032B000867
:10027000ED000008F83E0020F8440020F84000207F
:10028000F8400020704700000FB4044910B503AADD
:10029000029800F0DBFB10BC5DF814FB04000020AA
:1002A0002DE9F0410646002410687529314616A54F
:1002B00010D0AFF30080002802DA404213A507E017
:1002C00031688A0701D512A502E0490704D511A5B6
:1002D000012401E0AFF3008000210A2206F1240787
:1002E00009E0B0FBF2FCB0FBF2F302FB1C00303083
:1002F00078541846491C0028F3D123462A46304634
:10030000BDE8F04100F039B9000000002D00000008
:100310002B000000200000002DE9F0474FF0000AFC
:1003200089460446C0F820A02046E1688847002896
:1003300076D0252806D0D4E901219047206A401CB8
:100340002062F1E7E168204600258847C4F81CA038
:1003500006460027C4F818A02A2E09D0304602F01D
:10036000F5FC38B304EB8708303EC8F8186019E094
:1003700059F8041B204604EB87029161E168884725
:10038000012F064618D1E069002820DA25F0200563
:100390001DE0D8F8180000EB800006EB4000303874
:1003A000C8F818002046E1688847064602F0CEFCEF
:1003B0000028EED1012F0AD02E2E08D12046E16868
:1003C00088477F1C0646022F45F02005C4DBA06944
:1003D000002803DA404245F00105A061E80701D09A
:1003E00025F01005B6B1A6F14100192802D8203633
:1003F00045F400654A463146204625604D46FFF7E4
:10040000AFFE58B1012806D0ED1D25F0070000F120
:10041000080989E704E005F1040985E730468AE721
:10042000206ABDE8F087032A40F2308010F0030C08
:1004300000F0158011F8013BBCF1020F624498BF37
:1004400011F801CB00F8013B38BF11F8013BA2F1D4
:10045000040298BF00F801CB38BF00F8013B11F04F
:10046000030300F02580083AC0F0088051F8043BEF
:10047000083A51F804CBA0E80810F5E7121D5CBF5C
:1004800051F8043B40F8043BAFF30080D20724BF8F
:1004900011F8013B11F801CB48BF11F8012B24BF23
:1004A00000F8013B00F801CB48BF00F8012B704772
:1004B00010B5203AC0F00B80B1E81850203AA0E8FF
:1004C0001850B1E81850A0E81850BFF4F5AF5FEA33
:1004D000027C24BFB1E81850A0E8185044BF18C9E6
:1004E00018C0BDE810405FEA827C24BF51F8043B8D
:1004F00040F8043B08BF7047D20728BF31F8023BE1
:1005000048BF11F8012B28BF20F8023B48BF00F874
:10051000012B704702F0FF0343EA032242EA024242
:1005200000F0A8BA4FF0000200B513469446964674
:10053000203922BFA0E80C50A0E80C50B1F12001F6
:10054000BFF4F7AF090728BFA0E80C5048BF0CC0A4
:100550005DF804EB890028BF40F8042B08BF704702
:1005600048BF20F8022B11F0804F18BF00F8012B74
:10057000704770477047704770472DE9F0470D4648
:1005800099469246044600F124080168880604D57D
:10059000E06921F01001216000E00120A84201DDA6
:1005A000471B00E00027A1697A1902EB0900081A2D
:1005B000A0612078C00602D42046AFF30080002658
:1005C00008E0D4E901211AF806009047206A401C8F
:1005D000761C20624E45F4DB2078C0060AD5204602
:1005E000AFF3008006E0D4E9012130209047206A73
:1005F000401C2062381EA7F10107F4DC07E0D4E9B3
:10060000012118F805009047206A401C2062281E2E
:10061000A5F10105F3DC2046AFF300802078000649
:1006200002D50220BDE8F0870120FBE770472DE9E5
:10063000FF4F0C461E464FF0FF378BB0D2E900014A
:10064000DDF860800A908A46C1F30A5505B93D4637
:10065000002108464FF00000BAF1000F00F44000FE
:1006600005DA00EB80004FF4400101EA50004FEA48
:100670009059B9F1010F00DDB9460A9850EA4A00D5
:100680000ED044F61050A5F2FF3545432F14B8F1B3
:10069000000F1ED07542291E1EDDC9F100021CE0AC
:1006A000B8F1010F4FF0000001D0302103E0F24318
:1006B00005E02154401CB042FBDB30460022002103
:1006C00021540B99C1F80880C1E900200FB0BDE8A2
:1006D000F08FBD1B6D1CDEE74A4600DA694206A8B2
:1006E00000F08AFA06AB93E8070003AB83E8070043
:1006F00050460A9900F068FB8DE80700A0F500500D
:100700001F3800900398002D0ADD42F21F014A466F
:100710000844002303A90390684600F0D1FD09E0D6
:10072000A0F500504A461F38002303A903906846ED
:1007300000F0DBFD8DE807000004000C03D04FF053
:10074000FF30410800E01046B8F1000F03D000224E
:10075000009215461EE0751E05D400F0AFF9303248
:1007600062556D1EF9D5B3460122084302D000221E
:100770007F1C04E02078302801D100227F1E002A4F
:10078000099784D01DE0112D07DA00F097F9303277
:1007900062556D1C50EA0102F5D1084302D0009861
:1007A000C8B10EE00021681E05E0235C625C635462
:1007B0002254401E491C8142F7DBAB46A81B401E59
:1007C0000990002004F80B000B98099AC0F80880E3
:1007D000C0E9002B7AE711264FF0000857E72DE912
:1007E000F04F88460446D21D22F0070191B0D1E9AE
:1007F0000001CDE90A0102F085FA02460B98C00F0C
:1008000001D02D2007E02068810701D52B2002E0D0
:10081000202101EAC000032A099001D0072A05DB44
:1008200003464146204600F0A7F90BE120788006F8
:1008300001D5E06900E00620B8F1650F814606D0D9
:10084000B8F1660F18D0B8F1670F70D131E0002011
:10085000B9F1110F009001DB112301E009F101034F
:100860000AAA01A90CA8FFF7E2FEDDE90C70002638
:1008700009F10105834647E001204B4600904FF007
:1008800000470AAA01A90CA8FFF7D1FEDDE90DB0C7
:100890000C995D46002610B909F101000D18B9EB5D
:1008A000050003D4C0F1FF3609F10105A5EB0900ED
:1008B0002BE0B9F1010F01DA4FF001090020B9F185
:1008C000110F0090484601DD112300E003460AAAFB
:1008D00001A90CA8FFF7ABFEDDE90C704D46002620
:1008E0008346207800070AD4AB4500DA5D4601A8AC
:1008F000012D04DD411911F8011C302907D04F45A5
:1009000002DA17F1040F04DA012082460FE06D1EAF
:10091000EEE7002F02DCED1B3E4403E0781CA8420A
:1009200000DD7D1CB81B00F1010A4FF00047207864
:10093000000703D4AA4501DB4FF0FF3A0021B7F1CD
:10094000004F0DF143088DF8431024D002202B23D3
:10095000002F01DA7F422D230A21021EA0F101009F
:1009600000DC5FB197FBF1FC97FBF1F201FB1C7C13
:1009700017460CF1300C08F801CDEEE7A8F10100A4
:1009800003702188090501D5452100E06521A0F10A
:10099000010800F8011C09980FA9A1EB0807FF1D29
:1009A00000B10120411901EBEA70A1693844081A2D
:1009B000401EA0612078C00602D42046AFF300801C
:1009C000099828B1D4E901219047206A401C20628F
:1009D0002078C00622D52046AFF300801EE0002E0E
:1009E00004DBB34502DD01A8805D00E03020D4E9DE
:1009F00001219047206A401C2062761CAAF1010068
:100A00005FEA000A0AD100F055F8C0680168405C4E
:100A1000D4E901219047206A401C2062281EA5F1DC
:100A20000105DCDC07E0D4E9012118F8010B90474F
:100A3000206A401C2062381EA7F10107F3DC204623
:100A4000AFF30080032011B041E60000074B70B502
:100A50000D467B4400F07DF80446284600F03EF940
:100A600010B14FF0FF3070BD204670BD072300006D
:100A70004FF000020429C0F0128010F0030C3FF484
:100A800053ADCCF1040CBCF1020F18BF00F8012BE0
:100A9000A8BF20F8022BA1EB0C01FFF745BD5FEAD0
:100AA000C17C24BF00F8012B00F8012B48BF00F8DF
:100AB000012B704700487047B83E002030B5B0F1B8
:100AC0000A024FEA900E71F100034EEA817EB0EB0C
:100AD0000E0061EB91014FEA101E4EEA017E10EB11
:100AE0000E0041EB11114FEA102E4EEA016E10EB91
:100AF0000E0041EB11214FEA104E4EEA014E10EB71
:100B00000E0041EB1141401841F100014FEAD000C5
:100B100040EA41704FEAD10110EB80054FEA8104B1
:100B200044EA907444EB01046D1944EB0404521B35
:100B3000A3414FF0000348BF0A3200D530BD401C2E
:100B400041F1000130BD000001694A1C02610878D2
:100B5000704700B58FB0CDE90131002105910549FD
:100B60007944CDE9031011466846FFF7D5FB0FB075
:100B700000BD0000E5FFFFFF2DE9F0411F460446E0
:100B800003260168072A01F4006004DB08B116A5FA
:100B900005E016A503E008B115A500E015A521F0B4
:100BA00010002060A069C01EA0610FB1401EA061AE
:100BB0002046AFF300804FB1D4E901213846904779
:100BC000206A401C2062C01C206206E0206AFAE70E
:100BD000D4E9012115F8010B9047761EF8D2204682
:100BE000AFF30080BDE8F0814E414E006E616E00B3
:100BF000494E4600696E66002DE9F047814616466B
:100C00008AB0354878440DC88DE80D0032487844E4
:100C1000801C03AC0DC884E80D0041F69B300844ED
:100C2000372190FBF1F290FBF1F5A5F1800501FB76
:100C300012041B3C02D56442012000E00020DFF8D2
:100C400098A080460027FA44AAF1BE0A0EE0E00709
:100C50000AD03246684607EB470101230AEB8101BF
:100C600000F043FB8DE8070064107F1C002CEED1E0
:100C7000194F7F44AE3F19E0E80715D007EB041089
:100C80000DF1180A90E80E008AE80E00C068F042E4
:100C900001D1981908903246012306A903A800F053
:100CA00024FB03AB83E807006D10641C002DE3D127
:100CB0004FF0010332466946B8F1000F03A802D095
:100CC00000F0FEFA01E000F010FBC9E90001C9F8EC
:100CD00008200AB0BDE8F087C0450000007B00F0A6
:100CE0008000704700487047983E00207546FFF727
:100CF000F9FFAE4605006946534620F007008546D9
:100D000018B020B5FFF7ACFABDE820404FF0000660
:100D10004FF000074FF000084FF0000B21F00701E3
:100D2000AC46ACE8C009ACE8C009ACE8C009ACE826
:100D3000C0098D46704710B50446AFF300802046C9
:100D4000BDE81040FFF72CBA4FF0013C50F8042BDF
:100D500051F8043B9A4221D1A2EB0C03934313EACE
:100D6000CC1317D150F8042B51F8043B9A4215D1FB
:100D7000A2EB0C03934313EACC130BD150F8042BD2
:100D800051F8043B9A4209D1A2EB0C03934313EAB6
:100D9000CC13DBD04FF00000704700BFD01A01BA6F
:100DA000B1FA81F101F0180122FA01F0CB40C1F152
:100DB0002001DBB2C0B2C01A2CFA01F3D11A914360
:100DC00011EAC311E6D170475FEA400C08BF91F009
:100DD000000F4FEA8C234FEAC12243EA51514FEAF8
:100DE0001C5018BF00F5F0404FEA300018BF41F02A
:100DF00000415FEA6C5C00F02980BCF1FF3F08BF56
:100E000040F080407047130C06BF12044FF0100CE6
:100E10004FF0000C130E04BF12020CF1080C130F5C
:100E200004BF12010CF1040C930F04BF92000CF1EB
:100E3000020CD30F04BF52000CF1010C11464FF00D
:100E40000002A0F11F00A0EB0C00704711F0004F52
:100E500008BF704731F000413FF4D5AF0B0C06BF1F
:100E600009044FF0100C4FF0000C0B0E04BF0902E8
:100E70000CF1080C0B0F04BF09010CF1040C8B0FD3
:100E800004BF89000CF1020CCB0F04BF49000CF128
:100E9000010CCCF12003A0EB0C0022FA03F302FAC0
:100EA0000CF241EA030100F10100704720F07F4C91
:100EB00080EA030023F07F47ACEB070303F57C5384
:100EC00000F0004003F1FF032DE980494FEA154B84
:100ED00009B44FEA144325EA0B4E24EA03480FF203
:100EE000042606EB132749083E785FEA320203FB2B
:100EF0000667C7F5000707FB06F64FEA54374FEAC7
:100F0000D64606F1020607FB066CCCF1005C4FEA00
:100F10001C472CEA074C07FB06F40CFB06F504EB18
:100F200015464FEA961634BF00204FF000404FEAB6
:100F3000D13706FB07FC4FEA1C4C0CFB0BF7D21B0E
:100F400003FB0CF761EB07010CFB0EF7B0EB07405E
:100F500072EB17420CFB08F734BFA2EB0742B2EB6F
:100F6000074261EB17414FEA0C444FEA910706FB39
:100F700007FC4FEA1C4C0CFB0BF7B0EBC74072EBC5
:100F8000573203FB0CF734BFA2EBC742B2EBC742A8
:100F900061EB57310CFB0EF7B0EBC70072EB5772E9
:100FA0000CFB08F734BFA2EBC702B2EBC70261EB40
:100FB0005771039F4FEA816141EA921104EBCC041F
:100FC0004FEAD1374FEA826206FB07FC42EA9012F1
:100FD0004FEA80604FEA1C4C0CFB0BF7D21B03FB63
:100FE0000CF761EB07010CFB0EF7B0EB074072EB5F
:100FF00017420CFB08F734BFA2EB0742B2EB0742E3
:1010000061EB17414FEA8C554FEA910704EB9C24A2
:1010100006FB07FC4FEA1C4C0CFB0BF7B0EBC74080
:1010200072EB573203FB0CF734BFA2EBC742B2EBB3
:10103000C74261EB57310CFB0EF7B0EBC70072EB08
:1010400057720CFB08F734BFA2EBC702B2EBC70222
:1010500061EB577115EB4C254FEA816141EA921122
:101060004FEA82624FEAD13742EA901206FB07FC50
:1010700044F100044FEA80604FEA1C4C0CFB0BF774
:10108000D21B03FB0CF761EB07010CFB0EF7B0EB77
:10109000074072EB17420CFB08F734BFA2EB074284
:1010A000B2EB074261EB174115EB1C154FEA81319A
:1010B00041EA92414FEA823242EA90424FEA80305E
:1010C0004FEA0C7644F1000448EA03434EEA0B4829
:1010D0004FF0000EB2EB080C71EB030724BF624621
:1010E00039464EEB0E0E4FF0000B001852414941AD
:1010F0004BEB0B0BB2EB080C71EB03077BF1000B16
:1011000024BF624639464EEB0E0E4FF0000B00181E
:10111000524149414BEB0B0BB2EB080C71EB03074F
:101120007BF1000B24BF624639464EEB0E0E51EAAE
:10113000020718BF46F0010616EB0E7655F10002C5
:1011400054F1000103D5BDE88901BDE80088BDE880
:101150008901BDE80048B619524141EB0101A3F1F4
:101160000103704780807F7E7D7C7B7A79787776FB
:1011700076757473727171706F6E6E6D6C6C6B6A74
:101180006A69686867666665646463636261616012
:10119000605F5F5E5E5D5D5C5C5B5B5A5A5959588F
:1011A00058575756565555555454535352525251F9
:1011B000515050504F4F4F4E4E4D4D4D4C4C4C4B4F
:1011C0004B4B4A4A4A494949484848474747474696
:1011D00046464545454444444443434343424242D2
:1011E00042414141002B9C4630D477002BD01CB5A6
:1011F0004FEA370703B44FF010004FF01001BAF177
:10120000000F06D0BCF1000FDCBF40F0080040F03A
:1012100008014FF000000FBCBDE810400BF1010BBE
:10122000BBF1010F08BF5FEA170722BF12F10102ED
:1012300011F101014FF0004143F1000300F00040C3
:1012400043EA00007047F9D35708D0E746EA06465C
:1012500013F1400F4FEA16461FDD13F1200FDFBFD9
:1012600016430A46002120335B42BED0C3F120075B
:1012700046EA064602FA07F74FEA164646EA070626
:10128000C3F1200722FA03F201FA07F721FA03F16A
:101290004FF0000342EA0702A7E746EA020646EAE1
:1012A00006464FEA164646EA0106BCBF46EA06462F
:1012B000360C4FF000034FF000024FF0000194E7AE
:1012C0002DE9804C9A46934670B491E8380007C8DF
:1012D00031EA400C48BF34EA430C03D5FFF7E6FD82
:1012E000FFF780FFF0BCBDE8008C2DE9804C9A46EA
:1012F000934670B491E8380007C810F0804F08BFDB
:1013000013F0804F03D100F005F8FFF76BFFF0BC3E
:10131000BDE8008C20F07F4780EA030023F07F4C7B
:1013200007EB0C03A3F57C5300F00040A3F1FE0390
:1013300092F0000F00F0B38095F0000F00F077807E
:101340002DE901494FEA11404FEA144621EA0048CD
:1013500000FB06FC24EA064708FB06F607FB08F834
:1013600000FB07F718EB06484CEB164C4FEA124B04
:1013700018EB07484FEA15464CEB174022EA0B4E94
:101380000BFB06FC25EA06470EFB06F607FB0EFEE6
:101390000BFB07F71EEB064E4CEB164C4FF000060E
:1013A0001EEB074E4CEB174B18EB0B0840F10000FF
:1013B00018EB0E0B58EB000840F100008F1A4FF0AD
:1013C00000013CBFC943661B14BFB5EB040C0021F0
:1013D0003CBFC943F61B4FEA17444EEA8E0E27EA7C
:1013E00004454FEA1C4704FB07622CEA074C05FB47
:1013F00007F70CFB05F604FB0CFC16EB074642EB6B
:10140000174216EB0C4642EB1C421BEB060658EB50
:101410000202414146EA9E0601D5BDE80189B6199E
:10142000524141EB0101A3F10103BDE801894FEAFB
:1014300014454FEA114724EA054621EA074C05FB0B
:1014400007F406FB07F70CFB06F105FB0CFC11EBA0
:10145000074144EB17444FEA124711EB0C4144EBB0
:101460001C4422EA074C05FB07F206FB07F70CFBBE
:1014700006F605FB0CFC16EB074642EB174216EB93
:101480000C4642EB1C456A1854F1000148BF7047F6
:10149000B619524141EB0101A3F10103704795F0E8
:1014A000000F37D04FEA11424FEA144721EA0246B3
:1014B00024EA074C02FB07F106FB07F70CFB06F4D6
:1014C00002FB0CFC14EB074441EB17414FEA1547B4
:1014D00014EB0C4441EB1C4125EA074C02FB07F5D9
:1014E00006FB07F70CFB06F602FB0CFC16EB0746A7
:1014F00045EB174516EB0C4645EB1C42121951F112
:10150000000148BF7047B619524141EB0101A3F1F8
:10151000010370474FEA14454FEA114724EA054694
:1015200021EA074C05FB07F106FB07F70CFB06F267
:101530004FF0000605FB0CFC12EB074241EB174194
:1015400012EB0C4251EB1C4148BF7047921841EB23
:101550000101A3F10103704710B50022C0B011468C
:10156000052001F019FD384C2060002001F091FCAD
:10157000606024216846FEF7D5FF2422334968467F
:10158000FEF796FF6A460021314801F07DFD2421D7
:1015900009A8FEF7C7FF2D492422243109A8FEF728
:1015A00087FF09AA00212B4801F06EFD242112A813
:1015B000FEF7B8FF25492422483112A8FEF778FF2C
:1015C00012AA0021244801F05FFD24211BA8FEF788
:1015D000A9FF1E4924226C311BA8FEF769FF1BAA34
:1015E00000211E4801F050FD242124A8FEF79AFF97
:1015F00016492422903124A8FEF75AFF24AA00217C
:10160000174801F041FD24212DA8FEF78BFF0F495B
:101610002422B4312DA8FEF74BFF2DAA002111483A
:1016200001F032FD242136A8FEF77CFF0749242271
:10163000D83136A8FEF73CFF36AA00210A4801F04F
:1016400023FD40B010BD000098000020505000085D
:10165000691700080918000851170008112A000826
:1016600001170008E1160008811600080348006809
:10167000002801D001F0DCBC704700009800002079
:1016800001F0A9FB014605A0FEF7FEFD134800F09E
:10169000FAFB642001F092FBF2E700005BE8BE85F4
:1016A000E58AA9E4BBBBE58AA15D20E8BF90E8A17B
:1016B0008CE4B8AD2E2E2E205469636B3A2025752C
:1016C000207C20E6A8A1E68B9FE59682E78B972FEA
:1016D0004C4544E997AAE783810D0A001C010020CC
:1016E00040F2DC5401F077FB01460348FEF7CCFDE5
:1016F000204601F063FBF5E7E0520008FEE700003A
:1017000001F069FB014603A0FEF7BEFD642001F075
:1017100055FBF5E75B43414EE4BBBBE58AA15D2089
:10172000E8BF90E8A18CE4B8AD2E2E2E205469635A
:101730006B3A202575207C20E6A8A1E68B9F4341CB
:101740004EE694B6E58F91E695B0E68DAE0D0A00B3
:1017500001F041FB01460348FEF796FD642001F0CD
:101760002DFBF5E7245300081CB5DFF88080DFF877
:101770008090DFF880A0DFF880B000BF4FF0FF312D
:101780004746D8F8040001F05BFB4E4655465146EB
:10179000D9F8000003F022FB044630602946706847
:1017A00003F01CFB05467060786801F0A6FB5C4501
:1017B00002DAB5F1804F01DBFFF758FF284603F04E
:1017C000E1FA05460E46204603F0DCFA04460F46D1
:1017D00001F001FBCDE90056014622463B46074891
:1017E000FEF752FDFA2001F0E9FAC7E79800002061
:1017F0008C3E0020CDCCCC3D00004040E0510008A4
:10180000704772B6FEE700004FF00008234C244DED
:101810004FF0FF3A56465146206801F08FFB0028F2
:10182000F8D1B2463146606801F00AFBD5E900679D
:10183000606801F062FB1B48864215DB304603F00E
:10184000A1FA0646894601F0C6FA014632464B46E1
:101850001548FEF719FD5146606801F0F1FAC5F828
:101860000080606801F049FBB7F1804FD2DB384659
:1018700003F088FA06460F4601F0ADFA01463246FB
:101880003B460A48FEF700FD5146606801F0D8FA71
:10189000C5F80480606801F030FBBBE798000020C9
:1018A0008C3E00200000404090520008405200084A
:1018B00070B5040003D094F8200010B104E00120BA
:1018C00070BD204600F082F82068016841F00101F7
:1018D000016000F0A7F90546052604E000F0A2F932
:1018E000401B0A2811D820684068C007F6D020683D
:1018F000016821F00201016000F094F905460BE057
:1019000000F090F9401B0A2806D9606A40F40030C4
:10191000606284F82060D2E7206840688007EFD4D6
:10192000207E0128206801683DD021F080010160FF
:10193000607E01282068016838D021F040010160F4
:10194000A07E01282068016833D021F020010160C9
:10195000E07E0128206801682ED041F0100101606E
:10196000207F01282068016829D021F0080101604A
:10197000607F01282068016824D021F00401016003
:10198000D4E902010843D4E9041211430843616811
:10199000491E08432168C86100206062012084F864
:1019A0002000002070BD41F08001C0E741F04001FF
:1019B000C5E741F02001CAE721F01001CFE741F06F
:1019C0000801D4E741F00401D9E7000010B586B062
:1019D000002100910191029103910068134988420E
:1019E00022D11348C16941F00071C161C16901F0A0
:1019F00000710491816941F00401816180690D4C9D
:101A000000F0040004904FF4006000906946204606
:101A100000F012F8A014009002200190032003901F
:101A20006946204600F008F806B010BD006400408A
:101A300000100240000801402DE9F84FDFF8B8918E
:101A40000024A9F1040B23460F2709F1040AABF186
:101A5000040EC9E00125A5402A40AA427DD1674E67
:101A6000D1F804C0ACEB0608B44532D014DCBCF1AC
:101A7000030F3AD009DCBCF1000F2AD0BCF1010FF2
:101A80001CD0BCF1020F31D11DE0BCF1110F17D0F9
:101A9000BCF1120F2AD119E0B8F5881F19D006DC65
:101AA000B8F5803F15D0B8F5801F1FD111E0B8F50B
:101AB000001F0ED0B8F5041F18D10AE0CB6815E05E
:101AC000CB681B1D12E0CB6808330FE0CB680C33EA
:101AD0000CE08B682BB1012B4FF0080303D045615C
:101AE00004E0042302E0056100E00023FF2A01D89E
:101AF000064601E000F104064FEA840501D9A5F18C
:101B00002005D6F8008007FA05FC28EA0C0803FA3D
:101B100005F548EA0508C6F800804D68ED0062D575
:101B2000374DAE6946F00106AE61AD6924F003069B
:101B300005F001050095334D06EB050CDCF8085067
:101B4000A607360F07FA06F825EA0805DFF8B88079
:101B5000404503D14FF0000817E044E0DFF8AC80C7
:101B6000404502D14FF001080FE0DFF8A480404566
:101B700002D14FF0020808E0DFF89880404502D11A
:101B80004FF0030801E04FF0040808FA06F848EAAD
:101B90000508CCF808804D68D9F80060ED024D4684
:101BA00001D5164300E096432E604D68DAF80060D8
:101BB000AD02554601D5164300E096432E604D68B0
:101BC000DBF80060AD035D4601D5164300E09643A7
:101BD0002E604D68DEF80060ED03754601D51643B2
:101BE00000E096432E60641C0D682A46E5407FF4B1
:101BF00031AFBDE8F88F000008040140000011106B
:101C0000001002400000014000080140000C0140AB
:101C100000100140001401400AB10161704709043D
:101C2000FBE70000014880687047000008000020C2
:101C300070B5040025D094F83D00002520B984F843
:101C40003C50204600F0B8F8242084F83D0020687D
:101C5000016821F0010101602068016841F4004140
:101C600001602068016821F40041016000F092FAEF
:101C70004D4A6168914201D84C4900E04C49884284
:101C800001D2012070BD4B492368B0FBF1F15E68C1
:101C900026F03F060E435E606368934206D94FF418
:101CA000967359434FF47A73B1FBF3F12368491CDF
:101CB0001E6A26F03F06314319626168914210D8CE
:101CC0004900401EB0FBF1F2521CC2F30B02042A81
:101CD00001D2042022E0B0FBF1F0401CC0F30B0065
:101CE0001CE0A268F2B301EBC10303EB0116431E33
:101CF000B3FBF6F35B1C43F480431B0549D092B35E
:101D000001EBC10202EB0111401EB0FBF1F0401CDF
:101D1000C0F30B0040F4804040F400402168CA69E1
:101D20004CF6FF739A431043C861D4E9071001438E
:101D30002068026822F0C00211430160D4E9030167
:101D400001432068826848F2FF339A43114381605F
:101D5000D4E9050108432168CA6822F0FF02104354
:101D6000C86001E00EE016E02068016841F0010162
:101D700001602564202084F83D00256384F83E50EE
:101D8000002070BD01EB4106431EB3FBF6F35B1C64
:101D9000B3E70120C2E701EB4101401EB0FBF1F0C7
:101DA000401CC0F30B00B7E7A086010080841E0032
:101DB00000093D0040420F0010B586B0002100919F
:101DC00001910291039100681349884222D1134C7A
:101DD000A06940F00800A061A069694600F0080011
:101DE00004904FF440700090122001900320039063
:101DF0000B48FFF721FE0B48416841F0E06141F0DC
:101E000002014160E06940F40010E061E06900F423
:101E10000010049006B010BD0054004000100240B5
:101E2000000C01400000014070B5040013D021688F
:101E30004CF6CC400860216845F255500860D4E962
:101E4000000141602168A0688860FFF7EBFE05464D
:101E500041F23C360DE0012070BD00BFFFF7E2FE0D
:101E6000401BB04205D92068C068800701D003201C
:101E700070BD2068C0688007F0D121684AF6AA20AA
:101E80000860002070BD00684AF6AA2101600020A9
:101E900070470000024881680278114481607047F1
:101EA00008000020074810B5016841F010010160EA
:101EB000032000F0A7F80F2000F006F800F050F81B
:101EC000002010BD0020024030B50546204887B0F4
:101ED000C16941F00101C161C06906A900F00100BA
:101EE000009001A800F036F90498B8B100F052F95A
:101EF000400018494FF08042B0FBF1F11648491EEE
:101F00000260416040F2E7320021C0E903218160B4
:101F1000816100F017FB040003D015E000F03AF9EE
:101F2000E7E70D4800F03CFB04000DD11C2000F059
:101F30003BF8102D07D2002229461C2000F042F861
:101F40000648056000E0012407B0204630BD0000CF
:101F50000010024040420F00700100200C000020E1
:101F60000F4808B5816941F001018161816901F083
:101F700001010091C16941F08051C161C069002235
:101F800000F0805000900F21901E00F01BF80548D3
:101F9000416821F0E06141F00071416008BD00003E
:101FA0000010024000000140002809DB00F01F0281
:101FB000012191404009800000F1E020C0F80011AB
:101FC00070470000F0B40E4B1B680C46C3F30223AD
:101FD000C3F10705042D00D90425191D072901D2D5
:101FE000002300E0DB1E012606FA05F1491E214010
:101FF00099409E40761E16403143F0BC00F096BEDC
:102000000CED00E0064900F0070208684FF6FF03F8
:10201000184040EA0220034A10430860704700005D
:102020000CED00E00000FA052DE9F0470F46050031
:1020300061D0434E306800F00700B84209D23068E2
:1020400020F0070038433060306800F00700B842E5
:1020500051D128683B4C810712D5400703D56068F1
:1020600040F4E06060602878000703D5606840F4C1
:10207000605060606068A96820F0F000084360600C
:102080002878C00728D06868012810D02168022865
:1020900010D0890700292EDA616821F0030101437D
:1020A0006160FFF7BFFD804641F288390DE021688D
:1020B0008903EFE78901EDE7FFF7B4FDA0EB080125
:1020C000494502D90320BDE8F0876068696800F0DF
:1020D0000C00B0EB810FEFD1306800F00700B84280
:1020E0000BD9306820F0070038433060306800F0CA
:1020F0000700B84201D00120E5E72878400705D560
:102100006068E96820F4E0600843606028780007B0
:1021100006D56068296920F4605040EAC10060601B
:1021200000F058F86168084AC1F30311515CC840D7
:102130000649086006480068FFF7C6FE0020C2E7AF
:102140000020024000100240385000081400002017
:102150000C0000200F2202600C4A536803F00303B6
:102160004360536803F0F0038360536803F4E06353
:10217000C36052684FF4E06303EAD202026104488C
:10218000006800F00700086070470000001002407F
:10219000002002400448054900684968044AC1F328
:1021A0000221515CC840704714000020001002401A
:1021B000485000080448054900684968044AC1F3CA
:1021C000C221515CC840704714000020001002403A
:1021D000485000080E4A51680E4801F00C03042BC9
:1021E00011D0082B0FD10C48C1F38343C903C05C45
:1021F0000AD55168084AC1F34041921E515C054A14
:102200005043B0FBF1F07047044948437047000069
:102210000010024000127A002850000800093D001A
:102220002DE9F84F040070D02078C04DC00749D088
:102230006868C0F38100012807D06868C0F3810096
:10224000022809D16868C00306D52868800339D5FB
:1022500060680028E7D035E06068B0F5803F0BD0BB
:1022600010B1B0F5A02F11D0286820F4803028607C
:10227000286820F4802002E0286840F4803028603C
:10228000606890B1FFF7CEFC06460AE0286840F48B
:1022900080202860F0E700BFFFF7C4FC801B6428A3
:1022A00073D828688003F7D50CE0FFF7BBFC06461F
:1022B00005E000BFFFF7B6FC801B6428F0D8286853
:1022C0008003F7D420789A4E80074FF001094FF031
:1022D000000839D5686810F00C0F07D06868C0F3A3
:1022E0008100022809D16868C00306D428688007E5
:1022F00014D52069012808D110E02069B0B1C6F8D2
:102300000090FFF78FFC074605E00AE1FFF78AFC23
:10231000C01B0228C4D828688007F7D528686169DF
:1023200020F0F80040EAC10028600DE0C6F8008007
:10233000FFF778FC074604E0FFF774FCC01B022897
:1023400023D828688007F7D4207800072CD579484F
:10235000A169D9B1C0F80090FFF764FC074604E01A
:10236000FFF760FCC01B02280FD8686A8007F7D50A
:1023700071484FF4FA510068B0FBF1F0009000BFD3
:102380000098411E0091FAD20EE080E0C0F8008073
:10239000FFF748FC074604E0FFF744FCC01B022897
:1023A00075D8686A8007F7D42078400760D5E86957
:1023B0000027C00008D4E86940F08050E861E8696F
:1023C000012700F0805000905C480168C90513D4D3
:1023D0000168834641F480710160FFF723FC824667
:1023E00006E000BFFFF71EFCA0EB0A0064284ED8F1
:1023F000DBF80000C005F5D5E06801280AD008B177
:10240000052813D0286A20F001002862286A20F0ED
:10241000040002E0286A40F001002862E06841F20E
:10242000883B98B1FFF7FEFB82460BE0286A40F03C
:1024300004002862EEE700BFFFF7F4FBA0EB0A01FF
:1024400059455AD8286A8007F6D50CE0FFF7EAFB11
:10245000824605E0FFF7E6FBA0EB0A0159454CD8A0
:10246000286A8007F6D41FB1E86920F08050E8613F
:10247000E06988B36968C1F38101022944D0022868
:10248000C6F8608004D0FFF7CDFB044638E034E0A6
:10249000FFF7C8FB074604E0FFF7C4FBC01B022898
:1024A0002BD828688001F7D4206AB0F5803F05D189
:1024B0006868A16820F4003008436860D4E9080126
:1024C0000843696821F4741108436860C6F8609095
:1024D000FFF7A8FB044606E025E000BFFFF7A2FBDC
:1024E000001B022809D828688001F7D51BE000BF2F
:1024F000FFF798FB001B022802D90320BDE8F88FE4
:1025000028688001F4D40EE00128F7D06868226AB8
:1025100000F48031914204D1616A00F47010884265
:1025200001D00120EAE70020E8E7000000100240A7
:10253000000042428004424214000020007000402B
:102540007047704710B5040003D094F83D0010B1F7
:1025500007E0012010BD002084F83C00204600F078
:102560001EF8022084F83D00211D206800F0D0FAFA
:10257000012084F8460084F83E0084F83F0084F887
:10258000400084F8410084F8420084F8430084F855
:10259000440084F8450084F83D00002010BD7047D9
:1025A00090F83D10012901D001207047022180F8E8
:1025B0003D100168CA6842F00102CA6000680B4918
:1025C000884208D0B0F1804F05D00949884202D036
:1025D0000849884204D1816801F00701062903D027
:1025E000016841F00101016000207047002C0140AA
:1025F000000400400008004070472DE9F041044607
:102600000068C66805694FF00007A90713D5B10730
:1026100011D5F91E016101202077206880698007AB
:10262000204602D0FFF7E8FF04E000F07EF82046E5
:1026300000F07CF82777680716D5700714D5216855
:102640006FF004000861022020772068806910F490
:10265000407F204602D0FFF7CFFF04E000F065F88E
:10266000204600F063F82777280715D5300713D5E3
:1026700021686FF008000861042020772068C06995
:102680008007204602D0FFF7B7FF04E000F04DF8C6
:10269000204600F04BF82777E80616D5F00614D54B
:1026A00021686FF010000861082020772068C06959
:1026B00010F4407F204602D0FFF79EFF04E000F0B8
:1026C00034F8204600F032F82777E80708D0F00702
:1026D00006D021686FF001000861204600F027F85D
:1026E000280608D5300606D521686FF080000861FD
:1026F0002046FFF725FF680608D5700606D5216835
:102700006FF040000861204600F018F8A8060AD5CE
:10271000B00608D521686FF0200008612046BDE8AA
:10272000F041FFF70EBFBDE8F081704770470068C9
:10273000B0F1804F01D1FFF7ADBB7047704770B566
:10274000040004D094F84100002510B106E00120F7
:1027500070BD84F84050204600F024F8242084F80E
:1027600041002068C16821F40051C160204600F09A
:1027700033FA2068016921F49041016120684169C0
:1027800021F02A0141612068C16841F40051C16013
:102790006564202084F8410084F8420065630020CD
:1027A00070BD000030B585B00024009401940294FF
:1027B000039400681449884224D11448816941F483
:1027C00080418161816901F480410491816941F016
:1027D0000401816180690E4D00F0040004904FF403
:1027E0000070009002200190032003906946284663
:1027F000FFF722F92815CDE900046946284602941E
:10280000FFF71AF905B030BD003801400010024052
:10281000000801402DE9F843044690F8410098462D
:1028200016460D46202802D00220BDE8F88385B167
:102830007EB100206064212084F84100FFF7F2F9A6
:10284000A6848146E684A0682027B0F5805F02D088
:1028500003E00120E9E7206910B12E4600250EE0D3
:1028600000260CE08021204600F012FAA8B9C6B17B
:1028700016F8010B21684860E08C401EE084E08C73
:102880004B464FF00002CDF800800028EAD14FF00F
:102890004001204600F0FCF940B184F8417003206B
:1028A000C3E735F8020BC0F30800E3E784F8417092
:1028B0000020BAE7FEE700000D4810B50B490160A3
:1028C0001021416000218160C16001614161017698
:1028D00041768176C17601774177FEF7E9FF0028DE
:1028E00003D0BDE81040FEF78CBF10BD006400406F
:1028F000A0000020FEF730BE70B586B00024184856
:102900000094019402940394816941F02001816153
:10291000816901F020010491816941F00401816124
:10292000816901F004010491816941F0080181612C
:1029300080690C4E00F008004FF40045049000221E
:1029400029463046FFF768F901200095CDE90104DA
:102950000220039069463046FFF76EF806B070BD5E
:1029600000100240000801400D4810B50B490160FD
:102970000C49416000214FF480428160C0E903129C
:1029800041618161C1610162FFF752F9002803D002
:10299000BDE81040FEF735BF10BD000000540040F8
:1029A000C8000020A0860100094810B50749016051
:1029B0000021416040F6FF718160FFF735FA002881
:1029C00003D0BDE81040FEF71CBF10BD0030004032
:1029D0001C0100200C4810B50A4901604FF4E13198
:1029E0004160002181600C22C160C0E90412816154
:1029F000C161FFF7A4FE002803D0BDE81040FEF738
:102A000000BF10BD0038014028010020FEE7FEE7AE
:102A100032250B4C0B4E4FF0FF373946606800F003
:102A20000FFA3572606800F068FA00F0D4F90146D8
:102A30002A4605A0FDF728FCFA2000F0BFF9ECE7D4
:102A4000980000208C3E00205B534F43E4BBBBE565
:102A50008AA15D20E8BF90E8A18CE4B8AD2E2E2EAF
:102A6000205469636B3A202575207C20E6A8A1E6F6
:102A70008B9FE8AEA1E7AE97534F433A20256420E1
:102A80000D0A000010B54FF0E020006901F064FF6E
:102A9000012803D0BDE8104001F080BA10BD30B568
:102AA0008FB028216846FDF73DFD14210AA8FDF7E7
:102AB00039FD0920012100904FF480300024049159
:102AC0000691CDE901040225CDE907504FF4E0104D
:102AD00009906846FFF7A4FB08B172B6FEE70F2025
:102AE000CDE90A054FF48060CDE90C4002210AA827
:102AF0000E94FFF799FA002801D072B6FEE70FB0E6
:102B000030BD70470148FFF778BD0000700100201C
:102B1000F0B50268194B1A4C1A4D4FF08047984295
:102B200005D0B84203D0A04201D0A84203D122F080
:102B300070064A683243984205D0B84203D0A0429A
:102B400001D0A84203D122F44074CA6822434C69E0
:102B500022F08002224302608A68C2620A688262AE
:102B6000984201D109690163012141610169C907E5
:102B700003D0016921F001010161F0BD002C014089
:102B8000000400400008004001680C3151E8002FAB
:102B900022F4907241E80023002BF5D10168143132
:102BA00051E8002F22F0010241E80023002BF5D16B
:102BB000016B012909D101680C3151E8002F22F085
:102BC000100241E80023002BF5D1202180F84210AB
:102BD000002101637047000070B504460068016978
:102BE000E26821F44051114301612169A068084362
:102BF000616908432168CA6841F20C639A43024341
:102C0000CA6020684169A26921F4407111434161A1
:102C10001E492068884202D1FFF7CCFA01E0FFF795
:102C2000B9FA00EBC00101EB00126068642180007A
:102C3000B2FBF0F3B3FBF1F36FF018067343B2FB92
:102C4000F0F5B2FBF0F605EB8305322303EB051537
:102C5000B5FBF1F5B6FBF1F605F0F00505EB061551
:102C6000B2FBF0F6B2FBF0F0B0FBF1F06FF018023F
:102C7000504306EB800003EB0010B0FBF1F021683D
:102C800000F00F002844886070BD0000003801404B
:102C90002DE9F843984617460D460446089E24E061
:102CA000701C22D0FEF7BEFFA0EB0800B0421AD87D
:102CB000CEB12068C168490717D5802D15D0402DA9
:102CC00013D00168C94309070FD401680025406883
:102CD00000902046FFF758FF0820606484F84050B9
:102CE0000120BDE8F8830320FBE72068006835EA8F
:102CF000000004D00020B842D2D00020F1E701202B
:102D0000F9E7FEE7490050EAC12018BF04204A0D48
:102D100018BF40F0010040F2FF72B2EB515F08BFF4
:102D200040F00200012808BF052070470907090E7E
:102D3000002804DB00F1E02080F80014704700F068
:102D40000F0000F1E02080F8141D704730380A2889
:102D500001D20120704700207047704713B5064824
:102D6000007830B14FF4FA73012269460348FFF747
:102D700051FD00981CBD000000000020280100202B
:102D8000FFF790F8FFF78BFEFFF7B6FDFFF794FD16
:102D9000FFF7EAFDFFF708FEFFF71CFE04A0FDF7B2
:102DA00073FA00F01FF8FFF7A5FD00F02DF8FEE71D
:102DB00053746172742E2E2E0D0A000010B5EFF3BD
:102DC000058111B16FF0050403E0002408B100F0A3
:102DD00063FF204610BDEFF3058008B101F0D0BDC0
:102DE00001F0C8BDEFF3058010B16FF0050070472A
:102DF0000448016811B14FF0FF30704701210160B4
:102E0000002070476800002010B5EFF3058010B176
:102E10006FF0050010BD08480168012902D04FF08D
:102E2000FF3010BD054A002182F8141D0221016007
:102E300000F0E2FF002010BD680000200BE000E081
:102E40002DE9F0410D46014621F0010001F001019C
:102E50004FF00004EFF305820AB1A41F16E048B159
:102E600000296FF001066FF00207294608D001F033
:102E7000BBFC07E06FF0030408E035B1344605E021
:102E800001F0F6FB0128F8D100E03C462046BDE801
:102E9000F08170B505464FF00004EFF3058050BB9C
:102EA0000DB1686800E00020C10701D0012600E0F4
:102EB000002600071FD46DB1D5E9021021B15028BA
:102EC00019D31EB1042002E020B114E0012001F06A
:102ED000C3F805E00EB1042000E0012001F0B1F8D4
:102EE000040008D00DB1296800E0002100F072FE56
:102EF0000EB144F00104204670BD70B5014621F0CA
:102F0000010001F001014FF00004EFF305820AB166
:102F1000A41F11E028B16FF0020529B101F09FFA5A
:102F200007E06FF0030407E000231A46194601F09A
:102F300039F9012800D02C46204670BDF8B50D4661
:102F40000024211F4E1C002804D000BFEFF305828F
:102F5000A2B10DB10C461BE000216A46009101F0C0
:102F600039FB012813D1009890B10A494FF08050E5
:102F70000860BFF34F8FBFF36F8F09E0294601F060
:102F800077FB012804D015B16FF0010400E034464E
:102F90002046F8BD04ED00E0F8B5144603460E46A1
:102FA0004FF00005EFF3058098BB93B39E423DD8E8
:102FB0004CB1A0680028E06803D0502836D3012027
:102FC00002E008B132E00020012B05D010B3184612
:102FD000A26801F016F820E040B103200090002222
:102FE00011460120A36801F065F804E003220021E6
:102FF000012001F03EF8050018D086B100231A46E2
:10300000194601F0CFF8012809D0284600F0F6FD56
:1030100000250BE0184600F0D7FF050006D00CB1E4
:10302000216800E00021284600F0D4FD2846F8BDC4
:1030300038B50024E51E00280BD000BFEFF3058152
:10304000A9B100210091694601F0BBF9012815D111
:1030500002E06FF0030412E0009880B109494FF0DC
:1030600080500860BFF34F8FBFF36F8F07E00023DE
:103070001A46194601F096F8012800D02C46204641
:1030800038BD000004ED00E02DE9FF414FEA0103E7
:103090004FF00005EFF30581039549BB40B380274E
:1030A000182100244AB3166806B1344696691EB149
:1030B0003146761E382E02D21679F60703D000204C
:1030C00004B0BDE8F081566906B1B708D2F808C06F
:1030D000BCF1000F0DD0D5685C2D18D312693AB140
:1030E00036B18DE806103A46214601F004FC039003
:1030F0000DE0D6685EB912694AB903AACDE900129B
:10310000BAB2214601F0CAFB012800D0039503980A
:10311000D6E700002DE9F041134C0F460546E6685E
:103120002068001D00F058FC681C07D137B12168E9
:10313000BDE8F0410D48091D00F09EBC20683544F3
:10314000B5424560216805D2A06BBDE8F041091D7C
:1031500000F07ABC606B091D00F076FCA06A854225
:1031600000D2A562BDE8F08118000020A80600206A
:103170002DE9F041054600F08BFC2D4CA068401C69
:10318000A06020682B4F10B1606930B32BE0256040
:10319000A068012827D1002606EB860007EB8000F7
:1031A00000F044FC761C382EF6D3234800F03EFC99
:1031B0002148143000F03AFC1F48283000F036FC5B
:1031C0001D483C3000F032FC1B48503000F02EFC13
:1031D000194860631430A06305E02068E96AC06A9A
:1031E000884200D82560606A401C60626864E86AB2
:1031F0002169884200D9206100EB800007EB800044
:10320000291D00F039FC00F063FC606900280CD037
:103210002068E96AC06A884207D208494FF08050A6
:103220000860BFF34F8FBFF36F8FBDE8F0810000E0
:1032300018000020F80100205806002004ED00E0EE
:1032400038B500F025FC104C2068C8B90F4800F0D4
:10325000EDFB0E48143000F0E9FB0C48E060143040
:1032600020610A4B0020F03B009003F15002102136
:103270000A2000F01FFF206010B105A100F0AAFC99
:10328000BDE8384000F024BC54000020AC0700200A
:10329000546D72510000000030B4026C0B46002ADD
:1032A0000BD0C1681144C1608468A14201D3016898
:1032B000C16030BC1846FDF7B6B830BC70472DE988
:1032C000F041856B174604460026026C82B1C7B1F7
:1032D000E068FDF7A8F8E168206C091AE16022684F
:1032E000914202D2A168081AE060022F16D017E0BE
:1032F0002068A8B9A06801F0AFFB06460020A060D6
:103300000EE06068FDF78FF8216C6068084460602B
:10331000A168884204D32068606001E005B16D1E99
:103320006D1CA5633046BDE8F08110B5044690F8E9
:10333000590058B101280CD002280FD0502080F33A
:103340001188BFF34F8FBFF36F8FFEE7206B00F044
:10335000D3FB2046BDE8104000F0CEBB10BD0000FE
:1033600010484FF44051420706D0C01D0D4920F0CF
:103370000700411AC1F540510B4A00230144C2E93C
:1033800000030839183A21F0070111604B600B6007
:103390000B1AC0E9001393604FF000405360506176
:1033A000704700008C0E002084000020144E154C45
:1033B000A6F29C474FF08058DFF84C9012E000BF17
:1033C00000F066FBF068C568281D00F005FBA068EA
:1033D000401EA0606068401E606000F079FB2846D7
:1033E000FFF7A3FF60680028EAD138680128F9D9FF
:1033F000C9F80080BFF34F8FBFF36F8FF2E7000073
:10340000940600201800002004ED00E0002807D0FA
:103410000021816001600B460A46C16000F0C2BE17
:103420007047000070B51D46049C51B1C4F80020DF
:10343000C4E90F010121204600F070FE84F84C50D1
:1034400070BD2460F4E700002DE9F05F8846DDE9F7
:103450000B941546834691009A460A9EA522206B3E
:10346000FDF758F86FF00301206B01EB850108446C
:1034700020F00707780707D0502080F31188BFF3AA
:103480004F8FBFF36F8FFEE70025B8F1000F0FD00D
:103490005FF00000221818F8001082F8341018F8B5
:1034A000001011B1401C1028F4D384F8435001E0FF
:1034B00084F83450382E00D33726E662C4E9136509
:1034C000201D00F0BEFA04F1180000F0BAFA2461E1
:1034D000C6F138006462A061656584F858505246B0
:1034E0005946384600F066FA2060B9F1000F01D065
:1034F000C9F80040BDE8F09F30B5114900E0114621
:103500000A688242FBD34B685C18844203D140684E
:1035100018444860084643681C18944209D1084C76
:10352000183C2468A24209D052681A4442600A68D2
:1035300012680260814200D0086030BD0460F9E783
:103540008400002070B5002441600B4D0061914261
:1035500006D8D11A8269914206D2011D286907E076
:103560009A4203D2994201D3012403E0011DE86885
:1035700000F06AFA204670BD5400002010B50446E1
:1035800000F086FAA06B28B15FF0000400F0A0FA0A
:10359000204610BD0124F9E730B589B03C4D6EE0FE
:1035A0000498002806DADDE90601059A9047049898
:1035B000002864DB069C606910B1201D00F00CFA45
:1035C00003A800F0D7F8024604980A2857D2DFE88B
:1035D00000F00505052D334A05052D3394F8280024
:1035E00040F0010084F828000599A069059B01447A
:1035F0002046FFF7A7FF68B3216A2046884794F862
:10360000280040073BD5002000900598A1690023C1
:1036100042181946204601F065FBD8B9502080F3C6
:103620001188BFF34F8FBFF36F8FFEE714F8280F99
:1036300020F00100207022E094F8280040F0010002
:1036400084F828000598A06128B181181346204607
:10365000FFF778FF13E0502080F31188BFF34F8FFE
:10366000BFF36F8FFEE794F82800810703D420464C
:1036700000F042FA03E020F0010084F82800002264
:1036800004A9286800F00AFF002889D109B030BDDC
:10369000540000202DE9FC410F46054600F0F0FBE8
:1036A00001A800F067F80446019818B101F088FA03
:1036B000BDE8FC81254EAFB130690068D0B300276A
:1036C000291B3A46306800F0C5FA01F079FA002863
:1036D000EED11F494FF080500860BFF34F8FBFF30A
:1036E0006F8FE5E7A542EBD801F06AFAF06827464C
:1036F000C068C468201D00F06FF994F828004107E5
:1037000019D5A0692B4641193A462046FFF71AFF02
:10371000A8B100200346014600902A46204601F049
:10372000E1FA60B9502080F31188BFF34F8FBFF3E7
:103730006F8FFEE707E020F0010084F82800216A7F
:1037400020468847B4E70127BAE70000540000206C
:1037500004ED00E00648416B096829B1416BC96876
:10376000C9684968816270474FF0FF31FAE700008D
:103770001800002070B5054601F0FCF8064E04461E
:10378000B068844203D200F009F8012000E0002074
:1037900028602046B46070BD54000020F8B5194D73
:1037A00020E0C068C4680668201D00F015F9216A91
:1037B0002046884794F82800400713D5A069304474
:1037C000B04206D924616060211DE86800F03CF930
:1037D00008E000200346014600903246204601F0F2
:1037E00081FA38B1E86801680029DAD12969C5E9A8
:1037F0000310F8BD502080F31188BFF34F8FBFF343
:103800006F8FFEE75400002008484068401C4FF0CE
:10381000500080F3118804D0BFF34F8FBFF36F8F38
:10382000FEE7BFF34F8FBFF36F8FFEE78C000020E2
:10383000074CE068016841B1C0680021D0F8000081
:10384000FFF728FFFFF7A8FEF3E701210020F7E7C5
:10385000540000202DE9F041044600F019F994F9D4
:10386000455004F1240609E0606A48B1304601F091
:103870006FF908B100F03EFA6D1E6DB2002DF3DC59
:103880004FF0FF3684F8456000F022F900F000F9AF
:1038900094F9445004F1100709E0206948B1384612
:1038A00001F056F908B100F025FA6D1E6DB2002D39
:1038B000F3DC84F84460BDE8F04100F009B9000091
:1038C0002DE9F0410546002700F0DAFA324E306863
:1038D00008B9FFF745FD706905424ED1C5B30835FB
:1038E00068070ED005F00700C0F10800054468071E
:1038F00007D0502080F31188BFF34F8FBFF36F8F35
:10390000FEE72DB37068854237D82348183001464A
:103910000C6801E020460C466168A94202D2216889
:103920000029F7D131688C4227D0076821680160EF
:1039300060680837411B10290FD96019420708D069
:10394000502080F31188BFF34F8FBFF36F8FFEE7D6
:1039500013E041606560FFF7CFFD61687068401A51
:103960007060B268904200D2B0607069014300207C
:10397000C4E90001F068401CF06001F021F978070B
:1039800007D0502080F31188BFF34F8FBFF36F8FA4
:10399000FEE73846BDE8F0816C0000200449086865
:1039A00018B10868026D521C026508687047000073
:1039B0001800002010B5031F4FF080741C601B1FFF
:1039C00021F001011960191F024B0B6014394038B6
:1039D0000A6010BD09380008D0E9013201699A6017
:1039E000D0E901235A604A68824201D182684A6064
:1039F000002202610868401E0860086870470000E5
:103A0000034B036003F15C00086080201060704786
:103A1000D4070020044B036003F15C0008604FF4FE
:103A20008070106070470000300A002000F108012B
:103A30004FF0FF32C0E90112C16001610021016055
:103A4000704700210161704730B50B685A1C02D0E5
:103A500000F1080202E0026904E022465468256889
:103A60009D42FAD953684B6099608A605160086141
:103A70000168491C016030BD42684A6093688B60F0
:103A800093685960916008610168491C0160704742
:103A9000502080F31188BFF34F8FBFF36F8F0A4917
:103AA0004868401C486001280CD10848006810F0A4
:103AB000FF0F07D0502080F31188BFF34F8FBFF363
:103AC0006F8FFEE7704700008C00002004ED00E0DF
:103AD0000849486828B1401E486001D180F3118828
:103AE0007047502080F31188BFF34F8FBFF36F8F63
:103AF000FEE700008C00002070B500282AD0164D8B
:103B0000A0F1080460686969084207D1502080F379
:103B10001188BFF34F8FBFF36F8FFEE722683AB172
:103B2000502080F31188BFF34F8FBFF36F8FFEE7F4
:103B30008843606000F0A4F96068696808446860C0
:103B40002046FFF7D9FC2869401C2861BDE8704079
:103B500001F036B870BD00006C0000204FF0E0208E
:103B600000210161816105494FF47A720968B1FB56
:103B7000F2F1491E416107210161704714000020E4
:103B800010B5FCF75BFB114910280ED300F1E020C3
:103B900090F8F0030A78904207D2502080F3118801
:103BA000BFF34F8FBFF36F8FFEE709480068896846
:103BB00000F4E060884207D9502080F31188BFF3F9
:103BC0004F8FBFF36F8FFEE710BD00008C00002009
:103BD0000CED00E010B5084B002200BF53F8324056
:103BE0001CB1521C082AF9D310BD43F8321003EB64
:103BF000C201486010BD0000B801002010B50400EB
:103C00000AD000F013F894F8460000280CD12046A2
:103C1000BDE81040FFF770BF502080F31188BFF35C
:103C20004F8FBFF36F8FFEE710BD0000084A0021E1
:103C300002EBC1035B68834206D1002042F83100E9
:103C400002EBC10148607047491C0829F0D3704756
:103C5000B801002070B515460E460446FFF718FF60
:103C600094F944100020491C01D184F8440094F9CF
:103C70004510491C01D184F84500FFF729FFA06BCE
:103C800028B92A46314604F1240000F051F82046B4
:103C9000BDE87040FFF7DEBD10B5020014D00F483C
:103CA000006B38B1502080F31188BFF34F8FBFF302
:103CB0006F8FFEE700F0E4F800211046FFF72AFAC4
:103CC00000F07EFF002807D105494FF080500860C2
:103CD000BFF34F8FBFF36F8F10BD0000180000209F
:103CE00004ED00E002490A6A0260C9684160704759
:103CF0001800002001490120C86170471800002009
:103D000010B50C4650B1094909681831FFF79CFEFF
:103D10002046BDE810400121FFF7FCB9502080F398
:103D20001188BFF34F8FBFF36F8FFEE7180000209D
:103D300070B514460D4668B10A4909681831FFF795
:103D40009BFE0CB14FF0FF3521462846BDE8704080
:103D5000FFF7E0B9502080F31188BFF34F8FBFF316
:103D60006F8FFEE71800002070B504003ED0226D72
:103D7000A2B1E06C884200D30146E06A884235D0A7
:103D8000012A33D11A4D2A6894420FD1502080F372
:103D90001188BFF34F8FBFF36F8FFEE7502080F382
:103DA0001188BFF34F8FBFF36F8FFEE7E162A26907
:103DB000002A02DBC1F13801A1610E4E00EB800048
:103DC000616906EB8000814210D1201DFFF704FEDF
:103DD000E06A2969884200D9286100EB800006EB7F
:103DE0008000211DBDE87040FFF746BE70BD000099
:103DF00018000020F801002030B587B0002403949B
:103E000005AA04A903A80494FFF7FAFDDDE903015C
:103E10000094CDE90110002315A11748059A00F080
:103E20006AFD164D0028E8621FD000F02BFF012824
:103E300009D0401C19D1502080F31188BFF34F8F57
:103E4000BFF36F8FFEE7502080F31188BFF34F8FD1
:103E5000BFF36F8F4FF0FF30A86201206861EC6004
:103E600007B0BDE8304000F045B807B030BD0000F5
:103E700049444C4500000000AD3300081800002004
:103E80000248016B491C01637047000018000020C4
:103E9000164810B5016B11B10121C16110BD00219F
:103EA000C1610169124A01E0B9B1491E01EB810308
:103EB00052F82330002BF7D001EB810302EB830291
:103EC00002F1080453685B685360A34201D15B6848
:103ED0005360DA680260016110BD502080F31188E0
:103EE000BFF34F8FBFF36F8FFEE700001800002075
:103EF000F80100201CB5264908780190FF200870C1
:103F000008788DF800009DF800009DF8002000F072
:103F1000F000904207D0502080F31188BFF34F8FFC
:103F2000BFF36F8FFEE79DF800001A4C00F05000C1
:103F300020700720A06005E09DF8002052008DF859
:103F40000020401E9DF800201206F5D4A060032832
:103F500007D0502080F31188BFF34F8FBFF36F8FCE
:103F6000FEE74FF44070A060019808700A480168AD
:103F700041F470010160016841F070410160FFF798
:103F8000EDFD00206060FCF723F900201CBD00005F
:103F900000E400E08C00002020ED00E010B550208F
:103FA00080F31188BFF34F8FBFF36F8F00F0F0FCE9
:103FB00018B104494FF080500860002080F3118848
:103FC00010BD000004ED00E010B50C4648B184427D
:103FD0000FD9502080F31188BFF34F8FBFF36F8F3D
:103FE000FEE7502080F31188BFF34F8FBFF36F8F30
:103FF000FEE70222002100F03CF8002800D0846394
:1040000010BD38B50C4648B184420FD9502080F31A
:104010001188BFF34F8FBFF36F8FFEE7502080F3FF
:104020001188BFF34F8FBFF36F8FFEE70221134656
:1040300000220091114600F03DF8002800D0846372
:1040400038BD10B502460021012000F012F80446E8
:10405000FFF7DCF9204610BD38B50B460022009072
:104060001146012000F026F80446FFF7CFF920465C
:1040700038BDF8B517460E46050013D005FB06F00F
:104080005030FFF71DFC04000AD0002084F84600E1
:1040900004F150023B46314628460094FFF7C2F92E
:1040A0002046F8BD502080F31188BFF34F8FBFF337
:1040B0006F8FFEE738B5049D18B153B1CAB181B115
:1040C00020E0502080F31188BFF34F8FBFF36F8F34
:1040D000FEE7502080F31188BFF34F8FBFF36F8F3F
:1040E000FEE7502080F31188BFF34F8FBFF36F8F2F
:1040F000FEE739B1502080F31188BFF34F8FBFF333
:104100006F8FFEE750241C46012384F846302B466F
:104110000094FFF787F9204638BD000070B50D46C2
:10412000040025D0FFF7B4FCD4E90F20216802FB7E
:104130000011A1600021A163216861600A46D4E9F1
:104140000F01401E00FB0121E16021464FF0FF30CE
:1041500001F8440F487004F110008DB1FFF766FCC0
:1041600004F12400FFF762FCFFF7B2FC012070BDF0
:10417000502080F31188BFF34F8FBFF36F8FFEE79E
:1041800021690029F0D000F0E3FC0028ECD00449BC
:104190004FF080500860BFF34F8FBFF36F8FE3E79E
:1041A00004ED00E02DE9FF4782B01D468A464FF03E
:1041B0000008040003D0BAF1000F08D011E050202D
:1041C00080F31188BFF34F8FBFF36F8FFEE7206C32
:1041D00038B1502080F31188BFF34F8FBFF36F8F3A
:1041E000FEE7022D0AD1E06B012807D0502080F3B2
:1041F0001188BFF34F8FBFF36F8FFEE700F0ACFB6A
:104200003F4F4FF000094FF0805648B9049838B13D
:10421000502080F31188BFF34F8FBFF36F8FFEE7FD
:10422000FFF736FCA06BE16B884207D3022D05D067
:104230000498D0B1B8F1000F1AD01EE02A465146BA
:104240002046FFF73CF8616A19B104F1240000F040
:104250007FFC20B13E60BFF34F8FBFF36F8FFFF73E
:1042600037FC012006B0BDE8F087FFF731FC22E003
:104270006846FFF737FD4FF00108FFF729FCFFF70D
:10428000FFFDFFF705FC94F94400401C01D184F8C0
:10429000449094F94500401C01D184F84590FFF703
:1042A00017FC04A9684600F0BFFA30B12046FFF7BA
:1042B000D1FA00F085FC0020D4E7FFF7E9FBA06B02
:1042C000E16B884213D1FFF703FC04F1100004995D
:1042D000FFF716FD2046FFF7BDFA00F071FC00283D
:1042E0009ED13E60BFF34F8FBFF36F8F98E7FFF70C
:1042F000EFFB2046FFF7AEFA00F062FC90E700000B
:1043000004ED00E02DE9F0471F4690468946040081
:1043100003D0B9F1000F08D011E0502080F31188CC
:10432000BFF34F8FBFF36F8FFEE7206C38B1502083
:1043300080F31188BFF34F8FBFF36F8FFEE7022F1B
:104340000AD1E06B012807D0502080F31188BFF319
:104350004F8FBFF36F8FFEE7FFF712FC5020EFF394
:10436000118680F31188BFF34F8FBFF36F8FA06B5F
:10437000E16B884206D3022F04D0002086F3118817
:10438000BDE8F08794F94550A06B3A46494620466F
:10439000FEF795FF681C04D06D1C84F84550012081
:1043A000ECE7606A0028FAD004F1240000F0D0FBAA
:1043B0000028F4D0B8F1000FF1D00121C8F80010A6
:1043C000EDE770B50E46040009D0206C78B150209E
:1043D00080F31188BFF34F8FBFF36F8FFEE750203C
:1043E00080F31188BFF34F8FBFF36F8FFEE7206814
:1043F00048B9A06838B1502080F31188BFF34F8FBF
:10440000BFF36F8FFEE7FFF7BBFB5020EFF3118583
:1044100080F31188BFF34F8FBFF36F8FA16BE06BF9
:10442000884218D994F94500491CA163411C04D065
:10443000401C84F8450001200EE0606A0028FAD094
:1044400004F1240000F084FB0028F4D0002EF2D008
:1044500001203060EFE7002085F3118870BD10B5B2
:10446000040009D000F072FAA168884214D1E06813
:10447000401EE06008D00DE0502080F31188BFF3AB
:104480004F8FBFF36F8FFEE700231A461946204671
:10449000FFF788FE012010BD002010BD2DE9F74771
:1044A000002683B08A46040003D0BAF1000F08D07A
:1044B00011E0502080F31188BFF34F8FBFF36F8F4F
:1044C000FEE7206C38B1502080F31188BFF34F8F86
:1044D000BFF36F8FFEE700F03FFADFF8F4804FF094
:1044E00000094FF0805748B9059838B1502080F343
:1044F0001188BFF34F8FBFF36F8FFEE7FFF7C8FA46
:10450000A56BC5B151462046FEF7C6FE6D1EA563DC
:10451000206950B104F1100000F01AFB28B1C8F86E
:104520000070BFF34F8FBFF36F8FFFF7D1FA0120F9
:1045300006B0BDE8F087059808B11EB106E0FFF7A8
:10454000C7FA27E06846FFF7CDFB0126FFF7C0FA60
:10455000FFF796FCFFF79CFA94F94400401C01D148
:1045600084F8449094F94500401C01D184F84590AA
:10457000FFF7AEFA05A9684600F056F90028204674
:104580000AD0FFF767F900F01BFB2046FEF7F6FFA5
:104590000028B3D00020CBE7FEF7F0FF90B104F184
:1045A00024000599FFF7ACFB2046FFF753F900F014
:1045B00007FB0028A2D1C8F80070BFF34F8FBFF3EC
:1045C0006F8F9BE72046FFF745F900F0F9FA95E772
:1045D00004ED00E02DE9F04790468946040003D041
:1045E000B9F1000F08D011E0502080F31188BFF31B
:1045F0004F8FBFF36F8FFEE7206C38B1502080F3F0
:104600001188BFF34F8FBFF36F8FFEE7FFF7B8FA44
:104610005020EFF3118680F31188BFF34F8FBFF363
:104620006F8FA76BF7B194F9445049462046FEF7C7
:1046300033FE7F1EA763681C04D06D1C84F84450B1
:10464000012010E020690028FAD004F1100000F0E9
:104650007FFA0028F4D0B8F1000FF1D00121C8F89A
:104660000010EDE7002086F31188BDE8F087000018
:104670002DE9F343002683B00400354609D0206CB1
:1046800078B1502080F31188BFF34F8FBFF36F8F45
:10469000FEE7502080F31188BFF34F8FBFF36F8F79
:1046A000FEE700F059F9DFF83C814FF000094FF0C8
:1046B000805748B9049838B1502080F31188BFF36F
:1046C0004F8FBFF36F8FFEE7FFF7E2F9A06BC8B122
:1046D000401EA063206810B9FFF760F9A060206950
:1046E00050B104F1100000F033FA28B1C8F800709E
:1046F000BFF34F8FBFF36F8FFFF7EAF9012005B0CB
:10470000BDE8F083049808B166B10FE03DB15020D8
:1047100080F31188BFF34F8FBFF36F8FFEE7FFF772
:10472000D7F95DE06846FFF7DDFA0126FFF7D0F91B
:10473000FFF7A6FBFFF7ACF994F94400401C01D148
:1047400084F8449094F94500401C01D184F84590C8
:10475000FFF7BEF904A9684600F066F80028204675
:1047600012D0FFF777F800F02BFA2046FEF706FF8D
:104770000028A9D09DB3FFF78BF9606A50B3206B76
:104780000068C0F1380126E0FEF7F8FEE0B12068CD
:1047900038B9FFF77DF9A06800F09EF90546FFF7EC
:1047A00097F904F124000499FFF7AAFA2046FFF7CD
:1047B00051F800F005FA002886D1C8F80070BFF360
:1047C0004F8FBFF36F8F7FE72046FFF743F800F06E
:1047D000F7F979E70021A068FFF7C6FA9FE7FFE73E
:1047E00000208CE704ED00E070B50D46040009D010
:1047F00000F0ACF8A16888420CD1E068401CE06091
:10480000012070BD502080F31188BFF34F8FBFF39C
:104810006F8FFEE729462046FFF72AFF0028F0D0D9
:10482000E168491CE16070BD2DE9F0410C460500CE
:1048300011D0C4B1FFF72CF9174BDA686E68206805
:10484000911B471C17D02F681B6A9F4219D09642B4
:1048500017D8012410E0502080F31188BFF34F8F48
:10486000BFF36F8FFEE7502080F31188BFF34F8FA7
:10487000BFF36F8FFEE70024FFF72AF92046BDE85B
:10488000F081884205D9401A20602846FFF72AFAAD
:10489000F1E700202060DCE7180000202DE9FF5F31
:1048A0008346DDE90E87994616468A469000FFF753
:1048B00007F805001CD05C20FFF702F8040014D0B4
:1048C0000020256384F85900CDE90240CDE9008736
:1048D0004B46324651465846FEF7B6FD2046FEF797
:1048E00047FC012004B0BDE8F09F2846FFF704F91B
:1048F0004FF0FF30F6E7F0B585B0DDE90B640A9DB7
:10490000A6B1DCB15C2700972663022684F85960C3
:10491000002604AFCDE90246CDE90057FEF794FD2D
:104920002046FEF725FC049805B0F0BD502080F32A
:104930001188BFF34F8FBFF36F8FFEE7502080F3D6
:104940001188BFF34F8FBFF36F8FFEE701480068F8
:1049500070470000180000200548416919B1006B3C
:1049600018B10020704701207047022070470000F6
:10497000180000200148C06870470000180000209F
:1049800010B5FFF7FDF80148C06810BD1800002001
:104990002DE9F0412E4C0027206B28B1A069401C66
:1049A000A0613846BDE8F081E668761CE66013D168
:1049B000606B006838B1502080F31188BFF34F8FCF
:1049C000BFF36F8FFEE7606BA16B6163A063206A2A
:1049D000401C2062FEF7BEFEA06ADFF878808642A7
:1049E00009D3606B0068A0B1606BC068C568686877
:1049F000864211D2A0622068C06A00EB800158F89C
:104A00002100012800D90127E0690028C9D0012729
:104A1000C7E74FF0FF30EDE7281DFEF7DDFFA86A7E
:104A200018B105F11800FEF7D7FFE86A216988423E
:104A300000D9206100EB800108EB8100291DFFF700
:104A40001BF8E86A2168C96A8842CAD30127C8E707
:104A500018000020F801002070B504004FF000019C
:104A600033D01B4D2868844207D0502080F3118832
:104A7000BFF34F8FBFF36F8FFEE7206D38B1401E3D
:104A80002065E36CE26A9A421FD040B11DE05020DD
:104A900080F31188BFF34F8FBFF36F8FFEE7201DA8
:104AA000FEF79AFFE06CE062C0F13800A061E06AB6
:104AB0002969884200D92861064900EB800001EB92
:104AC0008000211DFEF7D8FF0121084670BD0000BF
:104AD00018000020F801002070B504004FF000001D
:104AE0002BD0194DE16A2A68D26A914226D2A06978
:104AF000002804DB2868C06AC0F13800A061134EAA
:104B000001EB8101606906EB8101884211D1201D12
:104B1000FEF762FF2868C06AE0622969884200D90E
:104B2000286100EB800006EB8000211DFEF7A4FF4A
:104B300002E02868C06AE062012070BDE16C2A686A
:104B4000D26A9142F8D370BD18000020F80100200D
:104B500070B5C068C46854B104F118000646FEF789
:104B60003BFF144D286B50B13146134815E05020DF
:104B700080F31188BFF34F8FBFF36F8FFEE7201DC7
:104B8000FEF72AFFE06A2969884200D928610B49AB
:104B900000EB800001EB8000211DFEF76DFFE06A55
:104BA0002968C96A884202D90120E86170BD0020E5
:104BB00070BD00001800002080060020F8010020D1
:104BC0002DE9F0472C4D00242746286B38B1FEF71D
:104BD0005FFF286B401E2863286B40B146E05020E1
:104BE00080F31188BFF34F8FBFF36F8FFEE7A96883
:104BF000224E0120D1B3A6F5916980463068E0B11C
:104C0000F068C46804F11800FEF7E6FE201DFEF708
:104C1000E3FEE06A2969884200D9286100EB80013F
:104C200009EB8100211DFEF727FFE06A2968C96AA8
:104C30008842E3D3C5F81C80E0E70CB1FEF78AFD9B
:104C4000AC694CB14FEA0806FFF7A2FE00B1EE6175
:104C5000641EF9D10020A861E86938B1084901272C
:104C600038070860BFF34F8FBFF36F8FFEF730FF39
:104C70003846BDE8F08700001800002080060020BC
:104C800004ED00E010B586B0FEF7DAFA114C2068AA
:104C9000B8B100200390049005AA04A903A8FEF768
:104CA000B9FEDDE9032102208DE8070000230AA1F7
:104CB0000B48059AFFF71FFE606010B106B0012097
:104CC00010BD502080F31188BFF34F8FBFF36F8F5B
:104CD000FEE7000054000020546D722053766300FC
:104CE000313800082DE9FF411E46134602000A9D97
:104CF0004FF0000016D0144C2768002F0FD0CDE9DC
:104D000000130292062917DAFFF726FE02284FF059
:104D100000030FD0002269462068FFF743FA04B071
:104D2000BDE8F081502080F31188BFF34F8FBFF3AF
:104D30006F8FFEE72A46EEE7002332466946384683
:104D4000FFF7E0FAEBE700005400002010B500295F
:104D50000AD00878002807D005487844FBF7F4FF0C
:104D6000002801D0002010BD0248784410BD00008A
:104D70009E060000960600000808A0F500114FEA04
:104D80003101704743004FEAD30C4FEA3C0C4340DB
:104D90001FBF40070CF1605113F0FE4F70471CF02D
:104DA000006F03D100200CF0004170470CF000436D
:104DB00043EA507010B540EACC0000F071F800BF33
:104DC000000000924FEA0001FFF7D6BF4FF000410C
:104DD0004FF00000A1F500217047000090EA010F9C
:104DE00048BF81F0004100F1AE80421A3CBF801AFA
:104DF00089184FEAD0524FF07F4C1CEA410FA2EBCA
:104E0000D15318BF9CEA026F00F03B804FF0004C7A
:104E10004CEA00204CEA012121FA03FC10EB0C0CB7
:104E20001ED202F1FF325FEA1C2040EBC25038BFB5
:104E300070471CF07F0F4FEA400C18BFBCF17F4F4A
:104E400038BF7047C3F12003994008BF20F001002C
:104E5000BCF17F4F38BF7047A0F1C04000F066B88A
:104E60004FEA3C00000A40EBC25028BF1CF0FF0F85
:104E70004FEA400CE6D018BFBCF17F4F38BF7047F7
:104E8000EAE79CEA026F05D010EA5C0F08BF00F069
:104E90000040704710B500F003F800BF64FBBE3E51
:104EA0000EF1020E2EF0030E5EF8044B244204D4E1
:104EB0004FEA4102B2F17F4F11D84FEA4003B3F1FC
:104EC0007F4F0CD80ED14FEAD07CB2F17F4F0CEB64
:104ED0004C0C0CF1020C08BF4CEBD17C04E04FF001
:104EE000080C01E04FEAD17C0CEB4C0324FA03F4EC
:104EF00004F00704B4F1040C06D20EEB840CBDE8F8
:104F000010404CF0010C6047DFE80CF0070802028B
:104F10004FF00040A0F5800010BD0846420018BFC9
:104F2000D2F1807288BF00F0004010BDFF2141EA3D
:104F3000D050C0057047000090EA010F48BF81F0D3
:104F400000413FF552AF421A04D882F00042A0EB74
:104F5000020011444FEAD0524FF07F4C1CEA410F3F
:104F6000A2EBD15318BF9CEA026F4AD04FF0004C1D
:104F70004CEA00204CEA012121FA03FCB0EB0C0CB6
:104F80000FD412F0FE0F36D05FEA4C001DD5001290
:104F900040EBC25038BF70471CF03F0F18BF70473E
:104FA0000BE0A2F101025FEA1C2040EBC25038BFC7
:104FB00070471CF07F0F18BF7047C3F12003994062
:104FC00014BF401E20F00100704780084FEA1223F2
:104FD00008BF7047B0FA80FCA2EB0C02CCF1280CA1
:104FE00060FA0CF093EA122F04BF00EBC250704736
:104FF0004FEAC3707047130A5FEADC1008BF7047BE
:10500000F6E79CEA026F04D010EA5C0F08BF0020AC
:10501000704710B5FFF744FF40DFF63E81F00040D7
:105020007047FBF7DCBB0102020304050607080911
:105030000A0B0C0D0E0F1010000000000000000005
:10504000010203040607080900000000010203042E
:10505000A85300080000000000000000000000004D
:105060000000000000020000180000000000000026
:1050700000000000B853000800000000000000001D
:1050800000000000000000000004000028000000F4
:10509000000000000000000088530008000000002D
:1050A00000000000000000000000000000020000FE
:1050B0002000000000000000000000007053000805
:1050C00000000000000000000000000000000000E0
:1050D00000020000180000000000000000000000B6
:1050E0009C530008000000000000000000000000C9
:1050F000000000000004000020000000000000008C
:10510000000000007C5300080000000000000000C8
:105110000000000000000000000200000800000085
:105120000000000000000000CC5300080000000058
:10513000000000000000000000000000000200006D
:105140000800000000000000000000000240000015
:10515000000000A00000000005400000000000C8A2
:10516000000000000C4000000000409C0000000017
:10517000194000000020BCBE0000000034400000C8
:10518000BFC91B8E00000004B5400000504BCFD0BB
:105190006607E2CF010000006C4100003E8251AA88
:1051A000DFEEA73401000000D9420000DCB5A0E228
:1051B0003A301F97FFFFFFFFB4450000FD25A0C850
:1051C000E9A3C14FFFFFFFFFFF3F00000000008089
:1051D00000000000FF3F0000000000800000000011
:1051E0005BE98787E6A0B7E4BBBBE58AA15D20E861
:1051F000BF90E8A18CE4B8AD2E2E2E205469636BCD
:105200003A202575207C20E6A8A1E68B9FE8AFBB5D
:10521000E58F963133E4B8B2E794B5E58E8B3A5B0F
:10522000252E32665DE794B5E6B5813A5B252E32D0
:10523000665DE6B8A9E5BAA63A5B5D0D0A00000016
:105240005BE69585E99A9CE4BBBBE58AA15D20E815
:10525000BF90E8A18CE4B8AD2E2E2E205469636B6C
:105260003A202575207C20E6A8A1E68B9FE6A38046
:10527000E6B58BE69585E99A9CE78AB6E680813AA1
:1052800020E8BF87E6B5815B252E32665D0D0A00FA
:105290005BE69585E99A9CE4BBBBE58AA15D20E8C5
:1052A000BF90E8A18CE4B8AD2E2E2E205469636B1C
:1052B0003A202575207C20E6A8A1E68B9FE6A380F6
:1052C000E6B58BE69585E99A9CE78AB6E680813A51
:1052D00020E8BF87E58E8B5B252E32665D0D0A00C8
:1052E0005BE59D87E8A1A1E4BBBBE58AA15D20E861
:1052F000BF90E8A18CE4B8AD2E2E2E205469636BCC
:105300003A202575207C20E6A8A1E68B9FE68EA793
:10531000E588B6E794B5E88AAFE59D87E8A1A10DD9
:105320000A0000005BE58585E694BEE794B5E4BB22
:10533000BBE58AA15D20E8BF90E8A18CE4B8AD2E62
:105340002E2E205469636B3A202575207C20E6A818
:10535000A1E68B9FE588A4E696ADE58585E694BE3B
:10536000E794B5E78AB6E680815C720A0000000027
:10537000536F6343616C635461736B0042616C6192
:105380006E63655461736B00436861726765436F58
:105390006E74726F6C5461736B00000043616E43F6
:1053A0006F6D6D5461736B0044617461436F6C6C1D
:1053B0006563745461736B004661756C7450726FF1
:1053C000746563745461736B00000000417373690A
:1053D00073745461736B00001454000800000020C3
:1053E000A000000028010008B4540008A00000201C
:1053F00058440000440100081C0000004300000065
:10540000F8FFFFFF0C0000000E0000000F0000007E
:105410002E0000000100000000000000010000005C
:10542000100000000000000000127A0000000000E0
:10543000000000000000000000000000000000006C
:10544000000000000000000000000000000000005C
:10545000000000000000000000000000000000004C
:10546000000000000000000000000000000000003C
:10547000000000000000000000000000000000002C
:10548000000000000000000000000000000000001C
:10549000000000000000000000000000000000000C
:1054A00000000000AAAAAAAA000000000000000054
:0454B00000000000F8
:04000005080000ED02
:00000001FF
