:020000040800F2
:10000000980C00203102000807240008751E000823
:10001000052400081D0900088726000800000000CC
:10002000000000000000000000000000990100082E
:100030005109000800000000DD0100080924000843
:100040004B0200084B0200084B0200084B0200085C
:100050004B0200084B0200084B0200084B0200084C
:100060004B0200084B0200084B0200084B0200083C
:100070004B0200084B0200084B0200084B0200082C
:100080004B0200084B0200084B0200084B0200081C
:100090004B0200084B0200084B0200084B0200080C
:1000A0004B0200084B0200084B0200084B020008FC
:1000B000892400084B0200084B0200084B0200088C
:1000C0004B0200084B0200084B0200084B020008DC
:1000D0004B0200084B0200084B0200084B020008CC
:1000E0004B0200084B0200084B02000800F002F827
:1000F00000F042F80AA090E8000C82448344AAF180
:100100000107DA4501D100F037F8AFF2090EBAE87D
:100110000F0013F0010F18BFFB1A43F0010318473B
:100120003429000054290000103A24BF78C878C14F
:10013000FAD8520724BF30C830C144BF04680C60ED
:10014000704700000023002400250026103A28BF35
:1001500078C1FBD8520728BF30C148BF0B60704739
:10016000752900F0BB80782900F0F48000207047EA
:100170001FB51FBD10B510BD00F06AFA1146FFF79C
:10018000F7FF02F023FB00F088FA03B4FFF7F2FF59
:1001900003BC02F090FA0000224B19680868B0E82E
:1001A000F00F80F30988BFF36F8F4FF0000080F3EA
:1001B00011884EF00D0E70470000000006480068E0
:1001C000006880F3088862B661B6BFF34F8FBFF353
:1001D0006F8F00DF00BF00BF08ED00E0EFF3098084
:1001E000BFF36F8F0F4B1A6820E9F00F106008B54E
:1001F0004FF0500080F31188BFF34F8FBFF36F8F24
:1002000002F03CFB4FF0000080F31188BDE808408D
:1002100019680868B0E8F00F80F30988BFF36F8FA2
:10022000704700BF18000020EFF305807047000002
:100230000948804709480047FEE7FEE7FEE7FEE77A
:10024000FEE7FEE7FEE7FEE7FEE7FEE704480549B6
:10025000054A064B7047000087240008ED0000089F
:1002600098060020980C002098080020980800208C
:10027000704700000FB4044910B503AA029800F0BB
:10028000B5F910BC5DF814FB0400002070B50446FD
:1002900085690068C10601D5302600E02026C00728
:1002A00007D070BDD4E9012130469047206A401C38
:1002B00020626D1EF6D570BD70B504468569007864
:1002C000C00707D170BDD4E9012120209047206AE2
:1002D000401C20626D1EF6D570BD00002DE9F04176
:1002E0000646002410687529314616A510D0AFF3D4
:1002F0000080002802DA404213A507E031688A072F
:1003000001D512A502E0490704D511A5012401E099
:10031000AFF3008000210A2206F1240709E0B0FBB8
:10032000F2FCB0FBF2F302FB1C00303078541846AC
:10033000491C0028F3D123462A463046BDE8F04147
:1003400000F0FBB8000000002D0000002B000000B2
:100350002000000070B504460D4621461068AFF33A
:1003600000802188090502D50F4A7A4402E00E4A2E
:100370007A440E32002104F1240305E000F00F0658
:100380000009965D5E54491C0028F7D120780023AF
:10039000000704D5702D02D009B102231132204686
:1003A000BDE8704000F0C9B8AC2600002DE9F05F50
:1003B000894604464FF0000ADFF824B1FB44C0F838
:1003C00020A02046E168884700287DD0252806D057
:1003D000D4E901219047206A401C2062F1E7002502
:1003E0005F462046E16888472028064607DB312E15
:1003F00005D2B81910F8200C08B10543F1E7A80799
:1004000001D525F00405C4F81CA00027C4F818A0E5
:100410002A2E09D0304602F047F938B304EB87089A
:10042000303EC8F8186019E059F8041B204604EB68
:1004300087029161E1688847012F064618D1E0697B
:10044000002820DA25F020051DE0D8F8180000EB80
:10045000800006EB40003038C8F818002046E168FC
:100460008847064602F020F90028EED1012F0AD075
:100470002E2E08D12046E16888477F1C0646022FB1
:1004800045F02005C4DBA069002803DA404245F0AE
:100490000105A061E80701D025F01005A6B1A6F17D
:1004A0004100192802D8203645F400654A463146F5
:1004B000204625604D46FFF753FE60B1012807D066
:1004C000ED1D25F0070000E007E000F1080978E7DE
:1004D00005F1040975E730467AE7206ABDE8F09F28
:1004E000822600004FF0000200B51346944696465F
:1004F000203922BFA0E80C50A0E80C50B1F1200137
:10050000BFF4F7AF090728BFA0E80C5048BF0CC0E4
:100510005DF804EB890028BF40F8042B08BF704742
:1005200048BF20F8022B11F0804F18BF00F8012BB4
:10053000704770477047704770472DE9F0470D4688
:1005400099469246044600F124080168880604D5BD
:10055000E06921F01001216000E00120A84201DDE6
:10056000471B00E00027A1697A1902EB0900081A6D
:10057000A0612078C00602D42046FFF787FE00263F
:1005800008E0D4E901211AF806009047206A401CCF
:10059000761C20624E45F4DB2078C0060AD5204642
:1005A000FFF774FE06E0D4E9012130209047206A6D
:1005B000401C2062381EA7F10107F4DC07E0D4E9F3
:1005C000012118F805009047206A401C2062281E6F
:1005D000A5F10105F3DC2046FFF76EFE207800064A
:1005E00002D50220BDE8F0870120FBE7074B70B57C
:1005F0000D467B4400F011F80446284600F020F830
:1006000010B14FF0FF3070BD204670BDB321000027
:1006100001694A1C02610878704700B58FB0CDE9C6
:1006200001310021059105497944CDE903101146B6
:100630006846FFF7BBFE0FB000BD0000E5FFFFFFFF
:10064000007B00F0800070470048704734060020AF
:100650007546FFF7F9FFAE4605006946534620F0A0
:100660000700854618B020B5FFF7F0FDBDE8204033
:100670004FF000064FF000074FF000084FF0000B5E
:1006800021F00701AC46ACE8C009ACE8C009ACE811
:10069000C009ACE8C0098D46704710B50446AFF3F9
:1006A00000802046BDE81040FFF76FBD70B5364DA5
:1006B0004FF4807486B000222146284600F010FBDB
:1006C000022000F00BFA01222146284600F008FB28
:1006D000022000F003FA0A2000F000FA082000F0DF
:1006E0008FF810B1012006B070BD284E0024B51C53
:1006F0006946502002F034F80028F3D101A95920AE
:1007000002F02EF80028EDD102A9512002F028F8BD
:100710000028E7D19DF800009DF80410C0F34110B7
:10072000C00040EA511000F26D1030809DF80800C2
:10073000694640B228808DF800408DF804400420BE
:1007400002F00EF80028CDD101A9052002F008F82A
:100750000028C7D19DF8000040F018019DF8040062
:100760008DF8001040F040008DF80400042001F0E6
:10077000FCFF0028B6D19DF80410052001F0F5FF1C
:100780000028AFD1AFE7000000080140540000206E
:1007900070B50F4D00204FEA00042870FFF786FF68
:1007A00068B10C4800F04FFE142000F097F9641C6B
:1007B000E4B2052CF2D3287820B107A003E0012091
:1007C0002870FAE709A0BDE87040FFF753BD0000AC
:1007D00000000020D4000020425137363934302048
:1007E000696E6974204F4B0D0A0000004251373684
:1007F00039343020696E6974204641494C0D0A0035
:1008000010B541004FF47A730222034800F038FB20
:10081000002800D0012010BD800000203EB59AB114
:1008200093B14FF47A748DE81C0040000A460146EB
:100830000123064800F0DAFB002804D004A000BF22
:10084000FFF718FD01203EBD03A0F9E7800000205E
:100850006572726F720000004253505F4932435F0D
:10086000526561645F4275666665723A20627566BC
:10087000206973204E554C4C206F72206C656E20A1
:10088000697320300D0A00003EB582B100924FF42A
:100890007A730124CDE9014340000A46014623460C
:1008A000054800F0A3FB002800D001203EBD03A0B6
:1008B000FFF7E0FCF9E70000800000204253505FA2
:1008C0004932435F526561645F427974653A2064DE
:1008D000617461206973204E554C4C0D0A00000074
:1008E0007FB50C468DF80C200546012303AA01F0C4
:1008F00041FF8DF80D004FF47A72022103A88DE8B4
:100900000700690001232246034800F09DFC0028EF
:1009100000D0012004B070BD80000020FEE770B55B
:10092000002914D0002A12D000250EE04C5D604052
:100930000024060602D583EA400000E04000641C63
:10094000E4B2C0B2082CF4D36D1C9542EED370BD56
:10095000704772B6FEE770B5040003D094F820002B
:1009600010B104E0012070BD204600F081F820683D
:10097000016841F00101016000F0B8F90546052663
:1009800004E000F0B3F9401B0A2811D82068406841
:10099000C007F6D02068016821F00201016000F074
:1009A000A5F905460BE000F0A1F9401B0A2806D97D
:1009B000606A40F40030606284F82060D2E720680A
:1009C00040688007EFD4207E0128206801683DD070
:1009D00021F080010160607E01282068016838D024
:1009E00021F040010160A07E01282068016833D019
:1009F00021F020010160E07E0128206801682ED0EE
:100A000041F010010160207F01282068016829D091
:100A100021F008010160607F01282068016824D06E
:100A200021F004010160D4E902010843D4E9041271
:100A3000114308436168491E08432168C8610020CA
:100A40006062012084F82000002070BD41F0800128
:100A5000C0E741F04001C5E741F02001CAE721F0BD
:100A60001001CFE741F00801D4E741F00401D9E7D4
:100A700010B586B0002100910191029103910068A8
:100A80001349884222D11348C16941F00071C16104
:100A9000C16901F000710491816941F00401816133
:100AA00080690D4C00F0040004904FF40060009049
:100AB0006946204600F024F8A0140090022001901E
:100AC000032003906946204600F01AF806B010BDD6
:100AD00000640040001002400008014070B5044668
:100AE00000F004F90546601C02D004480078044474
:100AF00000F0FCF8401BA042FAD370BD08000020B3
:100B00002DE9F84FDFF8B8910024A9F1040B234632
:100B10000F2709F1040AABF1040EC9E00125A54035
:100B20002A40AA427DD1674ED1F804C0ACEB06083A
:100B3000B44532D014DCBCF1030F3AD009DCBCF16F
:100B4000000F2AD0BCF1010F1CD0BCF1020F31D133
:100B50001DE0BCF1110F17D0BCF1120F2AD119E022
:100B6000B8F5881F19D006DCB8F5803F15D0B8F568
:100B7000801F1FD111E0B8F5001F0ED0B8F5041F7B
:100B800018D10AE0CB6815E0CB681B1D12E0CB68DA
:100B900008330FE0CB680C330CE08B682BB1012BD2
:100BA0004FF0080303D0456104E0042302E005612F
:100BB00000E00023FF2A01D8064601E000F1040608
:100BC0004FEA840501D9A5F12005D6F8008007FA7F
:100BD00005FC28EA0C0803FA05F548EA0508C6F8FA
:100BE00000804D68ED0062D5374DAE6946F00106D4
:100BF000AE61AD6924F0030605F001050095334DA3
:100C000006EB050CDCF80850A607360F07FA06F8C5
:100C100025EA0805DFF8B880404503D14FF0000809
:100C200017E044E0DFF8AC80404502D14FF0010806
:100C30000FE0DFF8A480404502D14FF0020808E041
:100C4000DFF89880404502D14FF0030801E04FF0F3
:100C5000040808FA06F848EA0508CCF808804D6848
:100C6000D9F80060ED024D4601D5164300E09643E9
:100C70002E604D68DAF80060AD02554601D5164386
:100C800000E096432E604D68DBF80060AD035D46E2
:100C900001D5164300E096432E604D68DEF80060F3
:100CA000ED03754601D5164300E096432E60641CA3
:100CB0000D682A46E5407FF431AFBDE8F88F0000AB
:100CC0000804014000001110001002400000014023
:100CD00000080140000C01400010014000140140D8
:100CE0000AB1016170470904FBE700000148806810
:100CF000704700000800002070B5040025D094F86B
:100D00003D00002520B984F83C50204600F034FB1B
:100D1000242084F83D002068016821F00101016071
:100D20002068016841F4004101602068016821F4F5
:100D30000041016000F00EFD4D4A6168914201D80A
:100D40004C4900E04C49884201D2012070BD4B491A
:100D50002368B0FBF1F15E6826F03F060E435E604B
:100D60006368934206D94FF4967359434FF47A73EC
:100D7000B1FBF3F12368491C1E6A26F03F0631439C
:100D800019626168914210D84900401EB0FBF1F22F
:100D9000521CC2F30B02042A01D2042022E0B0FB51
:100DA000F1F0401CC0F30B001CE0A268F2B301EBB1
:100DB000C10303EB0116431EB3FBF6F35B1C43F4C4
:100DC00080431B0549D092B301EBC10202EB011134
:100DD000401EB0FBF1F0401CC0F30B0040F480401B
:100DE00040F400402168CA694CF6FF739A431043EF
:100DF000C861D4E9071001432068026822F0C002EC
:100E000011430160D4E9030101432068826848F27C
:100E1000FF339A4311438160D4E9050108432168F7
:100E2000CA6822F0FF021043C86001E00EE016E03D
:100E30002068016841F0010101602564202084F8E8
:100E40003D00256384F83E50002070BD01EB410653
:100E5000431EB3FBF6F35B1CB3E70120C2E701EBD3
:100E60004101401EB0FBF1F0401CC0F30B00B7E79E
:100E7000A086010080841E0000093D0040420F0052
:100E80002DE9FF4F81B089460446FFF72FFF054645
:100E900094F83D004FF0000820287DD1192301224D
:100EA00050492046009501F0FBF8002874D194F8D1
:100EB0003C00012870D0012084F83C0020680168C3
:100EC000C90703D1016841F0010101602068016890
:100ED00021F400610160242084F83D00002626648E
:100EE0004148E0624FF0011B20272068016841F46F
:100EF000807101600095002259462046049B01F054
:100F0000CFF850B120680068C00502D54FF40070DA
:100F10002064032005B0BDE8F08F216809F0FE00D1
:100F20000861FFF7E3FE2168054648694969C0F397
:100F30004000C1F380214FF0A00A0FE0FFF7D6FE7A
:100F4000411B0498814200D808B984F83DA021686B
:100F500048694969C0F34000C1F3802194F83D20FD
:100F6000A02A02D008B90029E8D084F83D70206892
:100F70004169C943890716D4016841F400710160D1
:100F8000206841698069192301221649204600958D
:100F900001F086F8B8B900E021E084F83D7084F8EB
:100FA0003C600020B6E7016841F4007101602168EF
:100FB0006FF480604861192301220A492046009598
:100FC00001F06EF808B10120A4E7039808F10108C8
:100FD00080458AD384F83D7084F83C60F3E70220B2
:100FE00098E70000020010000000FFFF2DE9FF4F0E
:100FF00083B00025DDE910799A4693460446DDF872
:1010000048800095FFF772FE064694F83D002028C0
:101010007CD11923012288492046009601F040F82E
:101020000028F5D194F83C0001286FD0012084F805
:101030003C0020680168C90703D1016841F0010143
:1010400001602068016821F400610160222084F8B9
:101050003D00402084F83E0025646762A4F82A9091
:10106000608D20857548E062CDE9008653465A467A
:101070002046049900F016FF00287CD1208DDFF86F
:10108000C091202768B1012814D002282068016887
:101090001ED041F480610160206841698069009040
:1010A000BCE02068416981690091016841F40071E8
:1010B0000160B3E02068016821F48061016072B6CC
:1010C0002068416981690091016841F400710AE07A
:1010D00041F40061016072B6206841698169009144
:1010E000016821F48061016062B697E0032865D849
:1010F00001280CD0022843464FF000024946204602
:1011000000960BD000F0CCFFA8BB0CE091E032467B
:101110004146204601F06AF868BB72E000F0C0FF6B
:1011200048BB72B633E02068016821F48061016039
:1011300072B620680069616A0870606A401C60626B
:10114000208D401E2085608D401E60853D4846F202
:10115000A8110068B0FBF1F0C0EBC00000EB80000C
:101160000090401E009007D020684069C0434007AF
:101170000DD50098F5E727E044F8305F6773A57355
:10118000206940F02000206162B625731CE02068D1
:10119000016841F40071016020680069616A0870AB
:1011A000606A401C6062218D491E2185618D491E47
:1011B000618562B621680969017026E032464146C0
:1011C000204601F013F818B1012007B0BDE8F08FF8
:1011D00020680069616A0870606A401C6062208D46
:1011E000401E81B22185608D401E60852068426965
:1011F000D243520712D4032903D1016821F480613C
:10120000016020680069616A0870606A401C606261
:10121000208D401E2085608D401E6085208D002819
:101220007FF464AF84F83D7084F83E5084F83C50FD
:10123000CBE70220C9E70000020010000000FFFF1A
:1012400004000100140000202DE9FF4F83B09A46EE
:10125000DDE9119793460446DDF84080FFF746FD2F
:10126000054694F83D0020287FD1192301224049EA
:101270002046009500F014FF002876D194F83C0039
:10128000012872D0012084F83C0020680168C90759
:1012900003D1016841F0010101602068016821F477
:1012A00000610160212084F83D00402084F83E0068
:1012B00000262664C4F82480A4F82A90608D208536
:1012C0002C48E062CDE9007553465A462046049901
:1012D00000F066FE70B930E02A463946204600F03C
:1012E000BDFF58B1206C042804D12068016841F486
:1012F00000710160012007B0BDE8F08F606A2168CD
:1013000000780861606A401C6062218D491E89B2C4
:101310002185628D521E628522685369DB435B071B
:101320000BD469B100781061606A401C6062208D46
:10133000401E2085608D401E6085208D0028CBD109
:101340002A463946204600F07FFE0028CAD154F8CC
:101350003D0B016841F400710160202004F81E0972
:10136000E67766770020C6E7FFE70220C3E70000C4
:10137000020010000000FFFF10B586B000210091B0
:1013800001910291039100681349884222D1134CC4
:10139000A06940F00800A061A069694600F008005B
:1013A00004904FF4407000901220019003200390AD
:1013B0000B48FFF7A5FB0B48416841F0E06141F0A5
:1013C00002014160E06940F40010E061E06900F46E
:1013D0000010049006B010BD005400400010024000
:1013E000000C01400000014070B5040013D02168DA
:1013F0004CF6CC400860216845F255500860D4E9AD
:10140000000141602168A0688860FFF76FFC054615
:1014100041F23C360DE0012070BD00BFFFF766FCD5
:10142000401BB04205D92068C068800701D0032066
:1014300070BD2068C0688007F0D121684AF6AA20F4
:101440000860002070BD00684AF6AA2101600020F3
:10145000704700000248816802781144816070473B
:1014600008000020074810B5016841F01001016034
:10147000032000F0A7F80F2000F006F800F050F865
:10148000002010BD0020024030B50546204887B03E
:10149000C16941F00101C161C06906A900F0010004
:1014A000009001A800F036F90498B8B100F052F9A4
:1014B000400018494FF08042B0FBF1F11648491E38
:1014C0000260416040F2E7320021C0E903218160FF
:1014D000816100F017FB040003D015E000F03AF939
:1014E000E7E70D4800F03CFB04000DD11C2000F0A4
:1014F0003BF8102D07D2002229461C2000F042F8AC
:101500000648056000E0012407B0204630BD000019
:101510000010024040420F00280100200C00002073
:101520000F4808B5816941F001018161816901F0CD
:1015300001010091C16941F08051C161C06900227F
:1015400000F0805000900F21901E00F01BF805481D
:10155000416821F0E06141F00071416008BD000088
:101560000010024000000140002809DB00F01F02CB
:10157000012191404009800000F1E020C0F80011F5
:1015800070470000F0B40E4B1B680C46C3F30223F7
:10159000C3F10705042D00D90425191D072901D21F
:1015A000002300E0DB1E012606FA05F1491E21405A
:1015B00099409E40761E16403143F0BC01F064B85D
:1015C0000CED00E0064900F0070208684FF6FF0343
:1015D000184040EA0220034A1043086070470000A8
:1015E0000CED00E00000FA052DE9F0470F4605007C
:1015F00061D0434E306800F00700B84209D230682D
:1016000020F0070038433060306800F00700B8422F
:1016100051D128683B4C810712D5400703D560683B
:1016200040F4E06060602878000703D5606840F40B
:10163000605060606068A96820F0F0000843606056
:101640002878C00728D06868012810D021680228AF
:1016500010D0890700292EDA616821F003010143C7
:101660006160FFF743FB804641F288390DE0216855
:101670008903EFE78901EDE7FFF738FBA0EB0801ED
:10168000494502D90320BDE8F0876068696800F029
:101690000C00B0EB810FEFD1306800F00700B842CA
:1016A0000BD9306820F0070038433060306800F014
:1016B0000700B84201D00120E5E72878400705D5AA
:1016C0006068E96820F4E0600843606028780007FB
:1016D00006D56068296920F4605040EAC100606066
:1016E00000F058F86168084AC1F30311515CC84022
:1016F0000649086006480068FFF7C6FE0020C2E7FA
:101700000020024000100240022A000814000020BD
:101710000C0000200F2202600C4A536803F0030300
:101720004360536803F0F0038360536803F4E0639D
:10173000C36052684FF4E06303EAD20202610448D6
:10174000006800F0070008607047000000100240C9
:10175000002002400448054900684968044AC1F372
:101760000221515CC8407047140000200010024064
:10177000122A00080448054900684968044AC1F370
:10178000C221515CC8407047140000200010024084
:10179000122A00080E4A51680E4801F00C03042B6F
:1017A00011D0082B0FD10C48C1F38343C903C05C8F
:1017B0000AD55168084AC1F34041921E515C054A5E
:1017C0005043B0FBF1F070470449484370470000B4
:1017D0000010024000127A00F229000800093D00C2
:1017E0002DE9F84F040070D02078C04DC00749D0D3
:1017F0006868C0F38100012807D06868C0F38100E1
:10180000022809D16868C00306D52868800339D545
:1018100060680028E7D035E06068B0F5803F0BD005
:1018200010B1B0F5A02F11D0286820F480302860C6
:10183000286820F4802002E0286840F48030286086
:10184000606890B1FFF752FA06460AE0286840F453
:1018500080202860F0E700BFFFF748FA801B64286B
:1018600073D828688003F7D50CE0FFF73FFA0646E7
:1018700005E000BFFFF73AFA801B6428F0D828681B
:101880008003F7D420789A4E80074FF001094FF07B
:10189000000839D5686810F00C0F07D06868C0F3ED
:1018A0008100022809D16868C00306D4286880072F
:1018B00014D52069012808D110E02069B0B1C6F81C
:1018C0000090FFF713FA074605E00AE1FFF70EFA6A
:1018D000C01B0228C4D828688007F7D5286861692A
:1018E00020F0F80040EAC10028600DE0C6F8008052
:1018F000FFF7FCF9074604E0FFF7F8F9C01B0228E0
:1019000023D828688007F7D4207800072CD5794899
:10191000A169D9B1C0F80090FFF7E8F9074604E0E3
:10192000FFF7E4F9C01B02280FD8686A8007F7D5D3
:1019300071484FF4FA510068B0FBF1F0009000BF1D
:101940000098411E0091FAD20EE080E0C0F80080BD
:10195000FFF7CCF9074604E0FFF7C8F9C01B0228DF
:1019600075D8686A8007F7D42078400760D5E869A1
:101970000027C00008D4E86940F08050E861E869B9
:10198000012700F0805000905C480168C90513D41D
:101990000168834641F480710160FFF7A7F9824630
:1019A00006E000BFFFF7A2F9A0EB0A0064284ED8BA
:1019B000DBF80000C005F5D5E06801280AD008B1C1
:1019C000052813D0286A20F001002862286A20F038
:1019D000040002E0286A40F001002862E06841F259
:1019E000883B98B1FFF782F982460BE0286A40F005
:1019F00004002862EEE700BFFFF778F9A0EB0A01C8
:101A000059455AD8286A8007F6D50CE0FFF76EF9D9
:101A1000824605E0FFF76AF9A0EB0A0159454CD868
:101A2000286A8007F6D41FB1E86920F08050E86189
:101A3000E06988B36968C1F38101022944D00228B2
:101A4000C6F8608004D0FFF751F9044638E034E06E
:101A5000FFF74CF9074604E0FFF748F9C01B0228DE
:101A60002BD828688001F7D4206AB0F5803F05D1D3
:101A70006868A16820F4003008436860D4E9080170
:101A80000843696821F4741108436860C6F86090DF
:101A9000FFF72CF9044606E025E000BFFFF726F922
:101AA000001B022809D828688001F7D51BE000BF79
:101AB000FFF71CF9001B022802D90320BDE8F88FAC
:101AC00028688001F4D40EE00128F7D06868226A03
:101AD00000F48031914204D1616A00F470108842B0
:101AE00001D00120EAE70020E8E7000000100240F2
:101AF0000000424280044242140000200070004076
:101B00007047704710B5040003D094F83D0010B141
:101B100007E0012010BD002084F83C00204600F0C2
:101B20001EF8022084F83D00211D206800F0B2FC60
:101B3000012084F8460084F83E0084F83F0084F8D1
:101B4000400084F8410084F8420084F8430084F89F
:101B5000440084F8450084F83D00002010BD704723
:101B600090F83D10012901D001207047022180F832
:101B70003D100168CA6842F00102CA6000680B4962
:101B8000884208D0B0F1804F05D00949884202D080
:101B90000849884204D1816801F00701062903D071
:101BA000016841F00101016000207047002C0140F4
:101BB000000400400008004070472DE9F041044651
:101BC0000068C66805694FF00007A90713D5B1077B
:101BD00011D5F91E016101202077206880698007F6
:101BE000204602D0FFF7E8FF04E000F07EF8204630
:101BF00000F07CF82777680716D5700714D52168A0
:101C00006FF004000861022020772068806910F4DA
:101C1000407F204602D0FFF7CFFF04E000F065F8D8
:101C2000204600F063F82777280715D5300713D52D
:101C300021686FF008000861042020772068C069DF
:101C40008007204602D0FFF7B7FF04E000F04DF810
:101C5000204600F04BF82777E80616D5F00614D595
:101C600021686FF010000861082020772068C069A3
:101C700010F4407F204602D0FFF79EFF04E000F002
:101C800034F8204600F032F82777E80708D0F0074C
:101C900006D021686FF001000861204600F027F8A7
:101CA000280608D5300606D521686FF08000086147
:101CB0002046FFF725FF680608D5700606D521687F
:101CC0006FF040000861204600F018F8A8060AD519
:101CD000B00608D521686FF0200008612046BDE8F5
:101CE000F041FFF70EBFBDE8F08170477047006814
:101CF000B0F1804F01D1FFF7ADBB7047704770B5B1
:101D0000040004D094F84100002510B106E0012041
:101D100070BD84F84050204600F024F8242084F858
:101D200041002068C16821F40051C160204600F0E4
:101D300015FC2068016921F4904101612068416926
:101D400021F02A0141612068C16841F40051C1605D
:101D50006564202084F8410084F842006563002017
:101D600070BD000030B585B0002400940194029449
:101D7000039400681449884224D11448816941F4CD
:101D800080418161816901F480410491816941F060
:101D90000401816180690E4D00F0040004904FF44D
:101DA00000700090022001900320039069462846AD
:101DB000FEF7A6FE2815CDE90004694628460294E0
:101DC000FEF79EFE05B030BD003801400010024015
:101DD000000801402DE9F843044690F84100984678
:101DE00016460D46202802D00220BDE8F88385B1B2
:101DF0007EB100206064212084F84100FEF776FF68
:101E0000A6848146E684A0682027B0F5805F02D0D2
:101E100003E00120E9E7206910B12E4600250EE01D
:101E200000260CE08021204600F0F4FBA8B9C6B1E2
:101E300016F8010B21684860E08C401EE084E08CBD
:101E40004B464FF00002CDF800800028EAD14FF059
:101E50004001204600F0DEFB40B184F841700320D1
:101E6000C3E735F8020BC0F30800E3E784F84170DC
:101E70000020BAE7FEE701684A69D24352050FD451
:101E80006FF480624A61002140F8301F20224273C3
:101E90008173026942F004020261017301207047FC
:101EA000002070472DE9F84F0446006889460B9DD5
:101EB00001689846174641F4806101602068016816
:101EC00041F48071016000954FF0011B00225946DA
:101ED00020460A9B00F0E4F84FF4007A40B12068F5
:101EE0000068C00501D5C4F840A00320BDE8F88F04
:101EF000216809F0FE0008612B46284920460A9A0D
:101F000000F016F9F0BB20684169806900902A460C
:101F100020460A9900F0A2F940B1206C04283AD179
:101F20002068016841F40071016034E0FEB2B8F14C
:101F3000010F09D02168380A08612A4620460A990B
:101F400000F08CF90028E8D1206806612A46204676
:101F50000A9900F083F90028DFD12068016841F474
:101F60008071016000950022594620460A9B00F0CE
:101F700097F80028B3D1216809F0FF0040F0010074
:101F8000086100E007E02B46044920460A9A00F069
:101F9000CFF80028AAD00120A8E700000200010025
:101FA0002DE9F843044600680D46DDE9089701680D
:101FB0009846164641F4807101604B4600224FF06E
:101FC00001112046009700F06BF848B120680068C6
:101FD000C00502D54FF4007020640320BDE8F883EB
:101FE000216805F0FE0008613B464A461549204637
:101FF00000F09EF888B920684169806900903A46EF
:102000004946204600F02AF948B1206C042804D142
:102010002068016841F4007101600120DEE7F5B23B
:10202000B8F1010F09D02168300A08613A464946E3
:10203000204600F013F90028E7D120680561002050
:10204000CCE700000200010070B516460D460446BC
:102050001EE02046FFF70FFF08B1012070BD681C8D
:1020600016D0FEF743FE801BA84200D885B9206831
:102070004069C04340070BD5002044F8300F2021B1
:102080006173A073216941F0200121612073E4E7AD
:1020900020684069C0434007DBD4002070BD0000C9
:1020A0002DE9F047984617460D460446C1F307460A
:1020B000DDF820902AE000BFB8F1FF3F26D0FEF700
:1020C00015FEA0EB0901414502D8B8F1000F1DD162
:1020D0002068012E16D0806925EA00000004000C5B
:1020E00012D00020B84211D1002044F8300F202136
:1020F0006173A073216941F02001216120730120E7
:10210000BDE8F0874069E7E70120EBE72068012E92
:102110000AD0806925EA00000004000C06D00020E7
:10212000B842C9D00020EBE74069F3E70120F7E7A8
:102130002DE9F047984616460D4604464FF0000933
:102140004FF0200AC1F3074723E020684069C043ED
:10215000400515D42068016841F4007101602168D0
:102160006FF480604861C4F8309084F83DA084F832
:102170003E90216C41F00401216484F83C9021E000
:10218000701C06D0FEF7B2FDA0EB0800B04203D8E9
:1021900016B1012F1FD021E02068012F15D08069D2
:1021A00025EA00000004000C18D000BF44F8309F5E
:1021B00084F80DA084F80E90216941F0200121617E
:1021C00084F80C900120BDE8F087406925EA000002
:1021D0000004000CEAD12068406901E020688069B1
:1021E00025EA00000004000CAFD1ECE72DE9F04136
:1021F000002590460E460446202728E04069C0434B
:10220000C0060CD454F8301B6FF01000486144F83D
:1022100010596777A577206A2062257714E0FEF7CA
:1022200065FDA0EB0800B04200D886B9206840697F
:10223000C04340060BD544F8305F6773A57320692F
:1022400040F02000206125730120BDE8F081206866
:102250004169C9434906D1D40020F6E770B5164656
:102260000D4604461EE02046FFF705FE08B101209A
:1022700070BD681C16D0FEF739FD801BA84200D83F
:1022800085B920684069C04300060BD5002044F89A
:10229000300F20216173A073216941F02001216179
:1022A0002073E4E720684069C0430006DBD40020C7
:1022B00070BD00000D4810B50B4901601021416050
:1022C00000218160C16001614161017641768176C2
:1022D000C17601774177FEF73EFB002803D0BDE8C9
:1022E0001040FEF736BB10BD0064004058000020CF
:1022F00070B586B0002418480094019402940394A9
:10230000816941F020018161816901F0200104911E
:10231000816941F004018161816901F00401049146
:10232000816941F00801816180690C4E00F008006C
:102330004FF401450490002229463046FEF7D0FCB8
:1023400001200095CDE90104022003906946304642
:10235000FEF7D6FB06B070BD001002400008014039
:102360000D4810B50B4901600C49416000214FF444
:1023700080428160C0E9031241618161C1610162F3
:10238000FEF7BAFC002803D0BDE81040FEF7E1BA22
:1023900010BD00000054004080000020A086010015
:1023A000094810B5074901600021416040F6FF71FE
:1023B0008160FFF719F8002803D0BDE81040FEF750
:1023C000C8BA10BD00300040D40000200C4810B541
:1023D0000A4901604FF4E1314160002181600C2223
:1023E000C160C0E904128161C161FFF788FC002867
:1023F00003D0BDE81040FEF7ACBA10BD0038014074
:10240000E0000020FEE7FEE710B54FF0E020006995
:1024100000F07CFA012803D0BDE8104000F060BA5B
:1024200010BD30B58FB028216846FEF75BF8142147
:102430000AA8FEF757F80920012100904FF48030D8
:10244000002404910691CDE901040225CDE907504D
:102450004FF4E01009906846FFF7C2F908B172B670
:10246000FEE70F20CDE90A054FF48060CDE90C406E
:1024700002210AA80E94FFF7B7F8002801D072B61F
:10248000FEE70FB030BD70470148FFF796BB000074
:1024900028010020F0B50268194B1A4C1A4D4FF074
:1024A0008047984205D0B84203D0A04201D0A8424C
:1024B00003D122F070064A683243984205D0B842F0
:1024C00003D0A04201D0A84203D122F44074CA68CC
:1024D00022434C6922F08002224302608A68C26271
:1024E0000A688262984201D1096901630121416150
:1024F0000169C90703D0016921F001010161F0BD43
:10250000002C0140000400400008004001680C312C
:1025100051E8002F22F4907241E80023002BF5D1FE
:102520000168143151E8002F22F0010241E8002334
:10253000002BF5D1016B012909D101680C3151E85B
:10254000002F22F0100241E80023002BF5D12021BA
:1025500080F84210002101637047000070B5044606
:1025600000680169E26821F4405111430161216969
:10257000A0680843616908432168CA6841F20C6396
:102580009A430243CA6020684169A26921F44071FC
:10259000114341611E492068884202D1FFF7EAF8E1
:1025A00001E0FFF7D7F800EBC00101EB0012606813
:1025B00064218000B2FBF0F3B3FBF1F36FF0180677
:1025C0007343B2FBF0F5B2FBF0F605EB8305322363
:1025D00003EB0515B5FBF1F5B6FBF1F605F0F005DB
:1025E00005EB0615B2FBF0F6B2FBF0F0B0FBF1F034
:1025F0006FF01802504306EB800003EB0010B0FBB5
:10260000F1F0216800F00F002844886070BD0000E0
:10261000003801402DE9F843984617460D46044618
:10262000089E24E0701C22D0FEF760FBA0EB08009F
:10263000B0421AD8CEB12068C168490717D5802D9D
:1026400015D0402D13D00168C94309070FD4016884
:102650000025406800902046FFF758FF082060647E
:1026600084F840500120BDE8F8830320FBE7206890
:10267000006835EA000004D00020B842D2D0002023
:10268000F1E70120F9E7FEE70907090E002804DB5E
:1026900000F1E02080F80014704700F00F0000F116
:1026A000E02080F8141D704730380A2801D201203C
:1026B00070470020704770473EB5044600200290E6
:1026C000022302AA21460820FEF7A8F820B12146DD
:1026D00012A0FDF7CFFD3EBD9DF8080011218DF839
:1026E00000008DF8041000200723012201A9FEF745
:1026F00016F9072301226946FEF711F99DF8093002
:10270000834201D1012100E00021CDE900019DF8C3
:102710000820214607A0FDF7ADFD3EBD525B307895
:10272000253032585D3A2072656164206661696CBB
:102730000D0A0000525B3078253032585D3A204453
:102740003D25303258205045433D253032582045F4
:1027500058503D25303258204F4B3D25750D0A000D
:102760000A4601460820FEF78FB80A4601460820AF
:10277000FEF7B6B83FB5014681B049001D46144684
:102780008DF800100020072301226946FEF7C7F8E4
:102790000723012202A9FEF7C2F807232A46214691
:1027A000FEF7BDF805B030BD13B50648007830B16E
:1027B0004FF4FA73012269460348FFF70BFB0098B8
:1027C0001CBD000001000020E0000020FEF74AFED2
:1027D000FFF727FEFFF78CFDFFF76CFDFFF7C0FD4D
:1027E000FFF7DEFDFFF7F2FD08A0FDF743FDFDF763
:1027F000CFFF0C20FFF760FF0D20FFF75DFF0648BD
:10280000FEF721FE3220FEF769F9F2E75374617298
:10281000742E2E2E0D0A0000D40000200648416BB5
:10282000096829B1416BC968C96849688162704704
:102830004FF0FF31FAE7000018000020D0E9013224
:1028400001699A60D0E901235A604A68824201D145
:1028500082684A60002202610868401E08600868B9
:10286000704742684A6093688B60936859609160D2
:1028700008610168491C016070470000164810B5E6
:10288000016B11B10121C16110BD0021C16101695C
:10289000124A01E0B9B1491E01EB810352F823301D
:1028A000002BF7D001EB810302EB830202F1080455
:1028B00053685B685360A34201D15B685360DA6878
:1028C0000260016110BD502080F31188BFF34F8F6B
:1028D000BFF36F8FFEE7000018000020700100209A
:1028E00010B5502080F31188BFF34F8FBFF36F8F67
:1028F00000F01AF818B104494FF080500860002029
:1029000080F3118810BD000004ED00E00548416926
:1029100019B1006B18B100207047012070470220E8
:1029200070470000180000202DE9F0412E4C0027D0
:10293000206B28B1A069401CA0613846BDE8F08139
:10294000E668761CE66013D1606B006838B15020F1
:1029500080F31188BFF34F8FBFF36F8FFEE7606B7B
:10296000A16B6163A063206A401C2062FFF756FFE1
:10297000A06ADFF87880864209D3606B0068A0B156
:10298000606BC068C5686868864211D2A062206822
:10299000C06A00EB800158F82100012800D9012706
:1029A000E0690028C9D00127C7E74FF0FF30EDE705
:1029B000281DFFF743FFA86A18B105F11800FFF7BB
:1029C0003DFFE86A2169884200D9206100EB80015F
:1029D00008EB8100291DFFF744FFE86A2168C96AF6
:1029E0008842CAD30127C8E71800002070010020E0
:1029F000010202030405060708090A0B0C0D0E0F5D
:102A0000101000000000000000000102030406078F
:102A1000080900000000010203043031323334356C
:102A2000363738394142434445464030580030310A
:102A30003233343536373839616263646566403025
:102A400078000400000800000000000000020001FF
:102A500000001000742A0008000000205800000048
:102A600028010008CC2A000858000020400C000073
:102A70004401000800010000000000000100000007
:102A8000100000000000000000127A0000000000AA
:102A90000000000000000000000000000000000036
:102AA0000000000000000000000000000000000026
:102AB0000000000000000000000000000000000016
:0C2AC00000000000000000006D0100009C
:04000005080000ED02
:00000001FF
