:020000040800F2
:10000000782100204D020008EF430008193E000847
:10001000ED430008552100082347000800000000B8
:10002000000000000000000000000000B501000812
:100030009124000800000000F9010008A544000810
:1000400067020008670200086702000867020008EC
:1000500067020008670200086702000867020008DC
:1000600067020008670200086702000867020008CC
:1000700067020008670200086702000867020008BC
:1000800067020008670200086702000867020008AC
:10009000670200086702000867020008670200089C
:1000A000670200086702000867020008670200088C
:1000B000254500086702000867020008670200087B
:1000C000670200086702000867020008670200086C
:1000D000670200086702000867020008670200085C
:1000E00067020008670200086702000800F002F8D3
:1000F00000F050F80AA090E8000C82448344AAF172
:100100000107DA4501D100F045F8AFF2090EBAE86F
:100110000F0013F0010F18BFFB1A43F0010318473B
:100120002C7900004C790000103A24BF78C878C1BF
:10013000FAD8520724BF30C830C144BF04680C60ED
:10014000704700000023002400250026103A28BF35
:1001500078C1FBD8520728BF30C148BF0B60704739
:10016000662907F02E80642900F0C680752900F00A
:10017000C380782900F0FC80002070471FB500F094
:1001800039FD04000020002106F0F6FCE0601FBDF0
:1001900010B510BD00F04EFE1146FFF7EFFF04F062
:1001A000B7FC00F06CFE03B4FFF7F2FF03BC04F0F1
:1001B000F0FA0000224B19680868B0E8F00F80F3ED
:1001C0000988BFF36F8F4FF0000080F311884EF065
:1001D0000D0E70470000000006480068006880F3BC
:1001E000088862B661B6BFF34F8FBFF36F8F00DF31
:1001F00000BF00BF08ED00E0EFF30980BFF36F8F91
:100200000F4B1A6820E9F00F106008B54FF050004E
:1002100080F31188BFF34F8FBFF36F8F05F04EFD52
:100220004FF0000080F31188BDE8084019680868A5
:10023000B0E8F00F80F30988BFF36F8F704700BFFD
:1002400028000020EFF30580704700000948804730
:1002500009480047FEE7FEE7FEE7FEE7FEE7FEE7A8
:10026000FEE7FEE7FEE7FEE704480549054A064BC0
:100270007047000023450008ED000008781B0020AF
:1002800078210020781D0020781D00207047000094
:100290000FB4044910B503AA029800F077FC10BC13
:1002A0005DF814FB1400002070B5044685690068F1
:1002B000C10601D5302600E02026C00707D070BD5A
:1002C000D4E9012130469047206A401C20626D1E0F
:1002D000F6D570BD70B5044685690078C00707D1B2
:1002E00070BDD4E9012120209047206A401C206283
:1002F0006D1EF6D570BD00002DE9F04106460024C4
:1003000010687529314616A510D0AFF3008000287B
:1003100002DA404213A507E031688A0701D512A529
:1003200002E0490704D511A5012401E0AFF30080E4
:1003300000210A2206F1240709E0B0FBF2FCB0FB21
:10034000F2F302FB1C00303078541846491C002898
:10035000F3D123462A463046BDE8F04100F0ADB95E
:10036000000000002D0000002B0000002000000015
:1003700070B504460D4621461068AFF30080218811
:10038000090502D50F4A7A4402E00E4A7A440E3239
:10039000002104F1240305E000F00F060009965D3A
:1003A0005E54491C0028F7D120780023000704D5AB
:1003B000702D02D009B1022311322046BDE87040F1
:1003C00000F07BB96A7000002DE9F05F89460446B1
:1003D0004FF0000ADFF874B1FB44C0F820A02046BB
:1003E000E1688847002874D0252806D0D4E9012187
:1003F0009047206A401C2062F1E700265F462046B5
:10040000E16888472028054607DB312D05D2781999
:1004100010F8200C08B10643F1E7B00701D526F02B
:100420000406C4F81CA00027C4F818A02A2D09D07F
:10043000284604F0A7F938B304EB8708303DC8F824
:10044000185019E059F8041B204604EB870291610B
:10045000E1688847012F054618D1E069002820DAB5
:1004600026F020061DE0D8F8180000EB800005EB10
:1004700040003038C8F818002046E1688847054633
:1004800004F080F90028EED1012F0AD02E2D08D1DA
:100490002046E16888477F1C0546022F46F020066B
:1004A000C4DBA069002803DA404246F00106A061DF
:1004B000F00701D026F010066C2D0BD0682D09D066
:1004C0004C2D39D06A2D35D0742D35D07A2D33D0BE
:1004D00016E038E0E1682F4620468847B8420546D6
:1004E00009D16C2F26D04FF48060E1680643204686
:1004F0008847054604E06C2F1AD04FF480700643FD
:100500000DB3A5F14100192802D8203546F4006644
:100510004A462946204626604E46FFF721FE80B116
:1005200001280BD0F61D26F0070000F1080956E758
:100530004020E4E78020D8E70020D6E706F1040950
:100540004DE7284652E7206ABDE8F09F4070000062
:10055000032A40F2308010F0030C00F0158011F8EF
:10056000013BBCF1020F624498BF11F801CB00F8C7
:10057000013B38BF11F8013BA2F1040298BF00F81B
:1005800001CB38BF00F8013B11F0030300F02580D8
:10059000083AC0F0088051F8043B083A51F804CBFF
:1005A000A0E80810F5E7121D5CBF51F8043B40F8C5
:1005B000043BAFF30080D20724BF11F8013B11F8D0
:1005C00001CB48BF11F8012B24BF00F8013B00F814
:1005D00001CB48BF00F8012B704710B5203AC0F09E
:1005E0000B80B1E81850203AA0E81850B1E8185034
:1005F000A0E81850BFF4F5AF5FEA027C24BFB1E871
:100600001850A0E8185044BF18C918C0BDE81040E1
:100610005FEA827C24BF51F8043B40F8043B08BFEA
:100620007047D20728BF31F8023B48BF11F8012BB1
:1006300028BF20F8023B48BF00F8012B704702F0AA
:10064000FF0343EA032242EA024200F0B3BA4FF04A
:10065000000200B5134694469646203922BFA0E812
:100660000C50A0E80C50B1F12001BFF4F7AF09071E
:1006700028BFA0E80C5048BF0CC05DF804EB89000F
:1006800028BF40F8042B08BF704748BF20F8022B52
:1006900011F0804F18BF00F8012B7047704770476A
:1006A0007047704710B500F0A9FA006810BD10B58A
:1006B000044600F0A3FA046010BD2DE9F0470D4692
:1006C00099469246044600F124080168880604D53C
:1006D000E06921F01001216000E00120A84201DD65
:1006E000471B00E00027A1697A1902EB0900081AEC
:1006F000A0612078C00602D42046FFF7D5FD002671
:1007000008E0D4E901211AF806009047206A401C4D
:10071000761C20624E45F4DB2078C0060AD52046C0
:10072000FFF7C2FD06E0D4E9012130209047206A9E
:10073000401C2062381EA7F10107F4DC07E0D4E971
:10074000012118F805009047206A401C2062281EED
:10075000A5F10105F3DC2046FFF7BCFD207800067B
:1007600002D50220BDE8F0870120FBE770472DE9A4
:10077000FF4F0C461E464FF0FF378BB0D2E9000109
:10078000DDF860800A908A46C1F30A5505B93D46F6
:10079000002108464FF00000BAF1000F00F44000BD
:1007A00005DA00EB80004FF4400101EA50004FEA07
:1007B0009059B9F1010F00DDB9460A9850EA4A0094
:1007C0000ED044F61050A5F2FF3545432F14B8F172
:1007D000000F1ED07542291E1EDDC9F100021CE06B
:1007E000B8F1010F4FF0000001D0302103E0F243D7
:1007F00005E02154401CB042FBDB304600220021C2
:1008000021540B99C1F80880C1E900200FB0BDE860
:10081000F08FBD1B6D1CDEE74A4600DA694206A870
:1008200000F08EFA06AB93E8070003AB83E80700FD
:1008300050460A9900F06CFB8DE80700A0F50050C7
:100840001F3800900398002D0ADD42F21F014A462E
:100850000844002303A90390684600F0D5FD09E091
:10086000A0F500504A461F38002303A903906846AC
:1008700000F0DFFD8DE807000004000C03D04FF00E
:10088000FF30410800E01046B8F1000F03D000220D
:10089000009215461EE0751E05D400F0B3F9303203
:1008A00062556D1EF9D5B3460122084302D00022DD
:1008B0007F1C04E02078302801D100227F1E002A0E
:1008C000099784D01DE0112D07DA00F09BF9303232
:1008D00062556D1C50EA0102F5D1084302D0009820
:1008E000C8B10EE00021681E05E0235C625C635421
:1008F0002254401E491C8142F7DBAB46A81B401E18
:100900000990002004F80B000B98099AC0F80880A1
:10091000C0E9002B7AE711264FF0000857E72DE9D0
:10092000F04F88460446D21D22F0070191B0D1E96C
:100930000001CDE90A0103F0F5FE02460B98C00F55
:1009400001D02D2007E02068810701D52B2002E08F
:10095000202101EAC000032A099001D0072A05DB03
:1009600003464146204600F0ABF90BE120788006B3
:1009700001D5E06900E00620B8F1650F814606D098
:10098000B8F1660F18D0B8F1670F70D131E00020D0
:10099000B9F1110F009001DB112301E009F101030E
:1009A0000AAA01A90CA8FFF7E2FEDDE90C700026F7
:1009B00009F10105834647E001204B4600904FF0C6
:1009C00000470AAA01A90CA8FFF7D1FEDDE90DB086
:1009D0000C995D46002610B909F101000D18B9EB1C
:1009E000050003D4C0F1FF3609F10105A5EB0900AC
:1009F0002BE0B9F1010F01DA4FF001090020B9F144
:100A0000110F0090484601DD112300E003460AAAB9
:100A100001A90CA8FFF7ABFEDDE90C704D460026DE
:100A20008346207800070AD4AB4500DA5D4601A86A
:100A3000012D04DD411911F8011C302907D04F4563
:100A400002DA17F1040F04DA012082460FE06D1E6E
:100A5000EEE7002F02DCED1B3E4403E0781CA842C9
:100A600000DD7D1CB81B00F1010A4FF00047207823
:100A7000000703D4AA4501DB4FF0FF3A0021B7F18C
:100A8000004F0DF143088DF8431024D002202B2392
:100A9000002F01DA7F422D230A21021EA0F101005E
:100AA00000DC5FB197FBF1FC97FBF1F201FB1C7CD2
:100AB00017460CF1300C08F801CDEEE7A8F1010063
:100AC00003702188090501D5452100E06521A0F1C9
:100AD000010800F8011C09980FA9A1EB0807FF1DE8
:100AE00000B10120411901EBEA70A1693844081AEC
:100AF000401EA0612078C00602D42046FFF7D4FB38
:100B0000099828B1D4E901219047206A401C20624D
:100B10002078C00622D52046FFF7C6FB1EE0002E37
:100B200004DBB34502DD01A8805D00E03020D4E99C
:100B300001219047206A401C2062761CAAF1010026
:100B40005FEA000A0AD100F055F8C0680168405C0D
:100B5000D4E901219047206A401C2062281EA5F19B
:100B60000105DCDC07E0D4E9012118F8010B90470E
:100B7000206A401C2062381EA7F10107F3DC2046E2
:100B8000FFF7A8FB032011B041E60000074B70B54A
:100B90000D467B4400F081F80446284600F042F9F7
:100BA00010B14FF0FF3070BD204670BDC73D000052
:100BB0004FF000020429C0F0128010F0030C3FF443
:100BC00048ADCCF1040CBCF1020F18BF00F8012BAA
:100BD000A8BF20F8022BA1EB0C01FFF73ABD5FEA9A
:100BE000C17C24BF00F8012B00F8012B48BF00F89E
:100BF000012B704700487047381B002000487047A1
:100C0000181B002030B5B0F10A024FEA900E71F1C6
:100C100000034EEA817EB0EB0E0061EB91014FEADA
:100C2000101E4EEA017E10EB0E0041EB11114FEA4F
:100C3000102E4EEA016E10EB0E0041EB11214FEA2F
:100C4000104E4EEA014E10EB0E0041EB11414018E0
:100C500041F100014FEAD00040EA41704FEAD10172
:100C600010EB80054FEA810444EA907444EB0104E0
:100C70006D1944EB0404521BA3414FF0000348BF1D
:100C80000A3200D530BD401C41F1000130BD0000EA
:100C900001694A1C02610878704700B58FB0CDE940
:100CA00001310021059105497944CDE90310114630
:100CB0006846FFF789FB0FB000BD0000E5FFFFFFAE
:100CC0002DE9F0411F46044603260168072A01F476
:100CD000006004DB08B116A505E016A503E008B125
:100CE00015A500E015A521F010002060A069C01E28
:100CF000A0610FB1401EA0612046FFF7D5FA4FB1A9
:100D0000D4E9012138469047206A401C2062C01C6B
:100D1000206206E0206AFAE7D4E9012115F8010B08
:100D20009047761EF8D22046FFF7D4FABDE8F0814E
:100D30004E414E006E616E00494E4600696E66007F
:100D40002DE9F047814616468AB0354878440DC8EB
:100D50008DE80D0032487844801C03AC0DC884E84F
:100D60000D0041F69B300844372190FBF1F290FBD7
:100D7000F1F5A5F1800501FB12041B3C02D564428C
:100D8000012000E00020DFF898A080460027FA4408
:100D9000AAF1BE0A0EE0E0070AD03246684607EB29
:100DA000470101230AEB810100F043FB8DE80700B6
:100DB00064107F1C002CEED1194F7F44AE3F19E028
:100DC000E80715D007EB04100DF1180A90E80E00A3
:100DD0008AE80E00C068F04201D1981908903246A6
:100DE000012306A903A800F024FB03AB83E8070056
:100DF0006D10641C002DE3D14FF0010332466946AB
:100E0000B8F1000F03A802D000F0FEFA01E000F0F4
:100E100010FBC9E90001C9F808200AB0BDE8F08755
:100E20009C670000007B00F080007047004870471E
:100E3000181B00207546FFF7F9FFAE46050069460E
:100E4000534620F00700854618B020B5FFF70CFA8E
:100E5000BDE820404FF000064FF000074FF00008BB
:100E60004FF0000B21F00701AC46ACE8C009ACE83C
:100E7000C009ACE8C009ACE8C0098D46704710B5A0
:100E80000446AFF300802046BDE81040FFF78BB961
:100E90004FF0013C50F8042B51F8043B9A4221D109
:100EA000A2EB0C03934313EACC1317D150F8042B95
:100EB00051F8043B9A4215D1A2EB0C03934313EA79
:100EC000CC130BD150F8042B51F8043B9A4209D1B2
:100ED000A2EB0C03934313EACC13DBD04FF00000DA
:100EE000704700BFD01A01BAB1FA81F101F01801C0
:100EF00022FA01F0CB40C1F12001DBB2C0B2C01A2E
:100F00002CFA01F3D11A914311EAC311E6D17047CB
:100F10005FEA400C08BF91F0000F4FEA8C234FEAC4
:100F2000C12243EA51514FEA1C5018BF00F5F0406E
:100F30004FEA300018BF41F000415FEA6C5C00F0FE
:100F40002980BCF1FF3F08BF40F080407047130C80
:100F500006BF12044FF0100C4FF0000C130E04BF2C
:100F600012020CF1080C130F04BF12010CF1040C57
:100F7000930F04BF92000CF1020CD30F04BF520078
:100F80000CF1010C11464FF00002A0F11F00A0EB84
:100F90000C00704711F0004F08BF704731F000415E
:100FA0003FF4D5AF0B0C06BF09044FF0100C4FF007
:100FB000000C0B0E04BF09020CF1080C0B0F04BF50
:100FC00009010CF1040C8B0F04BF89000CF1020C19
:100FD000CB0F04BF49000CF1010CCCF12003A0EBB6
:100FE0000C0022FA03F302FA0CF241EA030100F1C9
:100FF0000100704720F07F4C80EA030023F07F4718
:10100000ACEB070303F57C5300F0004003F1FF0352
:101010002DE980494FEA154B09B44FEA144325EAFC
:101020000B4E24EA03480FF2042606EB1327490867
:101030003E785FEA320203FB0667C7F5000707FB4D
:1010400006F64FEA54374FEAD64606F1020607FB8A
:10105000066CCCF1005C4FEA1C472CEA074C07FBFE
:1010600006F40CFB06F504EB15464FEA961634BF62
:1010700000204FF000404FEAD13706FB07FC4FEA53
:101080001C4C0CFB0BF7D21B03FB0CF761EB0701AD
:101090000CFB0EF7B0EB074072EB17420CFB08F7A6
:1010A00034BFA2EB0742B2EB074261EB17414FEAB4
:1010B0000C444FEA910706FB07FC4FEA1C4C0CFB63
:1010C0000BF7B0EBC74072EB573203FB0CF734BFA2
:1010D000A2EBC742B2EBC74261EB57310CFB0EF7F4
:1010E000B0EBC70072EB57720CFB08F734BFA2EBF2
:1010F000C702B2EBC70261EB5771039F4FEA8161F0
:1011000041EA921104EBCC044FEAD1374FEA8262F4
:1011100006FB07FC42EA90124FEA80604FEA1C4C43
:101120000CFB0BF7D21B03FB0CF761EB07010CFB6D
:101130000EF7B0EB074072EB17420CFB08F734BF19
:10114000A2EB0742B2EB074261EB17414FEA8C5525
:101150004FEA910704EB9C2406FB07FC4FEA1C4C6A
:101160000CFB0BF7B0EBC74072EB573203FB0CF7ED
:1011700034BFA2EBC742B2EBC74261EB57310CFB65
:101180000EF7B0EBC70072EB57720CFB08F734BFD9
:10119000A2EBC702B2EBC70261EB577115EB4C250E
:1011A0004FEA816141EA92114FEA82624FEAD137F8
:1011B00042EA901206FB07FC44F100044FEA80600B
:1011C0004FEA1C4C0CFB0BF7D21B03FB0CF761EB3B
:1011D00007010CFB0EF7B0EB074072EB17420CFB5C
:1011E00008F734BFA2EB0742B2EB074261EB1741AD
:1011F00015EB1C154FEA813141EA92414FEA8232E8
:1012000042EA90424FEA80304FEA0C7644F1000403
:1012100048EA03434EEA0B484FF0000EB2EB080CCD
:1012200071EB030724BF624639464EEB0E0E4FF0BA
:10123000000B0018524149414BEB0B0BB2EB080C71
:1012400071EB03077BF1000B24BF624639464EEB7E
:101250000E0E4FF0000B0018524149414BEB0B0BA7
:10126000B2EB080C71EB03077BF1000B24BF624665
:1012700039464EEB0E0E51EA020718BF46F0010642
:1012800016EB0E7655F1000254F1000103D5BDE8CE
:101290008901BDE80088BDE88901BDE80048B619AC
:1012A000524141EB0101A3F10103704780807F7E31
:1012B0007D7C7B7A797877767675747372717170CC
:1012C0006F6E6E6D6C6C6B6A6A696868676666657E
:1012D0006464636362616160605F5F5E5E5D5D5C0C
:1012E0005C5B5B5A5A59595858575756565555557D
:1012F0005454535352525251515050504F4F4F4EDD
:101300004E4D4D4D4C4C4C4B4B4B4A4A4A4949492A
:10131000484848474747474646464545454444446C
:10132000444343434342424242414141002B9C4695
:1013300030D477002BD01CB54FEA370703B44FF0F9
:1013400010004FF01001BAF1000F06D0BCF1000FF1
:10135000DCBF40F0080040F008014FF000000FBC77
:10136000BDE810400BF1010BBBF1010F08BF5FEAB4
:10137000170722BF12F1010211F101014FF00041E4
:1013800043F1000300F0004043EA00007047F9D346
:101390005708D0E746EA064613F1400F4FEA1646D3
:1013A0001FDD13F1200FDFBF16430A460021203353
:1013B0005B42BED0C3F1200746EA064602FA07F7B1
:1013C0004FEA164646EA0706C3F1200722FA03F25F
:1013D00001FA07F721FA03F14FF0000342EA07028E
:1013E000A7E746EA020646EA06464FEA164646EAF6
:1013F0000106BCBF46EA0646360C4FF000034FF02C
:1014000000024FF0000194E72DE9804C9A46934684
:1014100070B491E8380007C831EA400C48BF34EA9C
:10142000430C03D5FFF7E6FDFFF780FFF0BCBDE8F6
:10143000008C2DE9804C9A46934670B491E83800B0
:1014400007C810F0804F08BF13F0804F03D100F0A1
:1014500005F8FFF76BFFF0BCBDE8008C20F07F477C
:1014600080EA030023F07F4C07EB0C03A3F57C53C9
:1014700000F00040A3F1FE0392F0000F00F0B380F3
:1014800095F0000F00F077802DE901494FEA1140F7
:101490004FEA144621EA004800FB06FC24EA06470E
:1014A00008FB06F607FB08F800FB07F718EB0648F1
:1014B0004CEB164C4FEA124B18EB07484FEA154617
:1014C0004CEB174022EA0B4E0BFB06FC25EA0647C5
:1014D0000EFB06F607FB0EFE0BFB07F71EEB064E98
:1014E0004CEB164C4FF000061EEB074E4CEB174B27
:1014F00018EB0B0840F1000018EB0E0B58EB00083E
:1015000040F100008F1A4FF000013CBFC943661B39
:1015100014BFB5EB040C00213CBFC943F61B4FEAD6
:1015200017444EEA8E0E27EA04454FEA1C4704FB97
:1015300007622CEA074C05FB07F70CFB05F604FBDA
:101540000CFC16EB074642EB174216EB0C4642EB3F
:101550001C421BEB060658EB0202414146EA9E067E
:1015600001D5BDE80189B619524141EB0101A3F152
:101570000103BDE801894FEA14454FEA114724EA07
:10158000054621EA074C05FB07F406FB07F70CFBB1
:1015900006F105FB0CFC11EB074144EB17444FEA45
:1015A000124711EB0C4144EB1C4422EA074C05FBAB
:1015B00007F206FB07F70CFB06F605FB0CFC16EB27
:1015C000074642EB174216EB0C4642EB1C456A18E5
:1015D00054F1000148BF7047B619524141EB010177
:1015E000A3F10103704795F0000F37D04FEA114285
:1015F0004FEA144721EA024624EA074C02FB07F1AE
:1016000006FB07F70CFB06F402FB0CFC14EB07448B
:1016100041EB17414FEA154714EB0C4441EB1C41D9
:1016200025EA074C02FB07F506FB07F70CFB06F65D
:1016300002FB0CFC16EB074645EB174516EB0C4678
:1016400045EB1C42121951F1000148BF7047B61911
:10165000524141EB0101A3F1010370474FEA1445E8
:101660004FEA114724EA054621EA074C05FB07F13A
:1016700006FB07F70CFB06F24FF0000605FB0CFC1F
:1016800012EB074241EB174112EB0C4251EB1C41AC
:1016900048BF7047921841EB0101A3F10103704765
:1016A00010B50022C0B01146052003F079FB3D4C77
:1016B0006060002003F0F1FAA060002003F0EDFA72
:1016C000E06024216846FEF7C2FF242236496846BE
:1016D000FEF783FF6A460021344803F0D9FB2061FE
:1016E000242109A8FEF7B3FF2F492422243109A899
:1016F000FEF773FF09AA00212D4803F0C9FB6061C2
:10170000242112A8FEF7A3FF27492422483112A85A
:10171000FEF763FF12AA0021264803F0B9FBA0617F
:1017200024211BA8FEF793FF1F4924226C311BA81C
:10173000FEF753FF1BAA00211F4803F0A9FBE0613D
:10174000242124A8FEF783FF17492422903124A8DE
:10175000FEF743FF24AA0021184803F099FB6062BA
:1017600024212DA8FEF773FF0F492422B4312DA8A0
:10177000FEF733FF2DAA0021114803F089FB2062F8
:10178000242136A8FEF763FF07492422D83136A862
:10179000FEF723FF36AA00210A4803F079FBA06276
:1017A00040B010BDB0000020F872000815230008FA
:1017B00099240008FD220008F1430008892100084F
:1017C00029210008DD17000803484068002801D0DF
:1017D00003F032BB70470000B00000201FB50025A9
:1017E0004FF47A7603F0FBF9411BB14227D305464B
:1017F000002004F013F8154C0090606A04F00EF815
:101800008346206A04F00AF88246E06904F006F88C
:101810008146A06904F002F88046606903F0FEFF8B
:101820000746206903F0FAFF009CCDE9009ACDE954
:1018300002B4014643463A460548FEF729FD0548ED
:1018400001F0D3FD642003F0BDF9CBE7B000002028
:10185000387900085C01002010B5B0F5000F77DB87
:101860003C490446884202DA05F060FB044600F079
:10187000ACF801006CD02046012909D9364A9442BF
:1018800006DD084605F03EFB0146204605F024FA39
:101890003249884201DB642010BD3149884201DBB6
:1018A0005F2010BD2F49884201DB5A2010BD2E4910
:1018B000884201DB582010BD2C49884201DB5720AB
:1018C00010BD2B49884201DB562010BD29498842B2
:1018D00001DB542010BD2849884201DB532010BD94
:1018E0002649884201DB522010BD2549884201DB90
:1018F000512010BD2349884201DB502010BD2249F0
:10190000884201DB4F2010BD2049884201DB4E2078
:1019100010BD1F49884201DB4D2010BD1D49884282
:1019200001DB282010BD1C49884201DB1E2010BDB0
:101930001A49884201DB142010BD1949884202DB94
:101940000A2010BD04E01749884201DB0520F8E7B2
:101950000020F6E700007A440080BB4500B08145D6
:101960000020804500207D4500007A4500E0764556
:1019700000C0734500A0704500806D4500606A4559
:1019800000406745002064450000614500E05D457A
:1019900000C05A4500A057450080544500404E45C0
:1019A0000000484500C0414508B500208DF8000002
:1019B000694602F069FF08B1012008BD9DF80020CA
:1019C0000021082000F092FB08BD0020014644F6EB
:1019D000736222FA01F3DB0701D0401CC0B2491C3C
:1019E000C9B20F29F5D3704770B5364D4FF48074E6
:1019F00086B000222146284601F044F9022001F079
:101A00003FF801222146284601F03CF9022001F06E
:101A100037F80A2001F034F8082000F02DFB10B14F
:101A2000012006B070BD284E0024B51C6946502028
:101A300002F02AFF0028F3D101A9592002F024FF67
:101A40000028EDD102A9512002F01EFF0028E7D1A5
:101A50009DF800009DF80410C0F34110C00040EA5A
:101A6000511000F26D1030809DF80800694640B2B8
:101A700028808DF800408DF80440042002F004FF17
:101A80000028CDD101A9052002F0FEFE0028C7D113
:101A90009DF8000040F018019DF804008DF800103A
:101AA00040F040008DF80400042002F0F2FE00280F
:101AB000B6D19DF80410052002F0EBFE0028AFD14E
:101AC000AFE7000000080140AA00002038B504007C
:101AD00007D00020ADF800006946322002F0B4FEC5
:101AE00008B1012038BDBDF80000064D00B205F078
:101AF000F1F9294605F01AFA034905F0EDF82060DE
:101B0000002038BD86990D376F12833B20B1024605
:101B10000021082000F0BEBA0120704738B504004B
:101B200007D00020ADF8000069462C2002F08CFEA2
:101B300008B1012038BDBDF80000C0F30D00ADF8BC
:101B4000000002F061FE206002F024FE2060002010
:101B500038BD00002DE9F843050014D00024DFF85B
:101B6000589044F6736627464FF00C0826FA04F0A6
:101B7000C0070BD008EB4400ADF80070C0B2694656
:101B800002F062FE28B10120BDE8F88345F8247018
:101B90000CE0BDF80000C0F30D00ADF8000002F04D
:101BA00033FE494605F098F845F82400641CE4B279
:101BB0000F2CDBD30020E7E700007A4470B5144D0A
:101BC00000204FEA00042870FFF70EFFC0B1114853
:101BD00001F00BFC142000F053FF641CE4B2052C50
:101BE000F2D3287878B10CA0FEF752FBFFF7EDFE98
:101BF000BDE87040014644F673620CA0FEF748BB96
:101C000001202870EFE7BDE8704011A0FEF740BB4F
:101C1000000000205C01002042513736393430206A
:101C2000696E6974204F4B0D0A000000425137362F
:101C30003934302063656C6C5F636F756E743D255D
:101C400075206D61736B3D3078253034580D0A0076
:101C50004251373639343020696E69742046414923
:101C60004C0D0A002DE9F04FB3B0B24801F0BDFBB6
:101C7000B14C207838B101F00BF805466068281A9D
:101C8000B0F5FA7F05D20A2000F0FAFE33B0BDE8C5
:101C9000F08FA948402145601CA8FEF7D8FC002021
:101CA0002F9030908DF8C4001CA8FFF753FF90B31D
:101CB00000272FA8FFF70AFF70B30020099030A873
:101CC000FFF72CFF48B30020089031A8FFF71EFF54
:101CD00050B300208246FFF778FE06464FF000081A
:101CE00027B3A6B1002444F673690DF1700B00BF51
:101CF00029FA04F0C00705D05BF82410404604F030
:101D000083FF8046641CE4B20F2CF1D377B14046C8
:101D1000FFF7A2FD0BE001E002E003E00127C8E7C6
:101D20000120CBE70120CFE70120D3E70020834645
:101D3000309804F03DFF044689462F9804F038FFA0
:101D40000A469DF8C41002AB0691CDF800A083E8C6
:101D50001502DDE90832394678A0FEF799FA3EB15E
:101D6000304605F0CFF80146404604F0B5FF00E0EC
:101D7000002004F01DFF04460F46404604F018FF03
:101D8000CDE9024702460B4659467BA00096FEF776
:101D90007FFA2A9804F00CFF80468946299804F0BF
:101DA00007FF18900F46289804F002FF83460E465E
:101DB000279804F0FDFE04468A46269804F0F8FEB3
:101DC000CDE91201259804F0F3FECDE91001249825
:101DD00004F0EEFECDE90E01239804F0E9FECDE912
:101DE0000C01229804F0E4FECDE90A01219804F0E8
:101DF000DFFECDE90801209804F0DAFECDE9060106
:101E00001F9804F0D5FECDE904011E9804F0D0FE21
:101E1000CDE902011D9804F0CBFECDE900011C982C
:101E200004F0C6FE0B46CDE9144ACDE916B619A951
:101E3000024681E880035B48FEF72AFA3E48816843
:101E4000691AB1F5FA6F71D3856000208DF8300002
:101E50008DF82C008DF824008DF828008DF81C00DA
:101E60000BAA5021082000F015F908B300270CAA8E
:101E70005921082000F00EF9E0B1002609AA5121ED
:101E8000082000F007F9B8B100250AAA04210820AB
:101E900000F000F990B1002407AA0521082000F005
:101EA000F9F868B10020FF2174B19DF828200CE0FA
:101EB0000127DCE70126E1E70125E6E70124EBE75E
:101EC00001209DF81C10EFE7FF22CDE90510CDE9B8
:101ED000032415B19DF8240000E0FF20CDE9006047
:101EE000029516B19DF8303000E0FF2317B19DF840
:101EF0002C1000E0FF213A462B48FEF7C9F99DF867
:101F00001C00C0F3400400F00103C0F380129DF8F0
:101F1000280000F001018DE81E00C0F34003C0F36B
:101F2000C002C0F300112148FEF7B2F9FFF73CFDF3
:101F3000ACE600005C0100200000002042513A564F
:101F40003D257520493D257520543D257520463D8C
:101F50002575207C20493D252E3366412054533180
:101F60003D252E33665620535441543D307825305C
:101F70003258200D0A00000042513A534F433D258C
:101F8000752525207061636B3D252E3366562063D1
:101F9000656C6C733D2575206176673D252E336633
:101FA000560D0A006C750008FC75000804750008E1
:101FB00000B58BB028216846FEF749FB00200121BF
:101FC000CDE90601059000900190029003900490E5
:101FD0000E20CDE908106946034800F03DFB0028BB
:101FE00000D001200BB000BDE00000201CB5CDE901
:101FF00000230B460022114602F050FC1CBD0000DD
:1020000010B58AB004001AD01A4800F028FC022843
:1020100002D003200AB010BD0021164800F094FB46
:1020200078B11C2102A8FEF712FB002000900146A7
:1020300001906B4602AA0F4800F097FB18B10220EE
:10204000E8E70120E6E7049820710598607106989A
:10205000A071049860B1039820600020694623189D
:102060000A5C401CC0B2DA710828F8D30020D1E71E
:102070000298F1E7E000002010B541004FF47A73B8
:102080000222034800F0CEFE002800D0012010BD3F
:10209000080100203EB582B100924FF47A7301240A
:1020A000CDE9014340000A4601462346054800F0B9
:1020B0006FFF002800D001203EBD03A0FEF7E8F826
:1020C000F9E70000080100204253505F4932435FA6
:1020D000526561645F427974653A2064617461207D
:1020E0006973204E554C4C0D0A0000007FB50C461C
:1020F0008DF80C200546012303AA02F015FC8DF88B
:102100000D004FF47A72022103A88DE807006900E0
:1021100001232246034801F069F8002800D001207D
:1021200004B070BD0801002090B03C216846FEF765
:102130008EFA002440F2DC5502F051FD01462246A1
:102140000348FEF7A5F8284602F03CFDF4E700003E
:10215000F0780008FEE770B5002914D0002A12D0EC
:1021600000250EE04C5D60400024060602D583EA9F
:10217000400000E04000641CE4B2C0B2082CF4D37C
:102180006D1C9542EED370BD90B0564FDFF858816C
:10219000DFF858B1DFF858A1DFF8589100260C9607
:1021A0000D960E960F9623E002F019FD01469DF85C
:1021B0003B000DF1140C9DF83E409DF83D309DF81C
:1021C0003C208CE81D009DF837000DF1040C9DF8B3
:1021D0003A409DF839309DF838208CE81D009DF874
:1021E000360000909DF8342043480C9BFEF750F8D1
:1021F0000CA8FFF705FF0028D6D002F0F0FCF96A22
:10220000411AB1F57A7F69D3F8620020411E00902F
:10221000B86802F019FD002444F6736525FA04F04D
:10222000C00705D058F82410009804F0EDFC009089
:10223000641CE4B20F2CF1D398F84800D8F8404061
:102240000590B86802F05DFD38788DF80400401CF8
:1022500038700A23012201A940F22310FFF7C6FEBD
:102260005146009804F062FE10F1FF4F01D30020A8
:1022700002E0584500DD58464FF07C5104F0C4FCA4
:1022800004F008FE85B25146204604F04FFE484552
:1022900001DD484604E04FF04741884200D9084636
:1022A00004F0DCFD0446FFF790FB014603968DF831
:1022B0000C50280A8DF80D008DF80E40200A8DF87C
:1022C0000F00049605988DF810008DF811100A2360
:1022D000062203A940F22130FFF788FE0A2002F00F
:1022E00071FC5CE7B0000020CC1A002000FF7F47A3
:1022F00000007A4400FEFF467C76000802F06FFC86
:1023000001460348FDF7C4FF642002F05BFCF5E7DB
:1023100098790008B0B040211CA8FEF798F900BFDA
:10232000554C4FF0FF352946E06802F08DFC1CA8A3
:10233000FFF710FC2EA8FFF7C9FBE06802F0E1FCF4
:102340002946A06802F080FC4C4D00201CA900BF6B
:1023500051F8202045F82020401CC0B21028F7D3A7
:102360002E9F2F644649686C04F04EFC0646686454
:10237000A06802F0C6FC4348864202DAB7F1804FFB
:1023800001DBFFF721FA304604F012FC80460C46D0
:10239000384604F00DFC06460F462B9804F008FC66
:1023A00081460D4602F01BFCCDE9028401464A46F7
:1023B0002B463548CDE90067FDF76AFF2A9804F0FF
:1023C000F7FB82468B46299804F0F2FB07468946C4
:1023D000289804F0EDFB80461791279804F0E8FB5D
:1023E00005460E46269804F0E3FBCDE91201259838
:1023F00004F0DEFB10900C46249804F0D9FBCDE9E4
:102400000E01239804F0D4FBCDE90C01229804F0CE
:10241000CFFBCDE90A01219804F0CAFBCDE9080100
:10242000209804F0C5FBCDE906011F9804F0C0FB1D
:10243000CDE904011E9804F0BBFBCDE902011D9813
:1024400004F0B6FBCDE900011C9804F0B1FBCDE926
:102450002C0102F0C4FB014614A8119480E860012D
:1024600018A880E8800EDDE92C230848FDF710FF4E
:10247000FA2002F0A7FB53E7B0000020CC1A00209E
:10248000CDCCCC3D00004040E8770008D076000875
:10249000704772B6FEE700004FF00008234C244D51
:1024A0004FF0FF3A56465146606802F04BFC002858
:1024B000F8D1B2463146A06802F0C6FBD5E90F67F5
:1024C000A06802F01EFC1B48864215DB304604F073
:1024D0006FFB0646894602F082FB014632464B46B8
:1024E0001548FDF7D5FE5146A06802F0ADFBC5F8D2
:1024F0004480A06802F005FCB7F1804FD2DB38467B
:1025000004F056FB06460F4602F069FB01463246D0
:102510003B460A48FDF7BCFE5146A06802F094FB1A
:10252000C5F84080A06802F0ECFBBBE7B0000020DB
:10253000CC1A002000004040A07800085078000825
:1025400090F82020012A07D0022A05D0416A41F4E0
:102550008021416201207047CA0704D00268936855
:1025600043F0800393608A0704D50268936843F4BC
:1025700000439360490704D50068816841F4000175
:10258000816000207047F0B590F820500468A4687E
:10259000012D05D0022D03D0416A41F4802157E07E
:1025A00014F0406F01D1E5004FD5C4F3016401255B
:1025B000A5401D608D684FF4C0739DB1CE68354352
:1025C0004E6845EAC605066803EB0417F5514FF45B
:1025D000C275076805EB04150E697E51097D012956
:1025E00005D009E00E88CD6845EA4655EBE701685D
:1025F0004E5946F480764E511179D579567941EA93
:10260000056195792D0445EA062529434FF4C676E0
:10261000056806EB0416A9511178D57841EA0561E1
:10262000957852782D0445EA022211434FF4C4757F
:10263000026805EB04155151006803EB0411425880
:1026400042F0010242500020F0BD416A41F4001105
:1026500041620120F0BD000010B590F82030026802
:10266000012B07D0022B05D0416A41F48021416241
:10267000012010BDD2F8000240F00100C2F80002B3
:10268000087D00F01F0301209840D2F81C328343DC
:10269000C2F81C32CB69B3B9D2F80C328343C2F80A
:1026A0000C328C894B6864F31F434C6902EBC40401
:1026B000C4F840320C890B6864F31F434C6902EB89
:1026C000C404C4F84432CB69012B16D1D2F80C32C1
:1026D0000343C2F80C320C884B6864F31F434C6907
:1026E00002EBC404C4F840320C89CB6864F31F4386
:1026F0004C6902EBC404C4F844328B69002BD2F855
:1027000004320FD053EA0003C2F804320B69002BE5
:10271000D2F8143208D00343C2F81432096A0129EE
:1027200004D008E08343EFE78343F5E7D2F81C12B7
:102730000143C2F81C12D2F8000220F00100C2F8D6
:102740000002002010BD00000246002092F8203058
:10275000012B01D0022B05D1106821B1D0F8100057
:1027600000F003007047C068FAE770B590F82040A9
:10277000012C05D0022C03D0416A41F4802128E0CD
:10278000046809B32469A40720D04FF4D8740568FD
:1027900004EB01142D5915F00405956005682D59B9
:1027A0001AD0ED08556005682C5904F00204D46075
:1027B0004FF4DA74056804EB01142E5906F00F0685
:1027C000082E0CD308250DE0E468DCE7416A41F4EB
:1027D00000114162012070BD6D0D1560E3E72D59B8
:1027E00005F00F05156105682D59C5F3072595619D
:1027F00005682C59240C54614FF4DC72046802EB18
:102800000112A4581C700468A458240A5C7004685F
:10281000A458240C9C700468A258120EDA704FF46D
:10282000DE72046802EB0112A4581C710468A458FB
:10283000240A5C710468A458240C9C710468A25892
:10284000120EDA71006829B1016941F020010161BD
:10285000002070BDC16841F02001C160F8E7014669
:1028600090F82000012801D0022804D109684A68A4
:10287000920701D50420704709688907FBD503201A
:10288000704770B5040003D094F8200010B104E044
:10289000012070BD204600F091F82068016841F0E9
:1028A0000101016000F0F4F90546052604E000F09E
:1028B000EFF9401B0A2811D820684068C007F6D0FD
:1028C0002068016821F00201016000F0E1F905468D
:1028D0000BE000F0DDF9401B0A2806D9606A40F4DD
:1028E0000030606284F82060D2E72068406880078A
:1028F000EFD4207E0128206801683DD021F08001BE
:102900000160607E01282068016838D021F0400114
:102910000160A07E01282068016833D021F02001E9
:102920000160E07E0128206801682ED041F010018E
:102930000160207F01282068016829D021F008016A
:102940000160607F01282068016824D021F0040123
:102950000160D4E902010843D4E904121143084399
:102960006168491E08432168C86100206062012037
:1029700084F82000002070BD41F08001C0E741F0E4
:102980004001C5E741F02001CAE721F01001CFE77F
:1029900041F00801D4E741F00401D9E703460020E3
:1029A00093F82020012A01D0022A05D11A6889064D
:1029B0009268914300D001207047000010B586B0A6
:1029C000002100910191029103910068134988420E
:1029D00022D11348C16941F00071C161C16901F0A0
:1029E00000710491816941F00401816180690D4C9D
:1029F00000F0040004904FF4006000906946204607
:102A000000F050F8A01400900220019003200390E1
:102A10006946204600F046F806B010BD006400404C
:102A2000001002400008014070B5044690F82000F4
:102A3000012804D0606A40F40020606218E002209F
:102A400084F820002068016821F00101016000F095
:102A50001FF905460EE000BF00F01AF9401B0A28D6
:102A600008D9606A40F400306062052084F82000D4
:102A7000012070BD20684068C007EDD1606270BD64
:102A800070B5044600F004F90546601C02D0044805
:102A90000078044400F0FCF8401BA042FAD370BD5B
:102AA000180000202DE9F84FDFF8B8910024A9F1B3
:102AB000040B23460F2709F1040AABF1040EC9E009
:102AC0000125A5402A40AA427DD1674ED1F804C015
:102AD000ACEB0608B44532D014DCBCF1030F3AD09D
:102AE00009DCBCF1000F2AD0BCF1010F1CD0BCF1F5
:102AF000020F31D11DE0BCF1110F17D0BCF1120F44
:102B00002AD119E0B8F5881F19D006DCB8F5803F46
:102B100015D0B8F5801F1FD111E0B8F5001F0ED0F9
:102B2000B8F5041F18D10AE0CB6815E0CB681B1D6F
:102B300012E0CB6808330FE0CB680C330CE08B68F5
:102B40002BB1012B4FF0080303D0456104E00423AF
:102B500002E0056100E00023FF2A01D8064601E0FB
:102B600000F104064FEA840501D9A5F12005D6F845
:102B7000008007FA05FC28EA0C0803FA05F548EA84
:102B80000508C6F800804D68ED0062D5374DAE6986
:102B900046F00106AE61AD6924F0030605F00105BB
:102BA0000095334D06EB050CDCF80850A607360FF0
:102BB00007FA06F825EA0805DFF8B880404503D192
:102BC0004FF0000817E044E0DFF8AC80404502D148
:102BD0004FF001080FE0DFF8A480404502D14FF02C
:102BE000020808E0DFF89880404502D14FF0030862
:102BF00001E04FF0040808FA06F848EA0508CCF8A6
:102C000008804D68D9F80060ED024D4601D51643A5
:102C100000E096432E604D68DAF80060AD0255463C
:102C200001D5164300E096432E604D68DBF8006046
:102C3000AD035D4601D5164300E096432E604D6816
:102C4000DEF80060ED03754601D5164300E09643BB
:102C50002E60641C0D682A46E5407FF431AFBDE864
:102C6000F88F00000804014000001110001002401D
:102C70000000014000080140000C0140001001402C
:102C8000001401400AB1016170470904FBE700002C
:102C900001488068704700001800002070B50400EB
:102CA00025D094F83D00002520B984F83C502046FA
:102CB00000F034FB242084F83D002068016821F0F6
:102CC000010101602068016841F400410160206851
:102CD000016821F40041016000F00EFD4D4A616879
:102CE000914201D84C4900E04C49884201D2012070
:102CF00070BD4B492368B0FBF1F15E6826F03F06DA
:102D00000E435E606368934206D94FF4967359434D
:102D10004FF47A73B1FBF3F12368491C1E6A26F065
:102D20003F06314319626168914210D84900401E44
:102D3000B0FBF1F2521CC2F30B02042A01D20420B0
:102D400022E0B0FBF1F0401CC0F30B001CE0A268D5
:102D5000F2B301EBC10303EB0116431EB3FBF6F321
:102D60005B1C43F480431B0549D092B301EBC102C5
:102D700002EB0111401EB0FBF1F0401CC0F30B0050
:102D800040F4804040F400402168CA694CF6FF736B
:102D90009A431043C861D4E90710014320680268D0
:102DA00022F0C00211430160D4E90301014320680D
:102DB000826848F2FF339A4311438160D4E90501E8
:102DC00008432168CA6822F0FF021043C86001E08E
:102DD0000EE016E02068016841F001010160256401
:102DE000202084F83D00256384F83E50002070BD0B
:102DF00001EB4106431EB3FBF6F35B1CB3E7012076
:102E0000C2E701EB4101401EB0FBF1F0401CC0F3F2
:102E10000B00B7E7A086010080841E0000093D007A
:102E200040420F002DE9FF4F81B089460446FFF76D
:102E30002FFF054694F83D004FF0000820287DD173
:102E40001923012250492046009501F0FBF8002883
:102E500074D194F83C00012870D0012084F83C0023
:102E600020680168C90703D1016841F001010160D0
:102E70002068016821F400610160242084F83D008D
:102E8000002626644148E0624FF0011B202720689D
:102E9000016841F480710160009500225946204686
:102EA000049B01F0CFF850B120680068C00502D53E
:102EB0004FF400702064032005B0BDE8F08F216856
:102EC00009F0FE000861FFF7E3FE21680546486946
:102ED0004969C0F34000C1F380214FF0A00A0FE020
:102EE000FFF7D6FE411B0498814200D808B984F848
:102EF0003DA0216848694969C0F34000C1F38021C1
:102F000094F83D20A02A02D008B90029E8D084F81E
:102F10003D7020684169C943890716D4016841F4AE
:102F200000710160206841698069192301221649F6
:102F30002046009501F086F8B8B900E021E084F859
:102F40003D7084F83C600020B6E7016841F40071F0
:102F5000016021686FF480604861192301220A49E9
:102F60002046009501F06EF808B10120A4E703980F
:102F700008F1010880458AD384F83D7084F83C60EC
:102F8000F3E7022098E70000020010000000FFFFB6
:102F90002DE9FF4F83B00025DDE910799A4693466D
:102FA0000446DDF848800095FFF772FE064694F867
:102FB0003D0020287CD11923012288492046009613
:102FC00001F040F80028F5D194F83C0001286FD0BA
:102FD000012084F83C0020680168C90703D101681A
:102FE00041F0010101602068016821F40061016085
:102FF000222084F83D00402084F83E00256467626A
:10300000A4F82A90608D20857548E062CDE900869D
:1030100053465A462046049900F016FF00287CD1FA
:10302000208DDFF8C091202768B1012814D0022834
:10303000206801681ED041F4806101602068416908
:1030400080690090BCE02068416981690091016855
:1030500041F400710160B3E02068016821F48061EF
:10306000016072B62068416981690091016841F48C
:1030700000710AE041F40061016072B620684169A4
:1030800081690091016821F48061016062B697E076
:10309000032865D801280CD0022843464FF00002CF
:1030A0004946204600960BD000F0CCFFA8BB0CE0B0
:1030B00091E032464146204601F06AF868BB72E072
:1030C00000F0C0FF48BB72B633E02068016821F40D
:1030D0008061016072B620680069616A0870606A88
:1030E000401C6062208D401E2085608D401E6085E2
:1030F0003D4846F2A8110068B0FBF1F0C0EBC000FB
:1031000000EB80000090401E009007D020684069CE
:10311000C04340070DD50098F5E727E044F8305F3D
:103120006773A573206940F02000206162B62573A3
:103130001CE02068016841F40071016020680069AA
:10314000616A0870606A401C6062218D491E218599
:10315000618D491E618562B621680969017026E0AA
:1031600032464146204601F013F818B1012007B05D
:10317000BDE8F08F20680069616A0870606A401CD1
:103180006062208D401E81B22185608D401E608569
:1031900020684269D243520712D4032903D101683F
:1031A00021F48061016020680069616A0870606ACA
:1031B000401C6062208D401E2085608D401E608511
:1031C000208D00287FF464AF84F83D7084F83E5071
:1031D00084F83C50CBE70220C9E700000200100051
:1031E0000000FFFF04000100240000202DE9FF4F34
:1031F00083B09A46DDE9119793460446DDF8408096
:10320000FFF746FD054694F83D0020287FD119239D
:10321000012240492046009500F014FF002876D195
:1032200094F83C00012872D0012084F83C0020680A
:103230000168C90703D1016841F0010101602068FC
:10324000016821F400610160212084F83D004020E4
:1032500084F83E0000262664C4F82480A4F82A904E
:10326000608D20852C48E062CDE9007553465A46B2
:103270002046049900F066FE70B930E02A463946CF
:10328000204600F0BDFF58B1206C042804D120680E
:10329000016841F400710160012007B0BDE8F08FC2
:1032A000606A216800780861606A401C6062218D54
:1032B000491E89B22185628D521E6285226853693A
:1032C000DB435B070BD469B100781061606A401C76
:1032D0006062208D401E2085608D401E6085208D9F
:1032E0000028CBD12A463946204600F07FFE002830
:1032F000CAD154F83D0B016841F4007101602020EF
:1033000004F81E09E67766770020C6E7FFE702208B
:10331000C3E70000020010000000FFFF10B586B0F8
:1033200000210091019102910391006813498842A4
:1033300022D1134CA06940F00800A061A069694641
:1033400000F0080004904FF44070009012200190AB
:10335000032003900B48FFF7A5FB0B48416841F0A1
:10336000E06141F002014160E06940F40010E06179
:10337000E06900F40010049006B010BD0054004055
:1033800000100240000C01400000014070B5040034
:1033900013D021684CF6CC400860216845F25550A6
:1033A0000860D4E9000141602168A0688860FFF7E7
:1033B0006FFC054641F23C360DE0012070BD00BFB8
:1033C000FFF766FC401BB04205D92068C068800743
:1033D00001D0032070BD2068C0688007F0D121684B
:1033E0004AF6AA200860002070BD00684AF6AA21AB
:1033F0000160002070470000024881680278114493
:103400008160704718000020074810B5016841F03E
:1034100010010160032000F0A7F80F2000F006F86B
:1034200000F050F8002010BD0020024030B50546E5
:10343000204887B0C16941F00101C161C06906A996
:1034400000F00100009001A800F036F90498B8B12E
:1034500000F052F9400018494FF08042B0FBF1F102
:103460001648491E0260416040F2E7320021C0E97F
:1034700003218160816100F017FB040003D015E097
:1034800000F03AF9E7E70D4800F03CFB04000DD1ED
:103490001C2000F03BF8102D07D2002229461C20EA
:1034A00000F042F80648056000E0012407B020461D
:1034B00030BD00000010024040420F00B00100206B
:1034C0001C0000200F4808B5816941F001018161AD
:1034D000816901F001010091C16941F08051C16130
:1034E000C069002200F0805000900F21901E00F073
:1034F0001BF80548416821F0E06141F0007141602E
:1035000008BD00000010024000000140002809DB57
:1035100000F01F02012191404009800000F1E020ED
:10352000C0F8001170470000F0B40E4B1B680C4649
:10353000C3F30223C3F10705042D00D90425191D87
:10354000072901D2002300E0DB1E012606FA05F15F
:10355000491E214099409E40761E16403143F0BCE2
:1035600001F0F4B80CED00E0064900F0070208682D
:103570004FF6FF03184040EA0220034A1043086058
:10358000704700000CED00E00000FA052DE9F0475F
:103590000F46050061D0434E306800F00700B84286
:1035A00009D2306820F0070038433060306800F0FE
:1035B0000700B84251D128683B4C810712D540071B
:1035C00003D5606840F4E06060602878000703D5A8
:1035D000606840F4605060606068A96820F0F000A6
:1035E000084360602878C00728D06868012810D098
:1035F0002168022810D0890700292EDA616821F09D
:10360000030101436160FFF743FB804641F28839C3
:103610000DE021688903EFE78901EDE7FFF738FB4B
:10362000A0EB0801494502D90320BDE8F087606896
:10363000696800F00C00B0EB810FEFD1306800F04A
:103640000700B8420BD9306820F0070038433060DB
:10365000306800F00700B84201D00120E5E7287883
:10366000400705D56068E96820F4E06008436060C1
:103670002878000706D56068296920F4605040EA80
:10368000C100606000F058F86168084AC1F3031196
:10369000515CC8400649086006480068FFF7C6FE4E
:1036A0000020C2E70020024000100240DE72000845
:1036B000240000201C0000200F2202600C4A5368E6
:1036C00003F003034360536803F0F003836053681F
:1036D00003F4E063C36052684FF4E06303EAD2028C
:1036E00002610448006800F00700086070470000AD
:1036F0000010024000200240044805490068496863
:10370000044AC1F30221515CC840704724000020E4
:1037100000100240EE72000804480549006849683C
:10372000044AC1F3C221515CC84070472400002004
:1037300000100240EE7200080E4A51680E4801F077
:103740000C03042B11D0082B0FD10C48C1F3834379
:10375000C903C05C0AD55168084AC1F34041921EB2
:10376000515C054A5043B0FBF1F0704704494843AF
:10377000704700000010024000127A00CE7200086C
:1037800000093D002DE9F84F040070D02078C04DAD
:10379000C00749D06868C0F38100012807D0686875
:1037A000C0F38100022809D16868C00306D52868E3
:1037B000800339D560680028E7D035E06068B0F54F
:1037C000803F0BD010B1B0F5A02F11D0286820F4A5
:1037D00080302860286820F4802002E0286840F4C7
:1037E00080302860606890B1FFF752FA06460AE020
:1037F000286840F480202860F0E700BFFFF748FA0F
:10380000801B642873D828688003F7D50CE0FFF785
:103810003FFA064605E000BFFFF73AFA801B64282E
:10382000F0D828688003F7D420789A4E80074FF0AC
:1038300001094FF0000839D5686810F00C0F07D067
:103840006868C0F38100022809D16868C00306D403
:103850002868800714D52069012808D110E0206964
:10386000B0B1C6F80090FFF713FA074605E00AE189
:10387000FFF70EFAC01B0228C4D828688007F7D5C6
:103880002868616920F0F80040EAC10028600DE076
:10389000C6F80080FFF7FCF9074604E0FFF7F8F9E7
:1038A000C01B022823D828688007F7D42078000797
:1038B0002CD57948A169D9B1C0F80090FFF7E8F993
:1038C000074604E0FFF7E4F9C01B02280FD8686A36
:1038D0008007F7D571484FF4FA510068B0FBF1F05A
:1038E000009000BF0098411E0091FAD20EE080E0E7
:1038F000C0F80080FFF7CCF9074604E0FFF7C8F9ED
:10390000C01B022875D8686A8007F7D42078400762
:1039100060D5E8690027C00008D4E86940F080500D
:10392000E861E869012700F0805000905C48016878
:10393000C90513D40168834641F480710160FFF723
:10394000A7F9824606E000BFFFF7A2F9A0EB0A0044
:1039500064284ED8DBF80000C005F5D5E0680128E2
:103960000AD008B1052813D0286A20F00100286287
:10397000286A20F0040002E0286A40F00100286272
:10398000E06841F2883B98B1FFF782F982460BE08C
:10399000286A40F004002862EEE700BFFFF778F9DC
:1039A000A0EB0A0159455AD8286A8007F6D50CE0E1
:1039B000FFF76EF9824605E0FFF76AF9A0EB0A010E
:1039C00059454CD8286A8007F6D41FB1E86920F021
:1039D0008050E861E06988B36968C1F38101022918
:1039E00044D00228C6F8608004D0FFF751F904469D
:1039F00038E034E0FFF74CF9074604E0FFF748F9F8
:103A0000C01B02282BD828688001F7D4206AB0F5A3
:103A1000803F05D16868A16820F4003008436860E1
:103A2000D4E908010843696821F474110843686007
:103A3000C6F86090FFF72CF9044606E025E000BFC9
:103A4000FFF726F9001B022809D828688001F7D55E
:103A50001BE000BFFFF71CF9001B022802D903205E
:103A6000BDE8F88F28688001F4D40EE00128F7D073
:103A70006868226A00F48031914204D1616A00F4DE
:103A80007010884201D00120EAE70020E8E700003A
:103A90000010024000004242800442422400002004
:103AA000007000407047704710B5040003D094F8D0
:103AB0003D0010B107E0012010BD002084F83C005B
:103AC000204600F01EF8022084F83D00211D2068E9
:103AD00000F02EFD012084F8460084F83E0084F8B2
:103AE0003F0084F8400084F8410084F8420084F8E4
:103AF000430084F8440084F8450084F83D00002029
:103B000010BD704790F83D10012901D00120704789
:103B1000022180F83D100168CA6842F00102CA60C3
:103B200000680B49884208D0B0F1804F05D00949A0
:103B3000884202D00849884204D1816801F0070117
:103B4000062903D0016841F001010160002070479F
:103B5000002C0140000400400008004070472DE99F
:103B6000F04104460068C66805694FF00007A907E0
:103B700013D5B10711D5F91E016101202077206806
:103B800080698007204602D0FFF7E8FF04E000F0DC
:103B90007EF8204600F07CF82777680716D5700776
:103BA00014D521686FF00400086102202077206896
:103BB000806910F4407F204602D0FFF7CFFF04E079
:103BC00000F065F8204600F063F82777280715D540
:103BD000300713D521686FF00800086104202077B2
:103BE0002068C0698007204602D0FFF7B7FF04E0D5
:103BF00000F04DF8204600F04BF82777E80616D580
:103C0000F00614D521686FF01000086108202077B5
:103C10002068C06910F4407F204602D0FFF79EFF65
:103C200004E000F034F8204600F032F82777E80787
:103C300008D0F00706D021686FF001000861204627
:103C400000F027F8280608D5300606D521686FF061
:103C5000800008612046FFF725FF680608D570063A
:103C600006D521686FF040000861204600F018F882
:103C7000A8060AD5B00608D521686FF020000861B3
:103C80002046BDE8F041FFF70EBFBDE8F081704768
:103C900070470068B0F1804F01D1FFF7ADBB7047AE
:103CA000704770B5040004D094F84100002510B1AD
:103CB00006E0012070BD84F84050204600F024F852
:103CC000242084F841002068C16821F40051C160BB
:103CD000204600F091FC2068016921F490410161C7
:103CE0002068416921F02A0141612068C16841F4DE
:103CF0000051C1606564202084F8410084F84200CE
:103D00006563002070BD000030B585B000240094CC
:103D100001940294039400681449884224D1144801
:103D2000816941F480418161816901F4804104919C
:103D3000816941F00401816180690E4D00F0040049
:103D400004904FF400700090022001900320039033
:103D500069462846FEF7A6FE2815CDE90004694607
:103D600028460294FEF79EFE05B030BD00380140A3
:103D700000100240000801402DE9F843044690F885
:103D80004100984616460D46202802D00220BDE884
:103D9000F88385B17EB100206064212084F8410061
:103DA000FEF776FFA6848146E684A0682027B0F55A
:103DB000805F02D003E00120E9E7206910B12E46C0
:103DC00000250EE000260CE08021204600F070FC6B
:103DD000A8B9C6B116F8010B21684860E08C401EF6
:103DE000E084E08C4B464FF00002CDF800800028C4
:103DF000EAD14FF04001204600F05AFC40B184F86F
:103E000041700320C3E735F8020BC0F30800E3E775
:103E100084F841700020BAE7FEE701684A69D2439E
:103E200052050FD46FF480624A61002140F8301FC0
:103E3000202242738173026942F00402026101731D
:103E400001207047002070472DE9F84F04460068B4
:103E500089460B9D01689846174641F480610160D0
:103E60002068016841F48071016000954FF0011BEA
:103E70000022594620460A9B00F0E4F84FF4007AED
:103E800040B120680068C00501D5C4F840A00320F7
:103E9000BDE8F88F216809F0FE0008612B4628492B
:103EA00020460A9A00F016F9F0BB20684169806943
:103EB00000902A4620460A9900F0A2F940B1206CF1
:103EC00004283AD12068016841F40071016034E0AF
:103ED000FEB2B8F1010F09D02168380A08612A46FC
:103EE00020460A9900F08CF90028E8D12068066184
:103EF0002A4620460A9900F083F90028DFD120687D
:103F0000016841F480710160009500225946204605
:103F10000A9B00F097F80028B3D1216809F0FF0050
:103F200040F00100086100E007E02B46044920460C
:103F30000A9A00F0CFF80028AAD00120A8E70000D4
:103F4000020001002DE9F843044600680D46DDE952
:103F5000089701689846164641F4807101604B4607
:103F600000224FF001112046009700F06BF848B195
:103F700020680068C00502D54FF40070206403205B
:103F8000BDE8F883216805F0FE0008613B464A461B
:103F90001549204600F09EF888B92068416980697B
:103FA00000903A464946204600F02AF948B1206C74
:103FB000042804D12068016841F4007101600120E7
:103FC000DEE7F5B2B8F1010F09D02168300A0861C7
:103FD0003A464946204600F013F90028E7D1206808
:103FE00005610020CCE700000200010070B5164614
:103FF0000D4604461EE02046FFF70FFF08B10120E2
:1040000070BD681C16D0FEF743FE801BA84200D886
:1040100085B920684069C04340070BD5002044F8AB
:10402000300F20216173A073216941F020012161CB
:104030002073E4E720684069C0434007DBD40020D8
:1040400070BD00002DE9F047984617460D4604461E
:10405000C1F30746DDF820902AE000BFB8F1FF3F2A
:1040600026D0FEF715FEA0EB0901414502D8B8F1B4
:10407000000F1DD12068012E16D0806925EA0000AE
:104080000004000C12D00020B84211D1002044F8E6
:10409000300F20216173A073216941F0200121615B
:1040A00020730120BDE8F0874069E7E70120EBE7D6
:1040B0002068012E0AD0806925EA00000004000C67
:1040C00006D00020B842C9D00020EBE74069F3E7F2
:1040D0000120F7E72DE9F047984616460D460446BD
:1040E0004FF000094FF0200AC1F3074723E0206892
:1040F0004069C043400515D42068016841F400714F
:10410000016021686FF480604861C4F8309084F8E1
:104110003DA084F83E90216C41F00401216484F8B4
:104120003C9021E0701C06D0FEF7B2FDA0EB080029
:10413000B04203D816B1012F1FD021E02068012F13
:1041400015D0806925EA00000004000C18D000BFDB
:1041500044F8309F84F80DA084F80E90216941F056
:104160002001216184F80C900120BDE8F0874069AE
:1041700025EA00000004000CEAD12068406901E053
:104180002068806925EA00000004000CAFD1ECE74C
:104190002DE9F041002590460E460446202728E0F0
:1041A0004069C043C0060CD454F8301B6FF01000B7
:1041B000486144F810596777A577206A206225770F
:1041C00014E0FEF765FDA0EB0800B04200D886B908
:1041D00020684069C04340060BD544F8305F6773E0
:1041E000A573206940F02000206125730120BDE8FF
:1041F000F08120684169C9434906D1D40020F6E71F
:1042000070B516460D4604461EE02046FFF705FE33
:1042100008B1012070BD681C16D0FEF739FD801B67
:10422000A84200D885B920684069C04300060BD574
:10423000002044F8300F20216173A073216941F000
:10424000200121612073E4E720684069C043000633
:10425000DBD4002070BD0000154810B51349016083
:104260000921416000214FF480228160C0E90312DE
:10427000920042610176012242768176C276017710
:104280004177FEF7FEFA08B1FEF703F9FDF790FE5D
:1042900008B1FEF7FEF80648FEF7C6FB002803D07B
:1042A000BDE81040FEF7F5B810BD00000064004006
:1042B000E000002010B5054A0021054800F0E8FDA7
:1042C00004490860BDE81040FDF7EAB9A87200088B
:1042D0009D4400080C00002070B586B000241848EA
:1042E0000094019402940394816941F0200181615A
:1042F000816901F020010491816941F0040181612B
:10430000816901F004010491816941F00801816132
:1043100080690C4E00F008004FF401450490002223
:1043200029463046FEF7AEFC01200095CDE9010498
:104330000220039069463046FEF7B4FB06B070BD1C
:1043400000100240000801400D4810B50B49016003
:104350000C49416000214FF480428160C0E90312A2
:1043600041618161C1610162FEF798FC002803D0C0
:10437000BDE81040FEF78DB810BD000000540040AD
:1043800008010020A0860100094810B50749016016
:104390000021416040F6FF718160FEF7F7FF0028C1
:1043A00003D0BDE81040FEF774B810BD00300040E7
:1043B0005C0100200C4810B50A4901604FF4E1315E
:1043C0004160002181600C22C160C0E9041281615A
:1043D000C161FFF766FC002803D0BDE81040FEF77E
:1043E00058B810BD0038014068010020FEE7FEE724
:1043F0004FF0FF38194C1A4D47464146A06800F06F
:1044000023FCE86B02F046FDC6B2A06800F079FC20
:10441000304602F077FDFDF71FFA02F073FD064605
:104420003946A06800F010FC304602F033FD85F8F4
:104430004800A06800F065FC304602F0B9FB064673
:104440000F4600F0CCFB014632463B4605A0FBF789
:104450001FFFFA2000F0B6FBCEE70000B0000020FE
:10446000CC1A00205B534F43E4BBBBE58AA15D201F
:10447000E8BF90E8A18CE4B8AD2E2E2E20546963DD
:104480006B3A202575207C20E8AEA1E7AE97534F0C
:10449000433A2025642525200D0A0000012000F064
:1044A00091FBFBE710B54FF0E020006902F06AF9DC
:1044B000012803D0BDE8104001F086BC10BD30B526
:1044C0008FB028216846FCF7C2F814210AA8FCF72F
:1044D000BEF80920012100904FF48030002404919F
:1044E0000691CDE901040225CDE907504FF4E01013
:1044F00009906846FFF746F908B172B6FEE70F204B
:10450000CDE90A054FF48060CDE90C4002210AA8EC
:104510000E94FFF73BF8002801D072B6FEE70FB00B
:1045200030BD70470148FFF71ABB0000B001002002
:10453000F0B50268194B1A4C1A4D4FF0804798425B
:1045400005D0B84203D0A04201D0A84203D122F046
:1045500070064A683243984205D0B84203D0A04260
:1045600001D0A84203D122F44074CA6822434C69A6
:1045700022F08002224302608A68C2620A68826274
:10458000984201D109690163012141610169C907AB
:1045900003D0016921F001010161F0BD002C01404F
:1045A000000400400008004001680C3151E8002F71
:1045B00022F4907241E80023002BF5D101681431F8
:1045C00051E8002F22F0010241E80023002BF5D131
:1045D000016B012909D101680C3151E8002F22F04B
:1045E000100241E80023002BF5D1202180F8421071
:1045F000002101637047000070B50446006801693E
:10460000E26821F44051114301612169A068084327
:10461000616908432168CA6841F20C639A43024306
:10462000CA6020684169A26921F440711143416167
:104630001E492068884202D1FFF76EF801E0FFF7BB
:104640005BF800EBC00101EB0012606864218000A0
:10465000B2FBF0F3B3FBF1F36FF018067343B2FB58
:10466000F0F5B2FBF0F605EB8305322303EB0515FD
:10467000B5FBF1F5B6FBF1F605F0F00505EB061517
:10468000B2FBF0F6B2FBF0F0B0FBF1F06FF0180205
:10469000504306EB800003EB0010B0FBF1F0216803
:1046A00000F00F002844886070BD00000038014011
:1046B0002DE9F843984617460D460446089E24E027
:1046C000701C22D0FEF7E4FAA0EB0800B0421AD822
:1046D000CEB12068C168490717D5802D15D0402D6F
:1046E00013D00168C94309070FD401680025406849
:1046F00000902046FFF758FF0820606484F840507F
:104700000120BDE8F8830320FBE72068006835EA54
:10471000000004D00020B842D2D00020F1E70120F0
:10472000F9E7FEE7490050EAC12018BF04204A0D0E
:1047300018BF40F0010040F2FF72B2EB515F08BFBA
:1047400040F00200012808BF052070470907090E44
:10475000002804DB00F1E02080F80014704700F02E
:104760000F0000F1E02080F8141D704700214FF089
:104770007E5002F0B1BA012102F057BD0021084677
:1047800002F0AABA30380A2801D20120704700206E
:10479000704770472DE9F0411649154E164F0446F3
:1047A000884201DB154C03E014F1FF4F00D30024D5
:1047B000204602F087FC05463146204602F0B6FB53
:1047C000294602F089FA314602F086FA00F0D8F85C
:1047D000394602F081FA0A4902F016FA01464FF012
:1047E0007E5002F079FABDE8F041064902F074BC4F
:1047F00000401C4600404E4500E0764500304E45E6
:104800000FCF5B3B3393884370B50D4D06466888E8
:1048100002F078FB0446304602F074FB214602F0B9
:1048200085FB0646B5F9040002F054FB0446054931
:10483000304602F051FA2146BDE8704002F0E4B97A
:10484000A800002000007A447CB505464FF0000027
:104850000C008DF800008DF804000AD06946284647
:1048600000F012F828B96D1CE8B201A900F00CF8AC
:1048700008B101207CBD9DF804009DF8001040EABD
:104880000120208000207CBD0A4601460820FDF75B
:1048900001BC0A4601460820FDF728BC2DE9F0437B
:1048A00087B09946DDE90E6817460C460546082E86
:1048B0001CD81C48FDF7D3FF022803D0032007B003
:1048C000BDE8F08318216846FBF7C1FECDE9024739
:1048D00004966CB125F0604001900020069006AB74
:1048E0004A4669460F48FDF74EFE28B10120E6E72B
:1048F000C5F30A000090F0E7FEF7CAF904460AE0A3
:10490000FEF7C6F9011B414505D306480699FDF798
:1049100017FE0220D3E703480699FEF73FF8002868
:10492000EED1CCE7E00000203FB5014681B0490060
:104930001D4614468DF80010002007230122694609
:10494000FDF709FC0723012202A9FDF704FC072358
:104950002A462146FDF7FFFB05B030BD13B50648DA
:10496000007830B14FF4FA73012269460348FFF72B
:1049700003FA00981CBD0000100000206801002010
:104980002DE9F0410026A0F50001B1F1FE4F7DD2E6
:1049900000F500226FF07E0101EBE251C2F30254F8
:1049A00077184FF07E52A0EBC15602EB045557EA40
:1049B000040047D02946304602F026F980462946B1
:1049C000304602F089FB414602F086F90546014671
:1049D00002F0ACFA8046454902F0A8FA444902F0D8
:1049E00013F906464146284602F0A0FA314602F085
:1049F0009DFA0646384602F06DFA07463D4902F038
:104A000095FA3D49794451F8241002F0FDF83146F9
:104A100002F0FAF806460121284602F006FC31466B
:104A200002F0F2F805463846344902F07FFA34497C
:104A3000794451F8241002F0E7F82946BDE8F04126
:104A400002F0E2B84FF07E51304602F045FB0546D9
:104A50002C4902F06BFA2C4902F0D6F8294602F0F4
:104A600065FA2A4902F0D0F8294602F05FFA6FF0A1
:104A7000824102F0C9F804462946084602F056FA77
:104A8000214602F053FA0146284600E003E0BDE863
:104A9000F04102F0B9B84FF07F42B2EB400F03D2C1
:104AA000BDE8F041FFF767BEB0F1FF4F08BFBDE8BA
:104AB000F081B0F1004F06D90120FBF7F8FDBDE809
:104AC000F041FFF75BBE30F0004105D06FF01606F5
:104AD000172102F0AAFB5BE70220FBF7E8FDFFF7D6
:104AE00045FE80F00040BDE8F081000066F1CC3E5C
:104AF000AAAA2A3FF4FD0538482A00000070313F79
:104B0000FC29000021ED423E0A1180BEC1ABAA3E45
:104B100008B5FEF779FCFFF7D2FCFFF7DDFBFFF7E6
:104B20009BFBFFF711FCFFF72FFCFFF743FC16A0E0
:104B3000FBF7AEFBFDF742F8002440F2231515A069
:104B40000A23006800908DF8004003226946284639
:104B5000FDF74CFA014622460FA0FBF799FB1848D7
:104B6000FEF743FC6420FDF78BFF641CE4B20A2CC3
:104B7000E5D300F03BF8FFF79DFB00F049F800BFDC
:104B8000FDF770F8FCE7000053746172742E2E2E4E
:104B90000D0A000000AA550043414E5F545820738F
:104BA00074643D307831323320646C633D3320725D
:104BB00065743D257520636E743D25750D0A0000F2
:104BC0005C01002010B5EFF3058111B16FF0050411
:104BD00003E0002408B100F075FF204610BDEFF39C
:104BE000058008B101F0E2BD01F0DABDEFF3058008
:104BF00010B16FF0050070470448016811B14FF023
:104C0000FF307047012101600020704778000020CC
:104C100010B5EFF3058010B16FF0050010BD084826
:104C20000168012902D04FF0FF3010BD054A002174
:104C300082F8141D0221016000F0F4FF002010BD75
:104C4000780000200BE000E02DE9F0410D46014620
:104C500021F0010001F001014FF00004EFF30582A3
:104C60000AB1A41F16E048B100296FF001066FF0E9
:104C70000207294608D001F0CDFC07E06FF00304DD
:104C800008E035B1344605E001F008FC0128F8D110
:104C900000E03C462046BDE8F08170B505464FF087
:104CA0000004EFF3058050BB0DB1686800E0002000
:104CB000C10701D0012600E0002600071FD46DB116
:104CC000D5E9021021B1502819D31EB1042002E009
:104CD00020B114E0012001F0D5F805E00EB1042068
:104CE00000E0012001F0C3F8040008D00DB12968EC
:104CF00000E0002100F084FE0EB144F001042046E3
:104D000070BD70B5014621F0010001F001014FF0C6
:104D10000004EFF305820AB1A41F11E028B16FF07F
:104D2000020529B101F0B1FA07E06FF0030407E0D2
:104D300000231A46194601F04BF9012800D02C46F1
:104D4000204670BDF8B50D460024211F4E1C0028DA
:104D500004D000BFEFF30582A2B10DB10C461BE0F9
:104D600000216A46009101F04BFB012813D1009805
:104D700090B10A494FF080500860BFF34F8FBFF3E6
:104D80006F8F09E0294601F089FB012804D015B195
:104D90006FF0010400E034462046F8BD04ED00E069
:104DA000F8B5144603460E464FF00005EFF30580B4
:104DB00098BB93B39E423DD84CB1A0680028E068F0
:104DC00003D0502836D3012002E008B132E00020A1
:104DD000012B05D010B31846A26801F028F820E096
:104DE00040B103200090002211460120A36801F089
:104DF00077F804E003220021012001F050F80500BB
:104E000018D086B100231A46194601F0E1F80128AE
:104E100009D0284600F008FE00250BE0184600F0F7
:104E2000E9FF050006D00CB1216800E0002128460A
:104E300000F0E6FD2846F8BD38B50024E51E002840
:104E40000BD000BFEFF30581A9B1002100916946A5
:104E500001F0CDF9012815D102E06FF0030412E052
:104E6000009880B109494FF080500860BFF34F8F20
:104E7000BFF36F8F07E000231A46194601F0A8F828
:104E8000012800D02C46204638BD000004ED00E08B
:104E90002DE9FF414FEA01034FF00005EFF30581D3
:104EA000039549BB40B38027182100244AB31668F4
:104EB00006B1344696691EB13146761E382E02D2AE
:104EC0001679F60703D0002004B0BDE8F0815669DA
:104ED00006B1B708D2F808C0BCF1000F0DD0D568F4
:104EE0005C2D18D312693AB136B18DE806103A46F6
:104EF000214601F016FC03900DE0D6685EB91269F8
:104F00004AB903AACDE90012BAB2214601F0DCFB8E
:104F1000012800D003950398D6E700002DE9F04161
:104F2000134C0F460546E6682068001D00F062FC41
:104F3000681C07D137B12168BDE8F0410D48091D53
:104F400000F0B0BC20683544B5424560216805D208
:104F5000A06BBDE8F041091D00F08CBC606B091D21
:104F600000F088FCA06A854200D2A562BDE8F0810D
:104F700028000020E80600202DE9F041054600F059
:104F80009DFC2D4CA068401CA06020682B4F10B1E8
:104F9000606930B32BE02560A068012827D1002686
:104FA00006EB860007EB800000F056FC761C382EDE
:104FB000F6D3234800F050FC2148143000F04CFC9C
:104FC0001F48283000F048FC1D483C3000F044FCED
:104FD0001B48503000F040FC194860631430A06357
:104FE00005E02068E96AC06A884200D82560606AE6
:104FF000401C60626864E86A2169884200D92061C7
:1050000000EB800007EB8000291D00F04BFC00F056
:1050100075FC606900280CD02068E96AC06A884283
:1050200007D208494FF080500860BFF34F8FBFF39D
:105030006F8FBDE8F08100002800002038020020BA
:105040009806002004ED00E038B500F037FC104C65
:105050002068C8B90F4800F0FFFB0E48143000F07C
:10506000FBFB0C48E060143020610A4B0020F03B51
:10507000009003F1500210210A2000F031FF20605F
:1050800010B105A100F0BCFCBDE8384000F036BC12
:1050900064000020EC070020546D725100000000F5
:1050A00030B4026C0B46002A0BD0C1681144C160B9
:1050B0008468A14201D30168C16030BC1846FBF787
:1050C00047BA30BC70472DE9F041856B174604465E
:1050D0000026026C82B1C7B1E068FBF739FAE168DB
:1050E000206C091AE1602268914202D2A168081A74
:1050F000E060022F16D017E02068A8B9A06801F080
:10510000C1FB06460020A0600EE06068FBF720FAB5
:10511000216C606808446060A168884204D32068FC
:10512000606001E005B16D1E6D1CA5633046BDE8F1
:10513000F08110B5044690F8590058B101280CD000
:1051400002280FD0502080F31188BFF34F8FBFF398
:105150006F8FFEE7206B00F0E5FB2046BDE81040B6
:1051600000F0E0BB10BD000010484FF44061420762
:1051700006D0C01D0D4920F00700411AC1F540615D
:105180000B4A00230144C2E900030839183A21F010
:10519000070111604B600B600B1AC0E900139360AC
:1051A0004FF000405360506170470000CC0E00206B
:1051B00094000020144E154CA6F29C474FF08058E6
:1051C000DFF84C9012E000BF00F078FBF068C56893
:1051D000281D00F00FFBA068401EA0606068401E04
:1051E000606000F08BFB2846FFF7A3FF6068002893
:1051F000EAD138680128F9D9C9F80080BFF34F8F88
:10520000BFF36F8FF2E70000D406002028000020D3
:1052100004ED00E0002807D00021816001600B460A
:105220000A46C16000F0D4BE7047000070B51D464C
:10523000049C51B1C4F80020C4E90F0101212046AB
:1052400000F082FE84F84C5070BD2460F4E700004A
:105250002DE9F05F8846DDE90B9415468346910001
:105260009A460A9EA522206BFBF7E9F96FF003012D
:10527000206B01EB8501084420F00707780707D071
:10528000502080F31188BFF34F8FBFF36F8FFEE77D
:105290000025B8F1000F0FD05FF00000221818F8B9
:1052A000001082F8341018F8001011B1401C1028BA
:1052B000F4D384F8435001E084F83450382E00D3FE
:1052C0003726E662C4E91365201D00F0D0FA04F128
:1052D000180000F0CCFA2461C6F138006462A061C5
:1052E000656584F8585052465946384600F070FAC1
:1052F0002060B9F1000F01D0C9F80040BDE8F09F6F
:1053000030B5114900E011460A688242FBD34B6870
:105310005C18844203D140681844486008464368DA
:105320001C18944209D1084C183C2468A24209D0A8
:1053300052681A4442600A6812680260814200D0D2
:10534000086030BD0460F9E79400002070B50024C7
:1053500041600B4D0061914206D8D11A8269914299
:1053600006D2011D286907E09A4203D2994201D36F
:10537000012403E0011DE86800F07CFA204670BDBE
:105380006400002010B5044600F098FAA06B28B124
:105390005FF0000400F0B2FA204610BD0124F9E7E6
:1053A00030B589B03C4D6EE00498002806DADDE99E
:1053B0000601059A90470498002864DB069C606902
:1053C00010B1201D00F016FA03A800F0D7F802462D
:1053D00004980A2857D2DFE800F00505052D334A66
:1053E00005052D3394F8280040F0010084F82800CA
:1053F0000599A069059B01442046FFF7A7FF68B304
:10540000216A2046884794F8280040073BD50020B1
:1054100000900598A169002342181946204601F022
:1054200077FBD8B9502080F31188BFF34F8FBFF3BB
:105430006F8FFEE714F8280F20F00100207022E0A3
:1054400094F8280040F0010084F828000598A06135
:1054500028B1811813462046FFF778FF13E050204B
:1054600080F31188BFF34F8FBFF36F8FFEE794F87F
:105470002800810703D4204600F054FA03E020F00E
:10548000010084F82800002204A9286800F01CFF0D
:10549000002889D109B030BD640000202DE9FC410D
:1054A0000F46054600F002FC01A800F067F804462C
:1054B000019818B101F09AFABDE8FC81254EAFB110
:1054C00030690068D0B30027291B3A46306800F0E5
:1054D000D7FA01F08BFA0028EED11F494FF0805027
:1054E0000860BFF34F8FBFF36F8FE5E7A542EBD89E
:1054F00001F07CFAF0682746C068C468201D00F0FF
:1055000079F994F82800410719D5A0692B4641196B
:105510003A462046FFF71AFFA8B10020034601468D
:1055200000902A46204601F0F3FA60B9502080F33B
:105530001188BFF34F8FBFF36F8FFEE707E020F0B6
:10554000010084F82800216A20468847B4E7012733
:10555000BAE700006400002004ED00E00648416B5B
:10556000096829B1416BC968C96849688162704797
:105570004FF0FF31FAE700002800002070B5054623
:1055800001F00EF9064E0446B068844203D200F0E2
:1055900009F8012000E0002028602046B46070BDBA
:1055A00064000020F8B5194D20E0C068C4680668A2
:1055B000201D00F01FF9216A2046884794F8280032
:1055C000400713D5A0693044B04206D92461606019
:1055D000211DE86800F04EF908E00020034601466E
:1055E00000903246204601F093FA38B1E86801682D
:1055F0000029DAD12969C5E90310F8BD502080F3EC
:105600001188BFF34F8FBFF36F8FFEE76400002058
:10561000002101E0401C491C0278A52AFAD0C1F300
:105620008F00704708484068401C4FF0500080F3DE
:10563000118804D0BFF34F8FBFF36F8FFEE7BFF326
:105640004F8FBFF36F8FFEE79C000020074CE06890
:10565000016841B1C0680021D0F80000FFF71EFFCB
:10566000FFF79EFEF3E701210020F7E7640000202A
:105670002DE9F041044600F021F994F9455004F178
:10568000240609E0606A48B1304601F077F908B1B4
:1056900000F046FA6D1E6DB2002DF3DC4FF0FF36C0
:1056A00084F8456000F02AF900F008F994F94450B4
:1056B00004F1100709E0206948B1384601F05EF9AD
:1056C00008B100F02DFA6D1E6DB2002DF3DC84F8E8
:1056D0004460BDE8F04100F011B900002DE9F0414F
:1056E0000546002700F0E2FA324E306808B9FFF7AD
:1056F0003BFD706905424ED1C5B3083568070ED031
:1057000005F00700C0F108000544680707D05020E5
:1057100080F31188BFF34F8FBFF36F8FFEE72DB378
:105720007068854237D82348183001460C6801E07C
:1057300020460C466168A94202D221680029F7D1AF
:1057400031688C4227D0076821680160606808379B
:10575000411B10290FD96019420708D0502080F34F
:105760001188BFF34F8FBFF36F8FFEE713E04160E7
:105770006560FFF7C5FD61687068401A7060B268C7
:10578000904200D2B060706901430020C4E900017A
:10579000F068401CF06001F029F9780707D050202C
:1057A00080F31188BFF34F8FBFF36F8FFEE738464A
:1057B000BDE8F0817C0000200449086818B1086841
:1057C000026D521C02650868704700002800002026
:1057D00010B5031F4FF080741C601B1F21F00101E6
:1057E0001960191F024B0B60143940380A6010BD54
:1057F00025560008D0E9013201699A60D0E90123F9
:105800005A604A68824201D182684A60002202617D
:105810000868401E086008687047000008B9024820
:105820000068006BFFF7F4BE28000020034B036004
:1058300003F15C00086080201060704714080020AD
:10584000044B036003F15C0008604FF4807010604B
:1058500070470000700A002000F108014FF0FF328D
:10586000C0E90112C160016100210160704700219F
:105870000161704730B50B685A1C02D000F1080274
:1058800002E0026904E02246546825689D42FAD984
:1058900053684B6099608A60516008610168491CD7
:1058A000016030BD42684A6093688B6093685960BC
:1058B000916008610168491C01607047502080F3C5
:1058C0001188BFF34F8FBFF36F8F0A494868401CA0
:1058D000486001280CD10848006810F0FF0F07D07D
:1058E000502080F31188BFF34F8FBFF36F8FFEE717
:1058F000704700009C00002004ED00E00849486863
:1059000028B1401E486001D180F3118870475020B3
:1059100080F31188BFF34F8FBFF36F8FFEE7000056
:105920009C00002070B500282AD0164DA0F1080474
:1059300060686969084207D1502080F31188BFF37D
:105940004F8FBFF36F8FFEE722683AB1502080F38C
:105950001188BFF34F8FBFF36F8FFEE788436060FE
:1059600000F0A4F960686968084468602046FFF7A1
:10597000C7FC2869401C2861BDE8704001F036B8BA
:1059800070BD00007C0000204FF0E020002101618C
:10599000816105494FF47A720968B1FBF2F1491E41
:1059A00041610721016170472400002010B5FAF71A
:1059B00049FC114910280ED300F1E02090F8F003C3
:1059C0000A78904207D2502080F31188BFF34F8F9E
:1059D000BFF36F8FFEE709480068896800F4E06054
:1059E000884207D9502080F31188BFF34F8FBFF34F
:1059F0006F8FFEE710BD00009C0000200CED00E062
:105A000010B5084B002200BF53F832401CB1521CA5
:105A1000082AF9D310BD43F8321003EBC2014860E5
:105A200010BD0000F801002010B504000AD000F0FD
:105A300013F894F8460000280CD12046BDE8104029
:105A4000FFF770BF502080F31188BFF34F8FBFF373
:105A50006F8FFEE710BD0000084A002102EBC10372
:105A60005B68834206D1002042F8310002EBC1019D
:105A700048607047491C0829F0D37047F80100209E
:105A800070B515460E460446FFF718FF94F944100A
:105A90000020491C01D184F8440094F94510491CA8
:105AA00001D184F84500FFF729FFA06B28B92A46E9
:105AB000314604F1240000F051F82046BDE8704062
:105AC000FFF7D6BD10B5020014D00F48006B38B1F7
:105AD000502080F31188BFF34F8FBFF36F8FFEE725
