:020000040800F2
:10000000A80C002045020008673C0008B53600082F
:10001000653C0008BD1E0008E73E00080000000027
:10002000000000000000000000000000AD0100081A
:10003000F11E000800000000F1010008693C000802
:100040005F0200085F0200085F0200085F0200080C
:100050005F0200085F0200085F0200085F020008FC
:100060005F0200085F0200085F0200085F020008EC
:100070005F0200085F0200085F0200085F020008DC
:100080005F0200085F0200085F0200085F020008CC
:100090005F0200085F0200085F0200085F020008BC
:1000A0005F0200085F0200085F0200085F020008AC
:1000B000E93C00085F0200085F0200085F020008D8
:1000C0005F0200085F0200085F0200085F0200088C
:1000D0005F0200085F0200085F0200085F0200087C
:1000E0005F0200085F0200085F02000800F002F8EB
:1000F00000F04DF80AA090E8000C82448344AAF175
:100100000107DA4501D100F042F8AFF2090EBAE872
:100110000F0013F0010F18BFFB1A43F0010318473B
:10012000C44C0000E44C0000103A24BF78C878C1E9
:10013000FAD8520724BF30C830C144BF04680C60ED
:10014000704700000023002400250026103A28BF35
:1001500078C1FBD8520728BF30C148BF0B60704739
:10016000662904F07A84752900F0C280782900F0AD
:100170002281002070471FB500F0A8FC0400002079
:10018000002104F08BF9E0601FBD10B510BD00F038
:10019000BDFD1146FFF7EFFF04F042F800F0DBFD74
:1001A00003B4FFF7F2FF03BC03F0D5FE224B19683E
:1001B0000868B0E8F00F80F30988BFF36F8F4FF045
:1001C000000080F311884EF00D0E70470000000013
:1001D00006480068006880F3088862B661B6BFF31D
:1001E0004F8FBFF36F8F00DF00BF00BF08ED00E04F
:1001F000EFF30980BFF36F8F0F4B1A6820E9F00F00
:10020000106008B54FF0500080F31188BFF34F8F96
:10021000BFF36F8F04F088F84FF0000080F311886F
:10022000BDE8084019680868B0E8F00F80F3098855
:10023000BFF36F8F704700BF24000020EFF30580ED
:10024000704700000948804709480047FEE7FEE77D
:10025000FEE7FEE7FEE7FEE7FEE7FEE7FEE7FEE776
:1002600004480549054A064B70470000E73C000872
:10027000ED000008A8060020A80C0020A808002017
:10028000A8080020704700000FB4044910B503AA65
:10029000029800F009FC10BC5DF814FB100000206F
:1002A00070B5044685690068C10601D5302600E0B6
:1002B0002026C00707D070BDD4E901213046904701
:1002C000206A401C20626D1EF6D570BD70B50446D4
:1002D00085690078C00707D170BDD4E901212020CD
:1002E0009047206A401C20626D1EF6D570BD00004C
:1002F0002DE9F0410646002410687529314616A5FF
:1003000010D0AFF30080002802DA404213A507E0C6
:1003100031688A0701D512A502E0490704D511A565
:10032000012401E0AFF3008000210A2206F1240736
:1003300009E0B0FBF2FCB0FBF2F302FB1C00303032
:1003400078541846491C0028F3D123462A463046E3
:10035000BDE8F04100F040B9000000002D000000B1
:100360002B00000020000000F0B40D4601880905B4
:1003700002D51B4C7C4402E0194C7C440E34002115
:1003800000F1240305E002F00F061209A65D5E5499
:10039000491C002AF7D102780023120704D5702DDA
:1003A00006D009B1022311342246F0BC00F014B982
:1003B00001231034F8E770B504460D462146106855
:1003C000AFF30080024629462046BDE87040CBE7E7
:1003D0000368126843F0200303600823C361C3E786
:1003E000F04700002DE9F05F894604464FF0000A0F
:1003F000DFF874B1FB44C0F820A02046E1688847CC
:10040000002874D0252806D0D4E901219047206A1D
:10041000401C2062F1E700265F462046E1688847DD
:100420002028054607DB312D05D2781910F8200C5D
:1004300008B10643F1E7B00701D526F00406C4F879
:100440001CA00027C4F818A02A2D09D0284603F0C4
:100450007BFD38B304EB8708303DC8F8185019E02D
:1004600059F8041B204604EB87029161E168884734
:10047000012F054618D1E069002820DA26F0200671
:100480001DE0D8F8180000EB800005EB4000303884
:10049000C8F818002046E1688847054603F054FD77
:1004A0000028EED1012F0AD02E2D08D12046E16878
:1004B00088477F1C0546022F46F02006C4DBA06952
:1004C000002803DA404246F00106A061F00701D09F
:1004D00026F010066C2D0BD0682D09D04C2D39D08C
:1004E0006A2D35D0742D35D07A2D33D016E038E012
:1004F000E1682F4620468847B842054609D16C2F4F
:1005000026D04FF48060E1680643204688470546C0
:1005100004E06C2F1AD04FF4807006430DB3A5F1A0
:100520004100192802D8203546F400664A4629467B
:10053000204626604E46FFF713FE80B101280BD0FF
:10054000F61D26F0070000F1080956E74020E4E711
:100550008020D8E70020D6E706F104094DE72846B9
:1005600052E7206ABDE8F09F984700004FF0000274
:1005700000B5134694469646203922BFA0E80C5099
:10058000A0E80C50B1F12001BFF4F7AF090728BF74
:10059000A0E80C5048BF0CC05DF804EB890028BFF0
:1005A00040F8042B08BF704748BF20F8022B11F019
:1005B000804F18BF00F8012B704770477047704795
:1005C000704710B500F086FA006810BD10B50446FB
:1005D00000F080FA046010BD2DE9F0470D46994601
:1005E0009246044600F124080168880604D5E069B3
:1005F00021F01001216000E00120A84201DD471B2D
:1006000000E00027A1697A1902EB0900081AA0612D
:100610002078C00602D42046FFF742FE002608E0FC
:10062000D4E901211AF806009047206A401C761C84
:1006300020624E45F4DB2078C0060AD52046FFF73D
:100640002FFE06E0D4E9012130209047206A401CAB
:100650002062381EA7F10107F4DC07E0D4E901218C
:1006600018F805009047206A401C2062281EA5F15A
:100670000105F3DC2046FFF729FE2078000602D5AD
:100680000220BDE8F0870120FBE770472DE9FF4F0E
:100690000C461E464FF0FF378BB0D2E90001DDF863
:1006A00060800A908A46C1F30A5505B93D4600218B
:1006B00008464FF00000BAF1000F00F4400005DAE0
:1006C00000EB80004FF4400101EA50004FEA9059DE
:1006D000B9F1010F00DDB9460A9850EA4A000ED080
:1006E00044F61050A5F2FF3545432F14B8F1000F22
:1006F0001ED07542291E1EDDC9F100021CE0B8F1B2
:10070000010F4FF0000001D0302103E0F24305E07B
:100710002154401CB042FBDB304600220021215412
:100720000B99C1F80880C1E900200FB0BDE8F08F37
:10073000BD1B6D1CDEE74A4600DA694206A800F0E0
:100740006BFA06AB93E8070003AB83E8070050465B
:100750000A9900F049FB8DE80700A0F500501F380A
:1007600000900398002D0ADD42F21F014A4608441A
:10077000002303A90390684600F0B2FD09E0A0F54C
:1007800000504A461F38002303A90390684600F032
:10079000BCFD8DE807000004000C03D04FF0FF30D3
:1007A000410800E01046B8F1000F03D0002200928B
:1007B00015461EE0751E05D400F090F930326255E2
:1007C0006D1EF9D5B3460122084302D000227F1CDA
:1007D00004E02078302801D100227F1E002A0997EA
:1007E00084D01DE0112D07DA00F078F9303262551F
:1007F0006D1C50EA0102F5D1084302D00098C8B13F
:100800000EE00021681E05E0235C625C6354225404
:10081000401E491C8142F7DBAB46A81B401E0990D5
:10082000002004F80B000B98099AC0F80880C0E972
:10083000002B7AE711264FF0000857E72DE9F04F1B
:1008400088460446D21D22F0070191B0D1E900018B
:10085000CDE90A0103F048FB02460B98C00F01D016
:100860002D2007E02068810701D52B2002E0202100
:1008700001EAC000032A099001D0072A05DB0346DC
:100880004146204600F088F90BE12078800601D52A
:10089000E06900E00620B8F1650F814606D0B8F1A6
:1008A000660F18D0B8F1670F70D131E00020B9F1B0
:1008B000110F009001DB112301E009F101030AAAE5
:1008C00001A90CA8FFF7E2FEDDE90C70002609F192
:1008D0000105834647E001204B4600904FF000475A
:1008E0000AAA01A90CA8FFF7D1FEDDE90DB00C9909
:1008F0005D46002610B909F101000D18B9EB05009D
:1009000003D4C0F1FF3609F10105A5EB09002BE086
:10091000B9F1010F01DA4FF001090020B9F1110F0F
:100920000090484601DD112300E003460AAA01A910
:100930000CA8FFF7ABFEDDE90C704D4600268346A0
:10094000207800070AD4AB4500DA5D4601A8012DE6
:1009500004DD411911F8011C302907D04F4502DA96
:1009600017F1040F04DA012082460FE06D1EEEE756
:10097000002F02DCED1B3E4403E0781CA84200DDA2
:100980007D1CB81B00F1010A4FF0004720780007DA
:1009900003D4AA4501DB4FF0FF3A0021B7F1004F25
:1009A0000DF143088DF8431024D002202B23002F93
:1009B00001DA7F422D230A21021EA0F1010000DC92
:1009C0005FB197FBF1FC97FBF1F201FB1C7C174632
:1009D0000CF1300C08F801CDEEE7A8F1010003702E
:1009E0002188090501D5452100E06521A0F1010814
:1009F00000F8011C09980FA9A1EB0807FF1D00B121
:100A00000120411901EBEA70A1693844081A401E1F
:100A1000A0612078C00602D42046FFF741FC099867
:100A200028B1D4E901219047206A401C2062207837
:100A3000C00622D52046FFF733FC1EE0002E04DB63
:100A4000B34502DD01A8805D00E03020D4E901213A
:100A50009047206A401C2062761CAAF101005FEAE0
:100A6000000A0AD100F032F8C0680168405CD4E99D
:100A700001219047206A401C2062281EA5F1010533
:100A8000DCDC07E0D4E9012118F8010B9047206A6B
:100A9000401C2062381EA7F10107F3DC2046FFF757
:100AA00015FC032011B041E6074B70B50D467B44A1
:100AB00000F05FF80446284600F020F910B14FF02E
:100AC000FF3070BD204670BDBB3500000048704748
:100AD00064060020004870474406002030B5B0F19D
:100AE0000A024FEA900E71F100034EEA817EB0EBEC
:100AF0000E0061EB91014FEA101E4EEA017E10EBF1
:100B00000E0041EB11114FEA102E4EEA016E10EB70
:100B10000E0041EB11214FEA104E4EEA014E10EB50
:100B20000E0041EB1141401841F100014FEAD000A5
:100B300040EA41704FEAD10110EB80054FEA810491
:100B400044EA907444EB01046D1944EB0404521B15
:100B5000A3414FF0000348BF0A3200D530BD401C0E
:100B600041F1000130BD000001694A1C02610878B2
:100B7000704700B58FB0CDE90131002105910549DD
:100B80007944CDE9031011466846FFF72BFC0FB0FE
:100B900000BD0000E5FFFFFF2DE9F0411F460446C0
:100BA00003260168072A01F4006004DB08B116A5DA
:100BB00005E016A503E008B115A500E015A521F094
:100BC00010002060A069C01EA0610FB1401EA0618E
:100BD0002046FFF765FB4FB1D4E901213846904725
:100BE000206A401C2062C01C206206E0206AFAE7EE
:100BF000D4E9012115F8010B9047761EF8D2204662
:100C0000FFF764FBBDE8F0814E414E006E616E005F
:100C1000494E4600696E66002DE9F047814616464A
:100C20008AB0354878440DC88DE80D0032487844C4
:100C3000801C03AC0DC884E80D0041F69B300844CD
:100C4000372190FBF1F290FBF1F5A5F1800501FB56
:100C500012041B3C02D56442012000E00020DFF8B2
:100C600098A080460027FA44AAF1BE0A0EE0E007E9
:100C70000AD03246684607EB470101230AEB81019F
:100C800000F043FB8DE8070064107F1C002CEED1C0
:100C9000194F7F44AE3F19E0E80715D007EB041069
:100CA0000DF1180A90E80E008AE80E00C068F042C4
:100CB00001D1981908903246012306A903A800F033
:100CC00024FB03AB83E807006D10641C002DE3D107
:100CD0004FF0010332466946B8F1000F03A802D075
:100CE00000F0FEFA01E000F010FBC9E90001C9F8CC
:100CF00008200AB0BDE8F08738400000007B00F013
:100D00008000704700487047440600207546FFF792
:100D1000F9FFAE4605006946534620F007008546B8
:100D200018B020B5FFF79CFABDE820404FF0000650
:100D30004FF000074FF000084FF0000B21F00701C3
:100D4000AC46ACE8C009ACE8C009ACE8C009ACE806
:100D5000C0098D46704710B50446AFF300802046A9
:100D6000BDE81040FFF71CBA4FF0013C50F8042BCF
:100D700051F8043B9A4221D1A2EB0C03934313EAAE
:100D8000CC1317D150F8042B51F8043B9A4215D1DB
:100D9000A2EB0C03934313EACC130BD150F8042BB2
:100DA00051F8043B9A4209D1A2EB0C03934313EA96
:100DB000CC13DBD04FF00000704700BFD01A01BA4F
:100DC000B1FA81F101F0180122FA01F0CB40C1F132
:100DD0002001DBB2C0B2C01A2CFA01F3D11A914340
:100DE00011EAC311E6D170475FEA400C08BF91F0E9
:100DF000000F4FEA8C234FEAC12243EA51514FEAD8
:100E00001C5018BF00F5F0404FEA300018BF41F009
:100E100000415FEA6C5C00F02980BCF1FF3F08BF35
:100E200040F080407047130C06BF12044FF0100CC6
:100E30004FF0000C130E04BF12020CF1080C130F3C
:100E400004BF12010CF1040C930F04BF92000CF1CB
:100E5000020CD30F04BF52000CF1010C11464FF0ED
:100E60000002A0F11F00A0EB0C00704711F0004F32
:100E700008BF704731F000413FF4D5AF0B0C06BFFF
:100E800009044FF0100C4FF0000C0B0E04BF0902C8
:100E90000CF1080C0B0F04BF09010CF1040C8B0FB3
:100EA00004BF89000CF1020CCB0F04BF49000CF108
:100EB000010CCCF12003A0EB0C0022FA03F302FAA0
:100EC0000CF241EA030100F10100704720F07F4C71
:100ED00080EA030023F07F47ACEB070303F57C5364
:100EE00000F0004003F1FF032DE980494FEA154B64
:100EF00009B44FEA144325EA0B4E24EA03480FF2E3
:100F0000042606EB132749083E785FEA320203FB0A
:100F10000667C7F5000707FB06F64FEA54374FEAA6
:100F2000D64606F1020607FB066CCCF1005C4FEAE0
:100F30001C472CEA074C07FB06F40CFB06F504EBF8
:100F400015464FEA961634BF00204FF000404FEA96
:100F5000D13706FB07FC4FEA1C4C0CFB0BF7D21BEE
:100F600003FB0CF761EB07010CFB0EF7B0EB07403E
:100F700072EB17420CFB08F734BFA2EB0742B2EB4F
:100F8000074261EB17414FEA0C444FEA910706FB19
:100F900007FC4FEA1C4C0CFB0BF7B0EBC74072EBA5
:100FA000573203FB0CF734BFA2EBC742B2EBC74288
:100FB00061EB57310CFB0EF7B0EBC70072EB5772C9
:100FC0000CFB08F734BFA2EBC702B2EBC70261EB20
:100FD0005771039F4FEA816141EA921104EBCC04FF
:100FE0004FEAD1374FEA826206FB07FC42EA9012D1
:100FF0004FEA80604FEA1C4C0CFB0BF7D21B03FB43
:101000000CF761EB07010CFB0EF7B0EB074072EB3E
:1010100017420CFB08F734BFA2EB0742B2EB0742C2
:1010200061EB17414FEA8C554FEA910704EB9C2482
:1010300006FB07FC4FEA1C4C0CFB0BF7B0EBC74060
:1010400072EB573203FB0CF734BFA2EBC742B2EB93
:10105000C74261EB57310CFB0EF7B0EBC70072EBE8
:1010600057720CFB08F734BFA2EBC702B2EBC70202
:1010700061EB577115EB4C254FEA816141EA921102
:101080004FEA82624FEAD13742EA901206FB07FC30
:1010900044F100044FEA80604FEA1C4C0CFB0BF754
:1010A000D21B03FB0CF761EB07010CFB0EF7B0EB57
:1010B000074072EB17420CFB08F734BFA2EB074264
:1010C000B2EB074261EB174115EB1C154FEA81317A
:1010D00041EA92414FEA823242EA90424FEA80303E
:1010E0004FEA0C7644F1000448EA03434EEA0B4809
:1010F0004FF0000EB2EB080C71EB030724BF624601
:1011000039464EEB0E0E4FF0000B0018524149418C
:101110004BEB0B0BB2EB080C71EB03077BF1000BF5
:1011200024BF624639464EEB0E0E4FF0000B0018FE
:10113000524149414BEB0B0BB2EB080C71EB03072F
:101140007BF1000B24BF624639464EEB0E0E51EA8E
:10115000020718BF46F0010616EB0E7655F10002A5
:1011600054F1000103D5BDE88901BDE80088BDE860
:101170008901BDE80048B619524141EB0101A3F1D4
:101180000103704780807F7E7D7C7B7A79787776DB
:1011900076757473727171706F6E6E6D6C6C6B6A54
:1011A0006A696868676666656464636362616160F2
:1011B000605F5F5E5E5D5D5C5C5B5B5A5A5959586F
:1011C00058575756565555555454535352525251D9
:1011D000515050504F4F4F4E4E4D4D4D4C4C4C4B2F
:1011E0004B4B4A4A4A494949484848474747474676
:1011F00046464545454444444443434343424242B2
:1012000042414141002B9C4630D477002BD01CB585
:101210004FEA370703B44FF010004FF01001BAF156
:10122000000F06D0BCF1000FDCBF40F0080040F01A
:1012300008014FF000000FBCBDE810400BF1010B9E
:10124000BBF1010F08BF5FEA170722BF12F10102CD
:1012500011F101014FF0004143F1000300F00040A3
:1012600043EA00007047F9D35708D0E746EA06463C
:1012700013F1400F4FEA16461FDD13F1200FDFBFB9
:1012800016430A46002120335B42BED0C3F120073B
:1012900046EA064602FA07F74FEA164646EA070606
:1012A000C3F1200722FA03F201FA07F721FA03F14A
:1012B0004FF0000342EA0702A7E746EA020646EAC1
:1012C00006464FEA164646EA0106BCBF46EA06460F
:1012D000360C4FF000034FF000024FF0000194E78E
:1012E0002DE9804C9A46934670B491E8380007C8BF
:1012F00031EA400C48BF34EA430C03D5FFF7E6FD62
:10130000FFF780FFF0BCBDE8008C2DE9804C9A46C9
:10131000934670B491E8380007C810F0804F08BFBA
:1013200013F0804F03D100F005F8FFF76BFFF0BC1E
:10133000BDE8008C20F07F4780EA030023F07F4C5B
:1013400007EB0C03A3F57C5300F00040A3F1FE0370
:1013500092F0000F00F0B38095F0000F00F077805E
:101360002DE901494FEA11404FEA144621EA0048AD
:1013700000FB06FC24EA064708FB06F607FB08F814
:1013800000FB07F718EB06484CEB164C4FEA124BE4
:1013900018EB07484FEA15464CEB174022EA0B4E74
:1013A0000BFB06FC25EA06470EFB06F607FB0EFEC6
:1013B0000BFB07F71EEB064E4CEB164C4FF00006EE
:1013C0001EEB074E4CEB174B18EB0B0840F10000DF
:1013D00018EB0E0B58EB000840F100008F1A4FF08D
:1013E00000013CBFC943661B14BFB5EB040C0021D0
:1013F0003CBFC943F61B4FEA17444EEA8E0E27EA5C
:1014000004454FEA1C4704FB07622CEA074C05FB26
:1014100007F70CFB05F604FB0CFC16EB074642EB4A
:10142000174216EB0C4642EB1C421BEB060658EB30
:101430000202414146EA9E0601D5BDE80189B6197E
:10144000524141EB0101A3F10103BDE801894FEADB
:1014500014454FEA114724EA054621EA074C05FBEB
:1014600007F406FB07F70CFB06F105FB0CFC11EB80
:10147000074144EB17444FEA124711EB0C4144EB90
:101480001C4422EA074C05FB07F206FB07F70CFB9E
:1014900006F605FB0CFC16EB074642EB174216EB73
:1014A0000C4642EB1C456A1854F1000148BF7047D6
:1014B000B619524141EB0101A3F10103704795F0C8
:1014C000000F37D04FEA11424FEA144721EA024693
:1014D00024EA074C02FB07F106FB07F70CFB06F4B6
:1014E00002FB0CFC14EB074441EB17414FEA154794
:1014F00014EB0C4441EB1C4125EA074C02FB07F5B9
:1015000006FB07F70CFB06F602FB0CFC16EB074686
:1015100045EB174516EB0C4645EB1C42121951F1F1
:10152000000148BF7047B619524141EB0101A3F1D8
:10153000010370474FEA14454FEA114724EA054674
:1015400021EA074C05FB07F106FB07F70CFB06F247
:101550004FF0000605FB0CFC12EB074241EB174174
:1015600012EB0C4251EB1C4148BF7047921841EB03
:101570000101A3F10103704710B5B0F5000F77DB4F
:101580003C490446884202DA03F026F9044600F09A
:10159000ACF801006CD02046012909D9364A9442A2
:1015A00006DD084603F004F90146204603F026F85C
:1015B0003249884201DB642010BD3149884201DB99
:1015C0005F2010BD2F49884201DB5A2010BD2E49F3
:1015D000884201DB582010BD2C49884201DB57208E
:1015E00010BD2B49884201DB562010BD2949884295
:1015F00001DB542010BD2849884201DB532010BD77
:101600002649884201DB522010BD2549884201DB72
:10161000512010BD2349884201DB502010BD2249D2
:10162000884201DB4F2010BD2049884201DB4E205B
:1016300010BD1F49884201DB4D2010BD1D49884265
:1016400001DB282010BD1C49884201DB1E2010BD93
:101650001A49884201DB142010BD1949884202DB77
:101660000A2010BD04E01749884201DB0520F8E795
:101670000020F6E700007A440080BB4500B08145B9
:101680000020804500207D4500007A4500E0764539
:1016900000C0734500A0704500806D4500606A453C
:1016A00000406745002064450000614500E05D455D
:1016B00000C05A4500A057450080544500404E45A3
:1016C0000000484500C0414508B500208DF80000E5
:1016D000694602F061FC08B1012008BD9DF80020B8
:1016E0000021082000F0CCFB08BD0020014644F694
:1016F000736222FA01F3DB0701D0401CC0B2491C1F
:10170000C9B20F29F5D3704770B5364D4FF48074C8
:1017100086B000222146284600F002FF022000F099
:10172000FDFD01222146284600F0FAFE022000F0CD
:10173000F5FD0A2000F0F2FD082000F067FB10B173
:10174000012006B070BD284E0024B51C694650200B
:1017500002F022FC0028F3D101A9592002F01CFC60
:101760000028EDD102A9512002F016FC0028E7D193
:101770009DF800009DF80410C0F34110C00040EA3D
:10178000511000F26D1030809DF80800694640B29B
:1017900028808DF800408DF80440042002F0FCFB06
:1017A0000028CDD101A9052002F0F6FB0028C7D101
:1017B0009DF8000040F018019DF804008DF800101D
:1017C00040F040008DF80400042002F0EAFB0028FD
:1017D000B6D19DF80410052002F0E3FB0028AFD13C
:1017E000AFE70000000801406200002038B50400A7
:1017F00007D00020ADF800006946322002F0ACFBB3
:1018000008B1012038BDBDF80000064D00B202F05D
:10181000B7FF294602F0E0FF034902F0EFFE206027
:10182000002038BD86990D376F12833B20B10246E8
:101830000021082000F0F8BA012070472DE9FC4192
:1018400007462A4E2A4D2B4C01A92C2002F0A4FB5E
:1018500058BB9DF8041028A0FEF716FD69462D2000
:1018600002F09AFB08BB9DF8001029A0FEF70CFDC2
:101870009DF800009DF8041040EA01204FF4BF716C
:1018800048434FF47A71B0FBF1F000280DDD40F6CB
:10189000E441884209DA42F210714143A0F6E44083
:1018A0004042B1FBF0F0002802DC0120BDE8FC81E1
:1018B00002F066FF314602F0A1FE02F0E9FB294684
:1018C00002F09CFE01464FF07E55174802F02EFEB6
:1018D0000146284602F092FE214603F049F84FF0F7
:1018E0007C5102F023FE38600020DFE700401C46F8
:1018F00000405345339388437265616454656D704D
:10190000627566323D3078253032580D0A0000008D
:101910007265616454656D70627566313D3078251D
:101920003032580D0A0000000FCF5B3B2DE9F84F15
:10193000050011D0002444F67366274626FA04F009
:10194000C0070CD00C2000EB4400ADF80070C0B212
:10195000694602F001FB28B10120BDE8F88F45F887
:10196000247027E0BDF80000DFF85490C0F30D00AC
:10197000ADF800008046B9F8020002F019FF824677
:10198000404602F015FF514602F026FF8046B9F9A5
:10199000040002F0F5FEDFF82C90824649464046EE
:1019A00002F02CFE514602F0C1FD494602F026FE2F
:1019B00045F82400641CE4B20F2CBFD30020CCE710
:1019C0006000002000007A4470B5144D00204FEAFA
:1019D00000042870FFF798FEC0B1114801F053F9D8
:1019E000142000F09BFC641CE4B2052CF2D3287890
:1019F00078B10CA0FEF748FCFFF777FEBDE8704019
:101A0000014644F673620CA0FEF73EBC012028702C
:101A1000EFE7BDE8704011A0FEF736BC00000020E3
:101A2000E40000204251373639343020696E697441
:101A3000204F4B0D0A000000425137363934302018
:101A400063656C6C5F636F756E743D2575206D61A9
:101A5000736B3D3078253034580D0A0042513736CB
:101A600039343020696E6974204641494C0D0A00B2
:101A70002DE9F04FB3B0B24801F005F9B14C207830
:101A800038B100F053FD05466068281AB0F5FA7FBA
:101A900005D20A2000F042FC33B0BDE8F08FA9481F
:101AA000402145601CA8FEF761FD00202F9030907A
:101AB0008DF8C4001CA8FFF739FF90B300272FA8AA
:101AC000FFF794FE70B30020099030A8FFF7B6FE30
:101AD00048B30020089031A8FFF7A8FE50B30020BB
:101AE0008246FFF702FE06464FF0000827B3A6B174
:101AF000002444F673690DF1700B00BF29FA04F05D
:101B0000C00705D05BF82410404602F00FFD804668
:101B1000641CE4B20F2CF1D377B14046FFF72CFDE3
:101B20000BE001E002E003E00127C8E70120CBE77A
:101B30000120CFE70120D3E700208346309802F050
:101B4000C9FC044689462F9802F0C4FC0A469DF859
:101B5000C41002AB0691CDF800A083E81502DDE9C0
:101B60000832394678A0FEF78FFB3EB1304602F0CE
:101B70001FFE0146404602F041FD00E0002002F059
:101B8000A9FC04460F46404602F0A4FCCDE90247FA
:101B900002460B4659467BA00096FEF775FB2A9835
:101BA00002F098FC80468946299802F093FC189030
:101BB0000F46289802F08EFC83460E46279802F0C6
:101BC00089FC04468A46269802F084FCCDE912017D
:101BD000259802F07FFCCDE91001249802F07AFCF0
:101BE000CDE90E01239802F075FCCDE90C01229895
:101BF00002F070FCCDE90A01219802F06BFCCDE9FE
:101C00000801209802F066FCCDE906011F9802F059
:101C100061FCCDE904011E9802F05CFCCDE90201F3
:101C20001D9802F057FCCDE900011C9802F052FC0F
:101C30000B46CDE9144ACDE916B619A9024681E84A
:101C400080035B48FEF720FB3E488168691AB1F5C6
:101C5000FA6F71D3856000208DF830008DF82C006C
:101C60008DF824008DF828008DF81C000BAA502157
:101C7000082000F0D9F808B300270CAA5921082041
:101C800000F0D2F8E0B1002609AA5121082000F0A6
:101C9000CBF8B8B100250AAA0421082000F0C4F846
:101CA00090B1002407AA0521082000F0BDF868B112
:101CB0000020FF2174B19DF828200CE00127DCE70B
:101CC0000126E1E70125E6E70124EBE701209DF885
:101CD0001C10EFE7FF22CDE90510CDE9032415B173
:101CE0009DF8240000E0FF20CDE90060029516B1C8
:101CF0009DF8303000E0FF2317B19DF82C1000E074
:101D0000FF213A462B48FEF7BFFA9DF81C00C0F3AE
:101D1000400400F00103C0F380129DF8280000F099
:101D200001018DE81E00C0F34003C0F3C002C0F300
:101D300000112148FEF7A8FAFFF7C6FCACE6000048
:101D4000E40000200000002042513A563D25752055
:101D5000493D257520543D257520463D2575207C3F
:101D600020493D252E336641205453313D252E33E5
:101D7000665620535441543D307825303258200D5A
:101D80000A00000042513A534F433D257525252056
:101D90007061636B3D252E3366562063656C6C73F2
:101DA0003D2575206176673D252E3366560D0A0068
:101DB000E04C0008704D0008784C000800B58BB06E
:101DC00028216846FEF7D2FB00200121CDE906015B
:101DD0000590009001900290039004900E20CDE9B0
:101DE00008106946034800F011F9002800D00120CE
:101DF0000BB000BD680000201CB5CDE900230B46E8
:101E00000022114602F0D2F81CBD000010B54100BE
:101E10004FF47A730222034800F052FC002800D0ED
:101E2000012010BD900000203EB582B100924FF419
:101E30007A730124CDE9014340000A460146234656
:101E4000054800F0F3FC002800D001203EBD03A0AF
:101E5000FEF71AFAF9E70000900000204253505FA5
:101E60004932435F526561645F427974653A206428
:101E7000617461206973204E554C4C0D0A000000BE
:101E80007FB50C468DF80C200546012303AA02F00D
:101E9000D3F88DF80D004FF47A72022103A88DE873
:101EA0000700690001232246034800F0EDFD0028E9
:101EB00000D0012004B070BD90000020FEE770B596
:101EC000002914D0002A12D000250EE04C5D60409D
:101ED0000024060602D583EA400000E04000641CAE
:101EE000E4B2C0B2082CF4D36D1C9542EED370BDA1
:101EF000704772B6FEE790F82020012A07D0022A28
:101F000005D0416A41F48021416201207047CA072F
:101F100004D00268936843F0800393608A0704D575
:101F20000268936843F400439360490704D500684E
:101F3000816841F40001816000207047F0B590F89D
:101F400020500468A468012D05D0022D03D0416AF9
:101F500041F4802157E014F0406F01D1E5004FD5E6
:101F6000C4F301640125A5401D608D684FF4C07362
:101F70009DB1CE6835434E6845EAC605066803EB59
:101F80000417F5514FF4C275076805EB04150E6987
:101F90007E51097D012905D009E00E88CD6845EA0A
:101FA0004655EBE701684E5946F480764E5111795B
:101FB000D579567941EA056195792D0445EA0625DA
:101FC00029434FF4C676056806EB0416A95111782B
:101FD000D57841EA0561957852782D0445EA0222C8
:101FE00011434FF4C475026805EB041551510068A4
:101FF00003EB0411425842F0010242500020F0BDB0
:10200000416A41F4001141620120F0BD10B590F821
:1020100020300268012B07D0022B05D0416A41F421
:1020200080214162012010BDD2F8000240F0010081
:10203000C2F80002087D00F01F0301209840D2F88A
:102040001C328343C2F81C32CB69B3B9D2F80C32CC
:102050008343C2F80C328C894B6864F31F434C698C
:1020600002EBC404C4F840320C890B6864F31F43CC
:102070004C6902EBC404C4F84432CB69012B16D17D
:10208000D2F80C320343C2F80C320C884B6864F36C
:102090001F434C6902EBC404C4F840320C89CB687E
:1020A00064F31F434C6902EBC404C4F844328B69E7
:1020B000002BD2F804320FD053EA0003C2F80432E6
:1020C0000B69002BD2F8143208D00343C2F8143243
:1020D000096A012904D008E08343EFE78343F5E769
:1020E000D2F81C120143C2F81C12D2F8000220F0F0
:1020F0000100C2F80002002010BD014690F8200047
:10210000012801D0022804D109684A68920701D544
:102110000420704709688907FBD50320704770B514
:10212000040003D094F8200010B104E0012070BD39
:10213000204600F091F82068016841F0010101603B
:1021400000F0F4F90546052604E000F0EFF9401B25
:102150000A2811D820684068C007F6D020680168B6
:1021600021F00201016000F0E1F905460BE000F00A
:10217000DDF9401B0A2806D9606A40F4003060622D
:1021800084F82060D2E7206840688007EFD4207E82
:102190000128206801683DD021F080010160607E47
:1021A00001282068016838D021F040010160A07E3C
:1021B00001282068016833D021F020010160E07E11
:1021C0000128206801682ED041F010010160207FB5
:1021D00001282068016829D021F008010160607F92
:1021E00001282068016824D021F004010160D4E9AD
:1021F00002010843D4E90412114308436168491EEF
:1022000008432168C86100206062012084F8200032
:10221000002070BD41F08001C0E741F04001C5E7FA
:1022200041F02001CAE721F01001CFE741F0080199
:10223000D4E741F00401D9E70346002093F82020B9
:10224000012A01D0022A05D11A68890692689143B1
:1022500000D001207047000010B586B00021009129
:1022600001910291039100681349884222D11348D9
:10227000C16941F00071C161C16901F0007104914F
:10228000816941F00401816180690D4C00F0040016
:1022900004904FF4006000906946204600F050F82A
:1022A000A01400900220019003200390694620466C
:1022B00000F046F806B010BD006400400010024077
:1022C0000008014070B5044690F82000012804D0B1
:1022D000606A40F40020606218E0022084F8200068
:1022E0002068016821F00101016000F01FF9054636
:1022F0000EE000BF00F01AF9401B0A2808D9606AF6
:1023000040F400306062052084F82000012070BD98
:1023100020684068C007EDD1606270BD70B50446AA
:1023200000F004F90546601C02D00448007804441B
:1023300000F0FCF8401BA042FAD370BD140000204E
:102340002DE9F84FDFF8B8910024A9F1040B2346DA
:102350000F2709F1040AABF1040EC9E00125A540DD
:102360002A40AA427DD1674ED1F804C0ACEB0608E2
:10237000B44532D014DCBCF1030F3AD009DCBCF117
:10238000000F2AD0BCF1010F1CD0BCF1020F31D1DB
:102390001DE0BCF1110F17D0BCF1120F2AD119E0CA
:1023A000B8F5881F19D006DCB8F5803F15D0B8F510
:1023B000801F1FD111E0B8F5001F0ED0B8F5041F23
:1023C00018D10AE0CB6815E0CB681B1D12E0CB6882
:1023D00008330FE0CB680C330CE08B682BB1012B7A
:1023E0004FF0080303D0456104E0042302E00561D7
:1023F00000E00023FF2A01D8064601E000F10406B0
:102400004FEA840501D9A5F12005D6F8008007FA26
:1024100005FC28EA0C0803FA05F548EA0508C6F8A1
:1024200000804D68ED0062D5374DAE6946F001067B
:10243000AE61AD6924F0030605F001050095334D4A
:1024400006EB050CDCF80850A607360F07FA06F86D
:1024500025EA0805DFF8B880404503D14FF00008B1
:1024600017E044E0DFF8AC80404502D14FF00108AE
:102470000FE0DFF8A480404502D14FF0020808E0E9
:10248000DFF89880404502D14FF0030801E04FF09B
:10249000040808FA06F848EA0508CCF808804D68F0
:1024A000D9F80060ED024D4601D5164300E0964391
:1024B0002E604D68DAF80060AD02554601D516432E
:1024C00000E096432E604D68DBF80060AD035D468A
:1024D00001D5164300E096432E604D68DEF800609B
:1024E000ED03754601D5164300E096432E60641C4B
:1024F0000D682A46E5407FF431AFBDE8F88F000053
:1025000008040140000011100010024000000140CA
:1025100000080140000C014000100140001401407F
:102520000AB1016170470904FBE7000001488068B7
:10253000704700001400002070B5040025D094F806
:102540003D00002520B984F83C50204600F034FBC3
:10255000242084F83D002068016821F00101016019
:102560002068016841F4004101602068016821F49D
:102570000041016000F00EFD4D4A6168914201D8B2
:102580004C4900E04C49884201D2012070BD4B49C2
:102590002368B0FBF1F15E6826F03F060E435E60F3
:1025A0006368934206D94FF4967359434FF47A7394
:1025B000B1FBF3F12368491C1E6A26F03F06314344
:1025C00019626168914210D84900401EB0FBF1F2D7
:1025D000521CC2F30B02042A01D2042022E0B0FBF9
:1025E000F1F0401CC0F30B001CE0A268F2B301EB59
:1025F000C10303EB0116431EB3FBF6F35B1C43F46C
:1026000080431B0549D092B301EBC10202EB0111DB
:10261000401EB0FBF1F0401CC0F30B0040F48040C2
:1026200040F400402168CA694CF6FF739A43104396
:10263000C861D4E9071001432068026822F0C00293
:1026400011430160D4E9030101432068826848F224
:10265000FF339A4311438160D4E90501084321689F
:10266000CA6822F0FF021043C86001E00EE016E0E5
:102670002068016841F0010101602564202084F890
:102680003D00256384F83E50002070BD01EB4106FB
:10269000431EB3FBF6F35B1CB3E70120C2E701EB7B
:1026A0004101401EB0FBF1F0401CC0F30B00B7E746
:1026B000A086010080841E0000093D0040420F00FA
:1026C0002DE9FF4F81B089460446FFF72FFF0546ED
:1026D00094F83D004FF0000820287DD119230122F5
:1026E00050492046009501F0FBF8002874D194F879
:1026F0003C00012870D0012084F83C00206801686B
:10270000C90703D1016841F0010101602068016837
:1027100021F400610160242084F83D000026266435
:102720004148E0624FF0011B20272068016841F416
:10273000807101600095002259462046049B01F0FB
:10274000CFF850B120680068C00502D54FF4007082
:102750002064032005B0BDE8F08F216809F0FE0079
:102760000861FFF7E3FE2168054648694969C0F33F
:102770004000C1F380214FF0A00A0FE0FFF7D6FE22
:10278000411B0498814200D808B984F83DA0216813
:1027900048694969C0F34000C1F3802194F83D20A5
:1027A000A02A02D008B90029E8D084F83D7020683A
:1027B0004169C943890716D4016841F40071016079
:1027C0002068416980691923012216492046009535
:1027D00001F086F8B8B900E021E084F83D7084F893
:1027E0003C600020B6E7016841F400710160216897
:1027F0006FF480604861192301220A492046009540
:1028000001F06EF808B10120A4E7039808F101086F
:1028100080458AD384F83D7084F83C60F3E7022059
:1028200098E70000020010000000FFFF2DE9FF4FB5
:1028300083B00025DDE910799A4693460446DDF819
:1028400048800095FFF772FE064694F83D00202868
:102850007CD11923012288492046009601F040F8D6
:102860000028F5D194F83C0001286FD0012084F8AD
:102870003C0020680168C90703D1016841F00101EB
:1028800001602068016821F400610160222084F861
:102890003D00402084F83E0025646762A4F82A9039
:1028A000608D20857548E062CDE9008653465A4622
:1028B0002046049900F016FF00287CD1208DDFF817
:1028C000C091202768B1012814D00228206801682F
:1028D0001ED041F4806101602068416980690090E8
:1028E000BCE02068416981690091016841F4007190
:1028F0000160B3E02068016821F48061016072B674
:102900002068416981690091016841F400710AE021
:1029100041F40061016072B62068416981690091EB
:10292000016821F48061016062B697E0032865D8F0
:1029300001280CD0022843464FF0000249462046A9
:1029400000960BD000F0CCFFA8BB0CE091E0324623
:102950004146204601F06AF868BB72E000F0C0FF13
:1029600048BB72B633E02068016821F480610160E1
:1029700072B620680069616A0870606A401C606213
:10298000208D401E2085608D401E60853D4846F2AA
:10299000A8110068B0FBF1F0C0EBC00000EB8000B4
:1029A0000090401E009007D020684069C043400757
:1029B0000DD50098F5E727E044F8305F6773A573FD
:1029C000206940F02000206162B625731CE0206879
:1029D000016841F40071016020680069616A087053
:1029E000606A401C6062218D491E2185618D491EEF
:1029F000618562B621680969017026E03246414668
:102A0000204601F013F818B1012007B0BDE8F08F9F
:102A100020680069616A0870606A401C6062208DED
:102A2000401E81B22185608D401E6085206842690C
:102A3000D243520712D4032903D1016821F48061E3
:102A4000016020680069616A0870606A401C606209
:102A5000208D401E2085608D401E6085208D0028C1
:102A60007FF464AF84F83D7084F83E5084F83C50A5
:102A7000CBE70220C9E70000020010000000FFFFC2
:102A800004000100200000202DE9FF4F83B09A468A
:102A9000DDE9119793460446DDF84080FFF746FDD7
:102AA000054694F83D0020287FD119230122404992
:102AB0002046009500F014FF002876D194F83C00E1
:102AC000012872D0012084F83C0020680168C90701
:102AD00003D1016841F0010101602068016821F41F
:102AE00000610160212084F83D00402084F83E0010
:102AF00000262664C4F82480A4F82A90608D2085DE
:102B00002C48E062CDE9007553465A4620460499A8
:102B100000F066FE70B930E02A463946204600F0E3
:102B2000BDFF58B1206C042804D12068016841F42D
:102B300000710160012007B0BDE8F08F606A216874
:102B400000780861606A401C6062218D491E89B26C
:102B50002185628D521E628522685369DB435B07C3
:102B60000BD469B100781061606A401C6062208DEE
:102B7000401E2085608D401E6085208D0028CBD1B1
:102B80002A463946204600F07FFE0028CAD154F874
:102B90003D0B016841F400710160202004F81E091A
:102BA000E67766770020C6E7FFE70220C3E700006C
:102BB000020010000000FFFF10B586B00021009158
:102BC00001910291039100681349884222D1134C6C
:102BD000A06940F00800A061A069694600F0080003
:102BE00004904FF440700090122001900320039055
:102BF0000B48FFF7A5FB0B48416841F0E06141F04D
:102C000002014160E06940F40010E061E06900F415
:102C10000010049006B010BD0054004000100240A7
:102C2000000C01400000014070B5040013D0216881
:102C30004CF6CC400860216845F255500860D4E954
:102C4000000141602168A0688860FFF76FFC0546BD
:102C500041F23C360DE0012070BD00BFFFF766FC7D
:102C6000401BB04205D92068C068800701D003200E
:102C700070BD2068C0688007F0D121684AF6AA209C
:102C80000860002070BD00684AF6AA21016000209B
:102C900070470000024881680278114481607047E3
:102CA00014000020074810B5016841F010010160D0
:102CB000032000F0A7F80F2000F006F800F050F80D
:102CC000002010BD0020024030B50546204887B0E6
:102CD000C16941F00101C161C06906A900F00100AC
:102CE000009001A800F036F90498B8B100F052F94C
:102CF000400018494FF08042B0FBF1F11648491EE0
:102D00000260416040F2E7320021C0E903218160A6
:102D1000816100F017FB040003D015E000F03AF9E0
:102D2000E7E70D4800F03CFB04000DD11C2000F04B
:102D30003BF8102D07D2002229461C2000F042F853
:102D40000648056000E0012407B0204630BD0000C1
:102D50000010024040420F003801002018000020FF
:102D60000F4808B5816941F001018161816901F075
:102D700001010091C16941F08051C161C069002227
:102D800000F0805000900F21901E00F01BF80548C5
:102D9000416821F0E06141F00071416008BD000030
:102DA0000010024000000140002809DB00F01F0273
:102DB000012191404009800000F1E020C0F800119D
:102DC00070470000F0B40E4B1B680C46C3F302239F
:102DD000C3F10705042D00D90425191D072901D2C7
:102DE000002300E0DB1E012606FA05F1491E214002
:102DF00099409E40761E16403143F0BC01F088B8E1
:102E00000CED00E0064900F0070208684FF6FF03EA
:102E1000184040EA0220034A10430860704700004F
:102E20000CED00E00000FA052DE9F0470F46050023
:102E300061D0434E306800F00700B84209D23068D4
:102E400020F0070038433060306800F00700B842D7
:102E500051D128683B4C810712D5400703D56068E3
:102E600040F4E06060602878000703D5606840F4B3
:102E7000605060606068A96820F0F00008436060FE
:102E80002878C00728D06868012810D02168022857
:102E900010D0890700292EDA616821F0030101436F
:102EA0006160FFF743FB804641F288390DE02168FD
:102EB0008903EFE78901EDE7FFF738FBA0EB080195
:102EC000494502D90320BDE8F0876068696800F0D1
:102ED0000C00B0EB810FEFD1306800F00700B84272
:102EE0000BD9306820F0070038433060306800F0BC
:102EF0000700B84201D00120E5E72878400705D552
:102F00006068E96820F4E0600843606028780007A2
:102F100006D56068296920F4605040EAC10060600D
:102F200000F058F86168084AC1F30311515CC840C9
:102F30000649086006480068FFF7C6FE0020C2E7A1
:102F40000020024000100240504B000820000020EA
:102F5000180000200F2202600C4A536803F003039C
:102F60004360536803F0F0038360536803F4E06345
:102F7000C36052684FF4E06303EAD202026104487E
:102F8000006800F007000860704700000010024071
:102F9000002002400448054900684968044AC1F31A
:102FA0000221515CC8407047200000200010024000
:102FB000604B00080448054900684968044AC1F3A9
:102FC000C221515CC8407047200000200010024020
:102FD000604B00080E4A51680E4801F00C03042BA8
:102FE00011D0082B0FD10C48C1F38343C903C05C37
:102FF0000AD55168084AC1F34041921E515C054A06
:103000005043B0FBF1F0704704494843704700005B
:103010000010024000127A00404B000800093D00F9
:103020002DE9F84F040070D02078C04DC00749D07A
:103030006868C0F38100012807D06868C0F3810088
:10304000022809D16868C00306D52868800339D5ED
:1030500060680028E7D035E06068B0F5803F0BD0AD
:1030600010B1B0F5A02F11D0286820F4803028606E
:10307000286820F4802002E0286840F4803028602E
:10308000606890B1FFF752FA06460AE0286840F4FB
:1030900080202860F0E700BFFFF748FA801B642813
:1030A00073D828688003F7D50CE0FFF73FFA06468F
:1030B00005E000BFFFF73AFA801B6428F0D82868C3
:1030C0008003F7D420789A4E80074FF001094FF023
:1030D000000839D5686810F00C0F07D06868C0F395
:1030E0008100022809D16868C00306D428688007D7
:1030F00014D52069012808D110E02069B0B1C6F8C4
:103100000090FFF713FA074605E00AE1FFF70EFA11
:10311000C01B0228C4D828688007F7D528686169D1
:1031200020F0F80040EAC10028600DE0C6F80080F9
:10313000FFF7FCF9074604E0FFF7F8F9C01B022887
:1031400023D828688007F7D4207800072CD5794841
:10315000A169D9B1C0F80090FFF7E8F9074604E08B
:10316000FFF7E4F9C01B02280FD8686A8007F7D57B
:1031700071484FF4FA510068B0FBF1F0009000BFC5
:103180000098411E0091FAD20EE080E0C0F8008065
:10319000FFF7CCF9074604E0FFF7C8F9C01B022887
:1031A00075D8686A8007F7D42078400760D5E86949
:1031B0000027C00008D4E86940F08050E861E86961
:1031C000012700F0805000905C480168C90513D4C5
:1031D0000168834641F480710160FFF7A7F98246D8
:1031E00006E000BFFFF7A2F9A0EB0A0064284ED862
:1031F000DBF80000C005F5D5E06801280AD008B169
:10320000052813D0286A20F001002862286A20F0DF
:10321000040002E0286A40F001002862E06841F200
:10322000883B98B1FFF782F982460BE0286A40F0AC
:1032300004002862EEE700BFFFF778F9A0EB0A016F
:1032400059455AD8286A8007F6D50CE0FFF76EF981
:10325000824605E0FFF76AF9A0EB0A0159454CD810
:10326000286A8007F6D41FB1E86920F08050E86131
:10327000E06988B36968C1F38101022944D002285A
:10328000C6F8608004D0FFF751F9044638E034E016
:10329000FFF74CF9074604E0FFF748F9C01B022886
:1032A0002BD828688001F7D4206AB0F5803F05D17B
:1032B0006868A16820F4003008436860D4E9080118
:1032C0000843696821F4741108436860C6F8609087
:1032D000FFF72CF9044606E025E000BFFFF726F9CA
:1032E000001B022809D828688001F7D51BE000BF21
:1032F000FFF71CF9001B022802D90320BDE8F88F54
:1033000028688001F4D40EE00128F7D06868226AAA
:1033100000F48031914204D1616A00F47010884257
:1033200001D00120EAE70020E8E700000010024099
:103330000000424280044242200000200070004011
:103340007047704710B5040003D094F83D0010B1E9
:1033500007E0012010BD002084F83C00204600F06A
:103360001EF8022084F83D00211D206800F0C2FCF8
:10337000012084F8460084F83E0084F83F0084F879
:10338000400084F8410084F8420084F8430084F847
:10339000440084F8450084F83D00002010BD7047CB
:1033A00090F83D10012901D001207047022180F8DA
:1033B0003D100168CA6842F00102CA6000680B490A
:1033C000884208D0B0F1804F05D00949884202D028
:1033D0000849884204D1816801F00701062903D019
:1033E000016841F00101016000207047002C01409C
:1033F000000400400008004070472DE9F0410446F9
:103400000068C66805694FF00007A90713D5B10722
:1034100011D5F91E0161012020772068806980079D
:10342000204602D0FFF7E8FF04E000F07EF82046D7
:1034300000F07CF82777680716D5700714D5216847
:103440006FF004000861022020772068806910F482
:10345000407F204602D0FFF7CFFF04E000F065F880
:10346000204600F063F82777280715D5300713D5D5
:1034700021686FF008000861042020772068C06987
:103480008007204602D0FFF7B7FF04E000F04DF8B8
:10349000204600F04BF82777E80616D5F00614D53D
:1034A00021686FF010000861082020772068C0694B
:1034B00010F4407F204602D0FFF79EFF04E000F0AA
:1034C00034F8204600F032F82777E80708D0F007F4
:1034D00006D021686FF001000861204600F027F84F
:1034E000280608D5300606D521686FF080000861EF
:1034F0002046FFF725FF680608D5700606D5216827
:103500006FF040000861204600F018F8A8060AD5C0
:10351000B00608D521686FF0200008612046BDE89C
:10352000F041FFF70EBFBDE8F081704770470068BB
:10353000B0F1804F01D1FFF7ADBB7047704770B558
:10354000040004D094F84100002510B106E00120E9
:1035500070BD84F84050204600F024F8242084F800
:1035600041002068C16821F40051C160204600F08C
:1035700025FC2068016921F49041016120684169BE
:1035800021F02A0141612068C16841F40051C16005
:103590006564202084F8410084F8420065630020BF
:1035A00070BD000030B585B00024009401940294F1
:1035B000039400681449884224D11448816941F475
:1035C00080418161816901F480410491816941F008
:1035D0000401816180690E4D00F0040004904FF4F5
:1035E0000070009002200190032003906946284655
:1035F000FEF7A6FE2815CDE9000469462846029488
:10360000FEF79EFE05B030BD0038014000100240BC
:10361000000801402DE9F843044690F8410098461F
:1036200016460D46202802D00220BDE8F88385B159
:103630007EB100206064212084F84100FEF776FF0F
:10364000A6848146E684A0682027B0F5805F02D07A
:1036500003E00120E9E7206910B12E4600250EE0C5
:1036600000260CE08021204600F004FCA8B9C6B179
:1036700016F8010B21684860E08C401EE084E08C65
:103680004B464FF00002CDF800800028EAD14FF001
:103690004001204600F0EEFB40B184F84170032069
:1036A000C3E735F8020BC0F30800E3E784F8417084
:1036B0000020BAE7FEE701684A69D24352050FD4F9
:1036C0006FF480624A61002140F8301F202242736B
:1036D0008173026942F004020261017301207047A4
:1036E000002070472DE9F84F0446006889460B9D7D
:1036F00001689846174641F48061016020680168BE
:1037000041F48071016000954FF0011B0022594681
:1037100020460A9B00F0E4F84FF4007A40B120689C
:103720000068C00501D5C4F840A00320BDE8F88FAB
:10373000216809F0FE0008612B46284920460A9AB4
:1037400000F016F9F0BB20684169806900902A46B4
:1037500020460A9900F0A2F940B1206C04283AD121
:103760002068016841F40071016034E0FEB2B8F1F4
:10377000010F09D02168380A08612A4620460A99B3
:1037800000F08CF90028E8D1206806612A4620461E
:103790000A9900F083F90028DFD12068016841F41C
:1037A0008071016000950022594620460A9B00F076
:1037B00097F80028B3D1216809F0FF0040F001001C
:1037C000086100E007E02B46044920460A9A00F011
:1037D000CFF80028AAD00120A8E7000002000100CD
:1037E0002DE9F843044600680D46DDE908970168B5
:1037F0009846164641F4807101604B4600224FF016
:1038000001112046009700F06BF848B1206800686D
:10381000C00502D54FF4007020640320BDE8F88392
:10382000216805F0FE0008613B464A4615492046DE
:1038300000F09EF888B920684169806900903A4696
:103840004946204600F02AF948B1206C042804D1EA
:103850002068016841F4007101600120DEE7F5B2E3
:10386000B8F1010F09D02168300A08613A4649468B
:10387000204600F013F90028E7D1206805610020F8
:10388000CCE700000200010070B516460D46044664
:103890001EE02046FFF70FFF08B1012070BD681C35
:1038A00016D0FEF743FE801BA84200D885B92068D9
:1038B0004069C04340070BD5002044F8300F202159
:1038C0006173A073216941F0200121612073E4E755
:1038D00020684069C0434007DBD4002070BD000071
:1038E0002DE9F047984617460D460446C1F30746B2
:1038F000DDF820902AE000BFB8F1FF3F26D0FEF7A8
:1039000015FEA0EB0901414502D8B8F1000F1DD109
:103910002068012E16D0806925EA00000004000C02
:1039200012D00020B84211D1002044F8300F2021DD
:103930006173A073216941F020012161207301208E
:10394000BDE8F0874069E7E70120EBE72068012E3A
:103950000AD0806925EA00000004000C06D000208F
:10396000B842C9D00020EBE74069F3E70120F7E750
:103970002DE9F047984616460D4604464FF00009DB
:103980004FF0200AC1F3074723E020684069C04395
:10399000400515D42068016841F400710160216878
:1039A0006FF480604861C4F8309084F83DA084F8DA
:1039B0003E90216C41F00401216484F83C9021E0A8
:1039C000701C06D0FEF7B2FDA0EB0800B04203D891
:1039D00016B1012F1FD021E02068012F15D080697A
:1039E00025EA00000004000C18D000BF44F8309F06
:1039F00084F80DA084F80E90216941F02001216126
:103A000084F80C900120BDE8F087406925EA0000A9
:103A10000004000CEAD12068406901E02068806958
:103A200025EA00000004000CAFD1ECE72DE9F041DD
:103A3000002590460E460446202728E04069C043F2
:103A4000C0060CD454F8301B6FF01000486144F8E5
:103A500010596777A577206A2062257714E0FEF772
:103A600065FDA0EB0800B04200D886B92068406927
:103A7000C04340060BD544F8305F6773A5732069D7
:103A800040F02000206125730120BDE8F08120680E
:103A90004169C9434906D1D40020F6E770B51646FE
:103AA0000D4604461EE02046FFF705FE08B1012042
:103AB00070BD681C16D0FEF739FD801BA84200D8E7
:103AC00085B920684069C04300060BD5002044F842
:103AD000300F20216173A073216941F02001216121
:103AE0002073E4E720684069C0430006DBD400206F
:103AF00070BD0000154810B51349016009214160EF
:103B000000214FF480228160C0E9031292004261DB
:103B10000176012242768176C27601774177FEF7FF
:103B2000FEFA08B1FEF7E5F9FEF748F908B1FEF72D
:103B3000E0F90648FEF7C6FB002803D0BDE81040B8
:103B4000FEF7D7B910BD00000064004068000020F7
:103B500070B586B000241848009401940294039430
:103B6000816941F020018161816901F020010491A6
:103B7000816941F004018161816901F004010491CE
:103B8000816941F00801816180690C4E00F00800F4
:103B90004FF401450490002229463046FEF7C0FC50
:103BA00001200095CDE901040220039069463046CA
:103BB000FEF7C6FB06B070BD0010024000080140D1
:103BC0000D4810B50B4901600C49416000214FF4CC
:103BD00080428160C0E9031241618161C16101627B
:103BE000FEF7AAFC002803D0BDE81040FEF781B91B
:103BF00010BD00000054004090000020A08601008D
:103C0000094810B5074901600621416040F6FF717F
:103C10008160FFF709F8002803D0BDE81040FEF7E7
:103C200068B910BD00300040E40000200C4810B519
:103C30000A4901604FF4E1314160002181600C22AA
:103C4000C160C0E904128161C161FFF778FC0028FE
:103C500003D0BDE81040FEF74CB910BD003801405C
:103C6000F0000020FEE7FEE710B54FF0E02000690D
:103C700000F0A2FB012803D0BDE8104000F086BB95
:103C800010BD30B58FB028216846FCF76FFC1421B9
:103C90000AA8FCF76BFC0920012100904FF480304A
:103CA000002404910691CDE901040225CDE90750D5
:103CB0004FF4E01009906846FFF7B2F908B172B608
:103CC000FEE70F20CDE90A054FF48060CDE90C40F6
:103CD00002210AA80E94FFF7A7F8002801D072B6B7
:103CE000FEE70FB030BD70470148FFF786BB00000C
:103CF00038010020F0B50268194B1A4C1A4D4FF0EC
:103D00008047984205D0B84203D0A04201D0A842D3
:103D100003D122F070064A683243984205D0B84277
:103D200003D0A04201D0A84203D122F44074CA6853
:103D300022434C6922F08002224302608A68C262F8
:103D40000A688262984201D10969016301214161D7
:103D50000169C90703D0016921F001010161F0BDCA
:103D6000002C0140000400400008004001680C31B4
:103D700051E8002F22F4907241E80023002BF5D186
:103D80000168143151E8002F22F0010241E80023BC
:103D9000002BF5D1016B012909D101680C3151E8E3
:103DA000002F22F0100241E80023002BF5D1202142
:103DB00080F84210002101637047000070B504468E
:103DC00000680169E26821F44051114301612169F1
:103DD000A0680843616908432168CA6841F20C631E
:103DE0009A430243CA6020684169A26921F4407184
:103DF000114341611E492068884202D1FFF7DAF879
:103E000001E0FFF7C7F800EBC00101EB00126068AA
:103E100064218000B2FBF0F3B3FBF1F36FF01806FE
:103E20007343B2FBF0F5B2FBF0F605EB83053223EA
:103E300003EB0515B5FBF1F5B6FBF1F605F0F00562
:103E400005EB0615B2FBF0F6B2FBF0F0B0FBF1F0BB
:103E50006FF01802504306EB800003EB0010B0FB3C
:103E6000F1F0216800F00F002844886070BD000068
:103E7000003801402DE9F843984617460D460446A0
:103E8000089E24E0701C22D0FEF750FBA0EB080037
:103E9000B0421AD8CEB12068C168490717D5802D25
:103EA00015D0402D13D00168C94309070FD401680C
:103EB0000025406800902046FFF758FF0820606406
:103EC00084F840500120BDE8F8830320FBE7206818
:103ED000006835EA000004D00020B842D2D00020AB
:103EE000F1E70120F9E7FEE7490050EAC12018BFD9
:103EF00004204A0D18BF40F0010040F2FF72B2EBFF
:103F0000515F08BF40F00200012808BF052070473C
:103F10000907090E002804DB00F1E02080F80014F6
:103F2000704700F00F0000F1E02080F8141D70478A
:103F300000214FF07E5000F061BB012100F0C1BDB7
:103F40000021084600F05ABB30380A2801D201206F
:103F500070470020704770477CB505464FF0000061
:103F60000C008DF800008DF804000AD06946284640
:103F700000F012F828B96D1CE8B201A900F00CF8A5
:103F800008B101207CBD9DF804009DF8001040EAB6
:103F90000120208000207CBD0A4601460820FDF754
:103FA00043BF0A4601460820FDF76ABF2DE9F043EA
:103FB00087B09946DDE90E6817460C460546082E7F
:103FC0001CD81C48FEF799F8022803D0032007B03C
:103FD000BDE8F08318216846FCF7C8FACDE902472E
:103FE00004966CB125F0604001900020069006AB6D
:103FF0004A4669460F48FDF7A1FF28B10120E6E7D0
:10400000C5F30A000090F0E7FEF790FA04460AE0D4
:10401000FEF78CFA011B414505D306480699FDF7CA
:104020006AFF0220D3E703480699FEF705F9002846
:10403000EED1CCE7680000203FB5014681B04900D1
:104040001D4614468DF80010002007230122694602
:10405000FDF735FF0723012202A9FDF730FF0723F3
:104060002A462146FDF72BFF05B030BD13B50648A3
:10407000007830B14FF4FA73012269460348FFF724
:10408000C9FA00981CBD00000C000020F0000020C0
:104090002DE9F0410026A0F50001B1F1FE4F7DD2DF
:1040A00000F500226FF07E0101EBE251C2F30254F1
:1040B00077184FF07E52A0EBC15602EB045557EA39
:1040C000040047D02946304600F030FA80462946A1
:1040D000304600F04DFC414600F090FA054601469E
:1040E00000F07AFB8046454900F076FB444900F039
:1040F0001DFA06464146284600F06EFB314600F0A8
:104100006BFB0646384600F03BFB07463D4900F096
:1041100063FB3D49794451F8241000F007FA314619
:1041200000F004FA06460121284600F0CAFC314698
:1041300000F0FCF905463846344900F04DFB34499F
:10414000794451F8241000F0F1F92946BDE8F04116
:1041500000F0ECB94FF07E51304600F009FC054606
:104160002C4900F039FB2C4900F0E0F9294600F019
:1041700033FB2A4900F0DAF9294600F02DFB6FF0F5
:10418000824100F0D3F904462946084600F024FB9A
:10419000214600F021FB0146284600E003E0BDE88F
:1041A000F04100F0C3B94FF07F42B2EB400F03D2B1
:1041B000BDE8F041FFF7C1BEB0F1FF4F08BFBDE859
:1041C000F081B0F1004F06D90120FCF7FFF9BDE8FE
:1041D000F041FFF7B5BE30F0004105D06FF0160694
:1041E000172100F06EFC5BE70220FCF7EFF9FFF708
:1041F0009FFE80F00040BDE8F081000066F1CC3EFB
:10420000AAAA2A3FF4FD0538AC0A00000070313F2D
:10421000600A000021ED423E0A1180BEC1ABAA3EF9
:1042200008B5FEF73FFDFFF72CFDFFF791FCFFF708
:1042300061FCFFF7C5FCFFF7E3FCFFF7F7FC13A0F9
:10424000FCF722F8FDF7C0FB002440F2231512A072
:104250000A23006800908DF8004003226946284632
:10426000FDF7CAFD014622460CA0FCF70DF81548E3
:10427000FEF709FD6420FEF751F8641CE4B20A2C35
:10428000E5D300BFFDF7F4FBFCE700005374617257
:10429000742E2E2E0D0A000000AA550043414E5FD9
:1042A0005458207374643D307831323320646C6329
:1042B0003D33207265743D257520636E743D257510
:1042C0000D0A0000E40000200648416B096829B18E
:1042D000416BC968C9684968816270474FF0FF3116
:1042E000FAE7000024000020D0E9013201699A6059
:1042F000D0E901235A604A68824201D182684A604B
:10430000002202610868401E086008687047426821
:104310004A6093688B609368596091600861016896
:10432000491C016070470000164810B5016B11B1BF
:104330000121C16110BD0021C1610169124A01E082
:10434000B9B1491E01EB810352F82330002BF7D09D
:1043500001EB810302EB830202F1080453685B68FE
:104360005360A34201D15B685360DA680260016167
:1043700010BD502080F31188BFF34F8FBFF36F8FB4
:10438000FEE70000240000208001002010B550202E
:1043900080F31188BFF34F8FBFF36F8F00F01AF8CF
:1043A00018B104494FF080500860002080F3118854
:1043B00010BD000004ED00E00548416919B1006B33
:1043C00018B100207047012070470220704700009C
:1043D000240000202DE9F0412E4C0027206B28B14D
:1043E000A069401CA0613846BDE8F081E668761CF3
:1043F000E66013D1606B006838B1502080F31188FB
:10440000BFF34F8FBFF36F8FFEE7606BA16B6163EC
:10441000A063206A401C2062FFF756FFA06ADFF805
:104420007880864209D3606B0068A0B1606BC06879
:10443000C5686868864211D2A0622068C06A00EB35
:10444000800158F82100012800D90127E0690028DF
:10445000C9D00127C7E74FF0FF30EDE7281DFFF770
:1044600043FFA86A18B105F11800FFF73DFFE86A9D
:104470002169884200D9206100EB800108EB8100AE
:10448000291DFFF744FFE86A2168C96A8842CAD338
:104490000127C8E7240000208001002010B5002972
:1044A0000AD00878002807D005487844FCF75CFC5F
:1044B000002801D0002010BD0248784410BD000043
:1044C0005A090000520900000808A0F500114FEA3F
:1044D0003101704743004FEAD30C4FEA3C0C434094
:1044E0001FBF40070CF1605113F0FE4F70471CF0E6
:1044F000006F03D100200CF0004170470CF0004326
:1045000043EA507010B540EACC0000F0E6F900BF75
:10451000000000924FEA0001FFF7D6BF4FF00041C4
:104520004FF00000A1F500217047000090EA010F54
:1045300048BF81F0004100F12282421A3CBF801A3C
:1045400089184FEAD0524FF07F4C1CEA410FA2EB82
:10455000D15318BF9CEA026F00F03B804FF0004C33
:104560004CEA00204CEA012121FA03FC10EB0C0C70
:104570001ED202F1FF325FEA1C2040EBC25038BF6E
:1045800070471CF07F0F4FEA400C18BFBCF17F4F03
:1045900038BF7047C3F12003994008BF20F00100E5
:1045A000BCF17F4F38BF7047A0F1C04000F0DBB9CD
:1045B0004FEA3C00000A40EBC25028BF1CF0FF0F3E
:1045C0004FEA400CE6D018BFBCF17F4F38BF7047B0
:1045D000EAE79CEA026F05D010EA5C0F08BF00F022
:1045E0000040704710B500F078F900BF64FBBE3E94
:1045F000014800F034BA00BF0000C07F4FF47F0CC8
:104600001CEAD0121EBF1CEAD11392EA0C0F93EAE7
:104610000C0F00F0858090EA010F48BF42F48072D1
:1046200040F4000C41F400002CF07F4120F07F406A
:1046300000B58142A2EB03020FF2081CACEB504E16
:10464000C0F100009EF800E04FEA4E0E00FB0EFCA9
:1046500038BF49004FEA2C1C02F5FA020CFB0EF39E
:104660004FEACE1E4FEA112C4FEAC1210EEB635EDA
:1046700042EB22420EFB0CFC4FEA1C5300FB0311E1
:104680004FEA112C4FEA01310EFB0CFC4FEADC4CD7
:1046900000FB0C11C14228BF09184CEB03335DF835
:1046A00004EB10EB410143EBC250B2F57C0F38BF75
:1046B000704729D512F0F00F1CBF00F1C04000F088
:1046C00000407047008182838485868788898B8C2F
:1046D0008D8E8F919293959697999A9C9D9FA0A26B
:1046E000A3A5A7A8AAACAEB0B2B3B5B7B9BCBEC0BB
:1046F000C2C5C7C9CCCED1D4D7D9DCDFE2E6E9EC5C
:10470000F0F3F7FAFE0000004FEA400C0CF1807C59
:10471000BCF17E4F28BF7047B0F1C04000F023B914
:1047200090EA010F0CEAD11348BF42F4807262454F
:1047300038BF634507D213F47F0F16D080EA01001B
:1047400000F00040704710B500F0C7F8097EFC3E4D
:1047500000F005B880EA010000F00040704780EAF0
:10476000010000F0004000F0FEB812F47F0F04BF1B
:104770000248704780EA010000F0F5B80000C07FF1
:1047800010F0004148BF4042B0FA80F310FA03F243
:10479000C3F19D030BD051EAC35101EB1220530624
:1047A00038BF704700F1010008BF20F001007047DA
:1047B000B0FA80F310FA03F2C3F19D030AD0D905D1
:1047C00001EB1220530638BF704700F1010008BF0B
:1047D00020F00100704700004FF47F0C1CEAD0125B
:1047E0001EBF1CEAD11392EA0C0F93EA0C0F00F0E3
:1047F000478090EA010F48BF42F480724FF0004CAE
:104800004CEA00204CEA012102EB0302A0FB011359
:10481000A2F50002002918BF43F001035B0028BF86
:104820004FEA330342EB22425FEA132C4CEBC250B7
:104830002EBFBCEB436FB2F57C0F70474FEA036CA1
:10484000BCF1004F08BF20F00100B2F57C0F38BF6B
:1048500070470BD582F0FF0212F5803FC8BF70474A
:1048600000F1C040D8BF00F00040704700F5000CD8
:104870005FEA4C0C48BF7047B0F1C04000F073B81D
:1048800090EA010F0CEAD11348BF42F480726245EE
:1048900038BF634504D280EA010000F00040704751
:1048A00010B500F01AF800BF8900013E00F007B80B
:1048B00000F009B85FEA410C5FEA1C6C08D080EA9E
:1048C000010000F050B85FEA400C5FEA1C6CF6D1C2
:1048D0004FF00040A0F5800070470EF1020E2EF060
:1048E000030E5EF8044B244204D44FEA4102B2F1B5
:1048F0007F4F11D84FEA4003B3F17F4F0CD80ED150
:104900004FEAD07CB2F17F4F0CEB4C0C0CF1020C57
:1049100008BF4CEBD17C04E04FF0080C01E04FEAFB
:10492000D17C0CEB4C0324FA03F404F00704B4F13B
:10493000040C06D20EEB840CBDE810404CF0010CC8
:104940006047DFE80CF0070802024FF00040A0F5D6
:10495000800010BD0846420018BFD2F1807288BFA7
:1049600000F0004010BDFF2141EAD050C005704763
:1049700090EA010F48BF81F000413FF5DEAD421AD9
:1049800004D882F00042A0EB020011444FEAD0525A
:104990004FF07F4C1CEA410FA2EBD15318BF9CEAA9
:1049A000026F4AD04FF0004C4CEA00204CEA012143
:1049B00021FA03FCB0EB0C0C0FD412F0FE0F36D032
:1049C0005FEA4C001DD5001240EBC25038BF704763
:1049D0001CF03F0F18BF70470BE0A2F101025FEA25
:1049E0001C2040EBC25038BF70471CF07F0F18BF2F
:1049F0007047C3F12003994014BF401E20F001000E
:104A0000704780084FEA122308BF7047B0FA80FC55
:104A1000A2EB0C02CCF1280C60FA0CF093EA122FF6
:104A200004BF00EBC25070474FEAC3707047130ACF
:104A30005FEADC1008BF7047F6E79CEA026F04D01B
:104A400010EA5C0F08BF0020704710B5FFF745FF64
:104A500040DFF63E81F000407047FBF7EFBE0CF000
:104A60000F03092B08BF082000F051800A2B0BD040
:104A7000082B18BF704708BF1CF0400F0AD04FF03A
:104A800000004FF0000170471CF0400F18BF4FF0BE
:104A9000004070471CF0100F08D020F0704300F069
:104AA0007F4242EAD3014FEA4370704700F0604012
:104AB00021F07F4242EA000201F07F4040EA72703A
:104AC00070474FF0FF0212EAD0521CBF92F0FF0372
:104AD0008B42C2BFD14200EBC1507047002A0AD0BE
:104AE000002B0BD0002900F00040A4BF40F0FE4096
:104AF00040F40000704700F00040704743024FF060
:104B00000B0C18BF4CF0806C7FF472AD70471CF436
:104B1000801F11D01CF4E02F03D06FEACC31490084
:104B200070474FF04050EFF3008222F0704242EAAB
:104B3000000282F3008870474FF0000070470102C6
:104B400002030405060708090A0B0C0D0E0F1010CE
:104B5000000000000000000001020304060708092D
:104B6000000000000102030430313233343536379F
:104B700038394142434445464030580030313233A1
:104B800034353637383961626364656640307800A1
:104B90000400000800000000000000020001000006
:104BA00010000000000000000030F13D0070643E85
:104BB0000000A33E0090CF3E0090F83E00400F3F23
:104BC00000E0203F0000000015B78337CDE37B38BD
:104BD0000EE1C53860F69138AF5F0F38E1BC3E3862
:104BE00023F4473902400000000000A0000000004C
:104BF00005400000000000C8000000000C4000005C
:104C00000000409C00000000194000000020BCBED5
:104C10000000000034400000BFC91B8E00000004EB
:104C2000B5400000504BCFD06607E2CF0100000036
:104C30006C4100003E8251AADFEEA7340100000063
:104C4000D9420000DCB5A0E23A301F97FFFFFFFF1A
:104C5000B4450000FD25A0C8E9A3C14FFFFFFFFF39
:104C6000FF3F00000000008000000000FF3F000048
:104C7000000000800000000042515F444941473A73
:104C80005359535F4354524C31284144435F454E7E
:104C90003D25752054454D505F53454C3D257520AD
:104CA000534855545F413D257520534855545F4244
:104CB0003D257529205359535F4354524C322843A4
:104CC000435F454E3D2575204348475F4F4E3D2588
:104CD00075204453475F4F4E3D2575290D0A00004E
:104CE00063313D252E3366562C63323D252E3366C7
:104CF000562C63333D252E3366562C63343D252ECA
:104D00003366562C63353D252E3366562C63363D6F
:104D1000252E3366562C63373D252E3366562C637D
:104D2000383D252E3366562C63393D252E33665685
:104D30002C6331303D252E3366562C6331313D25B1
:104D40002E3366562C6331323D252E3366562C6346
:104D500031333D252E3366562C6331343D252E33B9
:104D600066562C6331353D252E3366560D0A0000FC
:104D700042515F444941473A4144434741494E31DA
:104D800028307825303258293D2575204144434745
:104D900041494E3228307825303258293D2575203A
:104DA0004144434F464653455428307825303258C5
:104DB000293D2575205359535F4354524C312830B7
:104DC0007825303258293D2575205359535F435477
:104DD000524C3228307825303258293D25750D0A3D
:104DE00000000000204E00080000002068000000C5
:104DF00028010008884E000868000020400C0000D0
:104E0000440100081C00000043000000F8FFFFFF01
:104E10000C0000000E0000000F0000002E0000003B
:104E20000000000000000000000000000100000081
:104E30000000000001000000100000000000000061
:104E400000127A00000000000000000000000000D6
:104E50000000000000000000000000000000000052
:104E60000000000000000000000000000000000042
:104E70000000000000000000000000000000000032
:084E800000006D0100000000BC
:04000005080000ED02
:00000001FF
