:020000040800F2
:10000000980C00203D0200089B290008E923000805
:1000100099290008D50A00081B2C000800000000E0
:10002000000000000000000000000000A501000822
:10003000090B000800000000E90100089D290008E4
:10004000570200085702000857020008570200082C
:10005000570200085702000857020008570200081C
:10006000570200085702000857020008570200080C
:1000700057020008570200085702000857020008FC
:1000800057020008570200085702000857020008EC
:1000900057020008570200085702000857020008DC
:1000A00057020008570200085702000857020008CC
:1000B0001D2A0008570200085702000857020008CE
:1000C00057020008570200085702000857020008AC
:1000D000570200085702000857020008570200089C
:1000E00057020008570200085702000800F002F803
:1000F00000F048F80AA090E8000C82448344AAF17A
:100100000107DA4501D100F03DF8AFF2090EBAE877
:100110000F0013F0010F18BFFB1A43F0010318473B
:10012000D8310000F8310000103A24BF78C878C1F7
:10013000FAD8520724BF30C830C144BF04680C60ED
:10014000704700000023002400250026103A28BF35
:1001500078C1FBD8520728BF30C148BF0B60704739
:10016000642900F0E980752900F0E680782900F024
:100170004681732900F0B482002070471FB51FBD6F
:1001800010B510BD00F0E2FA1146FFF7F7FF02F0DC
:10019000B5FE00F000FB03B4FFF7F2FF03BC02F072
:1001A00054FD0000224B19680868B0E8F00F80F396
:1001B0000988BFF36F8F4FF0000080F311884EF075
:1001C0000D0E70470000000006480068006880F3CC
:1001D000088862B661B6BFF34F8FBFF36F8F00DF41
:1001E00000BF00BF08ED00E0EFF30980BFF36F8FA1
:1001F0000F4B1A6820E9F00F106008B54FF050005F
:1002000080F31188BFF34F8FBFF36F8F02F054FF5D
:100210004FF0000080F31188BDE8084019680868B5
:10022000B0E8F00F80F30988BFF36F8F704700BF0D
:1002300018000020EFF30580704700000948804750
:1002400009480047FEE7FEE7FEE7FEE7FEE7FEE7B8
:10025000FEE7FEE7FEE7FEE704480549054A064BD0
:10026000704700001B2A0008ED00000898060020D7
:10027000980C002098080020980800207047000083
:100280000FB4044910B503AA029800F02DFA10BC6F
:100290005DF814FB0400002070B504468569006811
:1002A000C10601D5302600E02026C00707D070BD6A
:1002B000D4E9012130469047206A401C20626D1E1F
:1002C000F6D570BD70B5044685690078C00707D1C2
:1002D00070BDD4E9012120209047206A401C206293
:1002E0006D1EF6D570BD70B50C460546012A05D0C9
:1002F0002878800600D5EA69002302E0012305E0A2
:100300005B1C934202D2E05C0028F9D1A869E61890
:10031000C01AA861286A184428622846FFF7BCFF63
:1003200004E0D5E9012114F8010B9047B442F8D359
:100330002846FFF7C7FF70BD2DE9F04106460024AF
:1003400010687529314616A510D0AFF3008000283B
:1003500002DA404213A507E031688A0701D512A5E9
:1003600002E0490704D511A5012401E0AFF30080A4
:1003700000210A2206F1240709E0B0FBF2FCB0FBE1
:10038000F2F302FB1C00303078541846491C002858
:10039000F3D123462A463046BDE8F04100F035B996
:1003A000000000002D0000002B00000020000000D5
:1003B000F0B40D460188090502D51B4C7C4402E0CF
:1003C000194C7C440E34002100F1240305E002F0B6
:1003D0000F061209A65D5E54491C002AF7D1027867
:1003E0000023120704D5702D06D009B10223113461
:1003F0002246F0BC00F009B901231034F8E770B5CB
:1004000004460D4621461068AFF300800246294697
:100410002046BDE87040CBE70368126843F0200334
:1004200003600823C361C3E7962E00002DE9F05F47
:10043000894604464FF0000ADFF874B1FB44C0F867
:1004400020A02046E1688847002874D0252806D0DF
:10045000D4E901219047206A401C2062F1E7002680
:100460005F462046E16888472028054607DB312D96
:1004700005D2781910F8200C08B10643F1E7B0074F
:1004800001D526F00406C4F81CA00027C4F818A063
:100490002A2D09D0284602F0D1FB38B304EB870897
:1004A000303DC8F8185019E059F8041B204604EBF9
:1004B00087029161E1688847012F054618D1E069FC
:1004C000002820DA26F020061DE0D8F8180000EBFE
:1004D000800005EB40003038C8F818002046E1687D
:1004E0008847054602F0AAFB0028EED1012F0AD06A
:1004F0002E2D08D12046E16888477F1C0546022F33
:1005000046F02006C4DBA069002803DA404246F02A
:100510000106A061F00701D026F010066C2D0BD06B
:10052000682D09D04C2D39D06A2D35D0742D35D099
:100530007A2D33D016E038E0E1682F462046884710
:10054000B842054609D16C2F26D04FF48060E1688F
:10055000064320468847054604E06C2F1AD04FF426
:10056000807006430DB3A5F14100192802D820354B
:1005700046F400664A462946204626604E46FFF766
:10058000EFFD80B101280BD0F61D26F0070000F129
:10059000080956E74020E4E78020D8E70020D6E7A6
:1005A00006F104094DE7284652E7206ABDE8F09FAE
:1005B0003E2E00004FF0000200B5134694469646CA
:1005C000203922BFA0E80C50A0E80C50B1F1200166
:1005D000BFF4F7AF090728BFA0E80C5048BF0CC014
:1005E0005DF804EB890028BF40F8042B08BF704772
:1005F00048BF20F8022B11F0804F18BF00F8012BE4
:10060000704770477047704770472DE9F0470D46B7
:1006100099469246044600F124080168880604D5EC
:10062000E06921F01001216000E00120A84201DD15
:10063000471B00E00027A1697A1902EB0900081A9C
:10064000A0612078C00602D42046FFF725FE0026D0
:1006500008E0D4E901211AF806009047206A401CFE
:10066000761C20624E45F4DB2078C0060AD5204671
:10067000FFF712FE06E0D4E9012130209047206AFE
:10068000401C2062381EA7F10107F4DC07E0D4E922
:10069000012118F805009047206A401C2062281E9E
:1006A000A5F10105F3DC2046FFF70CFE20780006DB
:1006B00002D50220BDE8F0870120FBE710B54369B1
:1006C00013B1AFF3008001E0FFF70DFE012010BD74
:1006D000127800F124010A7000224A700122EDE72D
:1006E00011684FF0FF32E9E7074B70B50D467B44C8
:1006F00000F011F80446284600F020F810B14FF041
:10070000FF3070BD204670BDE727000001694A1C1C
:1007100002610878704700B58FB0CDE90131002142
:10072000059105497944CDE9031011466846FFF764
:100730007DFE0FB000BD0000E5FFFFFF007B00F075
:100740008000704700487047380600207546FFF764
:10075000F9FFAE4605006946534620F0070085467E
:1007600018B020B5FFF778FDBDE820404FF0000637
:100770004FF000074FF000084FF0000B21F0070189
:10078000AC46ACE8C009ACE8C009ACE8C009ACE8CC
:10079000C0098D46704710B50446AFF3008020466F
:1007A000BDE81040FFF7F7BC0020014644F6736235
:1007B00022FA01F3DB0701D0401CC0B2491CC9B2C8
:1007C0000F29F5D37047000070B5364D4FF4807493
:1007D00086B000222146284600F03CFD022000F0B1
:1007E00037FC01222146284600F034FD022000F0AB
:1007F0002FFC0A2000F02CFC082000F013F910B1A7
:10080000012006B070BD284E0024B51C694650205A
:1008100002F01CFA0028F3D101A9592002F016FABF
:100820000028EDD102A9512002F010FA0028E7D1EA
:100830009DF800009DF80410C0F34110C00040EA8C
:10084000511000F26D1030809DF80800694640B2EA
:1008500028808DF800408DF80440042002F0F6F95D
:100860000028CDD101A9052002F0F0F90028C7D158
:100870009DF8000040F018019DF804008DF800106C
:1008800040F040008DF80400042002F0E4F9002854
:10089000B6D19DF80410052002F0DDF90028AFD193
:1008A000AFE70000000801405600002070B5144D6D
:1008B00000204FEA00042870FFF786FFC0B11148FE
:1008C00001F07BF8142000F0C3FB641CE4B2052C9B
:1008D000F2D3287878B10CA0FFF7D2FCFFF764FFC1
:1008E000BDE87040014644F673620CA0FFF7C8BC37
:1008F00001202870EFE7BDE8704011A0FFF7C0BCF1
:1009000000000020D8000020425137363934302012
:10091000696E6974204F4B0D0A0000004251373652
:100920003934302063656C6C5F636F756E743D2580
:1009300075206D61736B3D3078253034580D0A0099
:100940004251373639343020696E69742046414946
:100950004C0D0A0000B58BB028216846FFF72AFE2F
:10096000002005904FF4C94206904FF6C0710092E6
:100970000790CDE90121CDE90310012008900E2058
:1009800009906946034800F04DF9002800D0012085
:100990000BB000BD5C0000201CB5CDE900230B4668
:1009A0000022114602F0A2F91CBD000010B58AB069
:1009B00004001AD01A4800F03AFA022802D00320A4
:1009C0000AB010BD0021164800F0A6F978B11C212C
:1009D00002A8FFF7EFFD00200090014601906B4652
:1009E00002AA0F4800F0A9F918B10220E8E7012097
:1009F000E6E704982071059860710698A071049844
:100A000060B1039820600020694623180A5C401CEE
:100A1000C0B2DA710828F8D30020D1E70298F1E7D4
:100A20005C00002010B541004FF47A7302220348A5
:100A300000F0E0FC002800D0012010BD8400002060
:100A40003EB582B100924FF47A730124CDE901439F
:100A500040000A4601462346054800F081FD002873
:100A600000D001203EBD03A0FFF70AFCF9E700001B
:100A7000840000204253505F4932435F52656164F5
:100A80005F427974653A2064617461206973204E15
:100A9000554C4C0D0A0000007FB50C468DF80C201B
:100AA0000546012303AA02F0FDF98DF80D004FF46D
:100AB0007A72022103A88DE807006900012322460B
:100AC000034800F07BFE002800D0012004B070BD78
:100AD00084000020FEE770B5002914D0002A12D04F
:100AE00000250EE04C5D60400024060602D583EA36
:100AF000400000E04000641CE4B2C0B2082CF4D313
:100B00006D1C9542EED370BD704772B6FEE790F84B
:100B10002020012A07D0022A05D0416A41F4802111
:100B2000416201207047CA0704D00268936843F00D
:100B3000800393608A0704D50268936843F40043F6
:100B40009360490704D50068816841F40001816021
:100B500000207047F0B590F820500468A468012D7B
:100B600005D0022D03D0416A41F4802157E014F0F2
:100B7000406F01D1E5004FD5C4F301640125A540C4
:100B80001D608D684FF4C0739DB1CE6835434E68CB
:100B900045EAC605066803EB0417F5514FF4C27524
:100BA000076805EB04150E697E51097D012905D002
:100BB00009E00E88CD6845EA4655EBE701684E59D5
:100BC00046F480764E511179D579567941EA05611E
:100BD00095792D0445EA062529434FF4C676056824
:100BE00006EB0416A9511178D57841EA056195788C
:100BF00052782D0445EA022211434FF4C47502686D
:100C000005EB04155151006803EB0411425842F002
:100C1000010242500020F0BD416A41F400114162DE
:100C20000120F0BD10B590F820300268012B07D0EC
:100C3000022B05D0416A41F480214162012010BDA0
:100C4000D2F8000240F00100C2F80002087D00F076
:100C50001F0301209840D2F81C328343C2F81C3293
:100C6000CB69B3B9D2F80C328343C2F80C328C8909
:100C70004B6864F31F434C6902EBC404C4F8403270
:100C80000C890B6864F31F434C6902EBC404C4F87D
:100C90004432CB69012B16D1D2F80C320343C2F88F
:100CA0000C320C884B6864F31F434C6902EBC4049C
:100CB000C4F840320C89CB6864F31F434C6902EBE3
:100CC000C404C4F844328B69002BD2F804320FD02C
:100CD00053EA0003C2F804320B69002BD2F8143235
:100CE00008D00343C2F81432096A012904D008E08D
:100CF0008343EFE78343F5E7D2F81C120143C2F8C0
:100D00001C12D2F8000220F00100C2F800020020FC
:100D100010BD406A704700000246002092F8203063
:100D2000012B01D0022B05D1106821B1D0F81000A1
:100D300000F003007047C068FAE770B590F82040F3
:100D4000012C05D0022C03D0416A41F4802128E017
:100D5000046809B32469A40720D04FF4D874056847
:100D600004EB01142D5915F00405956005682D5903
:100D70001AD0ED08556005682C5904F00204D460BF
:100D80004FF4DA74056804EB01142E5906F00F06CF
:100D9000082E0CD308250DE0E468DCE7416A41F435
:100DA00000114162012070BD6D0D1560E3E72D5902
:100DB00005F00F05156105682D59C5F307259561E7
:100DC00005682C59240C54614FF4DC72046802EB62
:100DD0000112A4581C700468A458240A5C700468AA
:100DE000A458240C9C700468A258120EDA704FF4B8
:100DF000DE72046802EB0112A4581C710468A45846
:100E0000240A5C710468A458240C9C710468A258DC
:100E1000120EDA71006829B1016941F02001016107
:100E2000002070BDC16841F02001C160F8E70146B3
:100E300090F82000012801D0022804D109684A68EE
:100E4000920701D50420704709688907FBD5032064
:100E5000704770B5040003D094F8200010B104E08E
:100E6000012070BD204600F091F82068016841F033
:100E70000101016000F0F4F90546052604E000F0E8
:100E8000EFF9401B0A2811D820684068C007F6D047
:100E90002068016821F00201016000F0E1F90546D7
:100EA0000BE000F0DDF9401B0A2806D9606A40F427
:100EB0000030606284F82060D2E7206840688007D4
:100EC000EFD4207E0128206801683DD021F0800108
:100ED0000160607E01282068016838D021F040015F
:100EE0000160A07E01282068016833D021F0200134
:100EF0000160E07E0128206801682ED041F01001D9
:100F00000160207F01282068016829D021F00801B4
:100F10000160607F01282068016824D021F004016D
:100F20000160D4E902010843D4E9041211430843E3
:100F30006168491E08432168C86100206062012081
:100F400084F82000002070BD41F08001C0E741F02E
:100F50004001C5E741F02001CAE721F01001CFE7C9
:100F600041F00801D4E741F00401D9E7034600202D
:100F700093F82020012A01D0022A05D11A68890697
:100F80009268914300D001207047000010B586B0F0
:100F90000021009101910291039100681349884258
:100FA00022D11348C16941F00071C161C16901F0EA
:100FB00000710491816941F00401816180690D4CE7
:100FC00000F0040004904FF4006000906946204651
:100FD00000F050F8A014009002200190032003902C
:100FE0006946204600F046F806B010BD0064004097
:100FF000001002400008014070B5044690F820003F
:10100000012804D0606A40F40020606218E00220E9
:1010100084F820002068016821F00101016000F0DF
:101020001FF905460EE000BF00F01AF9401B0A2820
:1010300008D9606A40F400306062052084F820001E
:10104000012070BD20684068C007EDD1606270BDAE
:1010500070B5044600F004F90546601C02D004484F
:101060000078044400F0FCF8401BA042FAD370BDA5
:10107000080000202DE9F84FDFF8B8910024A9F10D
:10108000040B23460F2709F1040AABF1040EC9E053
:101090000125A5402A40AA427DD1674ED1F804C05F
:1010A000ACEB0608B44532D014DCBCF1030F3AD0E7
:1010B00009DCBCF1000F2AD0BCF1010F1CD0BCF13F
:1010C000020F31D11DE0BCF1110F17D0BCF1120F8E
:1010D0002AD119E0B8F5881F19D006DCB8F5803F91
:1010E00015D0B8F5801F1FD111E0B8F5001F0ED044
:1010F000B8F5041F18D10AE0CB6815E0CB681B1DBA
:1011000012E0CB6808330FE0CB680C330CE08B683F
:101110002BB1012B4FF0080303D0456104E00423F9
:1011200002E0056100E00023FF2A01D8064601E045
:1011300000F104064FEA840501D9A5F12005D6F88F
:10114000008007FA05FC28EA0C0803FA05F548EACE
:101150000508C6F800804D68ED0062D5374DAE69D0
:1011600046F00106AE61AD6924F0030605F0010505
:101170000095334D06EB050CDCF80850A607360F3A
:1011800007FA06F825EA0805DFF8B880404503D1DC
:101190004FF0000817E044E0DFF8AC80404502D192
:1011A0004FF001080FE0DFF8A480404502D14FF076
:1011B000020808E0DFF89880404502D14FF00308AC
:1011C00001E04FF0040808FA06F848EA0508CCF8F0
:1011D00008804D68D9F80060ED024D4601D51643F0
:1011E00000E096432E604D68DAF80060AD02554687
:1011F00001D5164300E096432E604D68DBF8006091
:10120000AD035D4601D5164300E096432E604D6860
:10121000DEF80060ED03754601D5164300E0964305
:101220002E60641C0D682A46E5407FF431AFBDE8AE
:10123000F88F000008040140000011100010024067
:101240000000014000080140000C01400010014076
:10125000001401400AB1016170470904FBE7000076
:1012600001488068704700000800002070B5040045
:1012700025D094F83D00002520B984F83C50204644
:1012800000F034FB242084F83D002068016821F040
:10129000010101602068016841F40041016020689B
:1012A000016821F40041016000F00EFD4D4A6168C3
:1012B000914201D84C4900E04C49884201D20120BA
:1012C00070BD4B492368B0FBF1F15E6826F03F0624
:1012D0000E435E606368934206D94FF49673594398
:1012E0004FF47A73B1FBF3F12368491C1E6A26F0B0
:1012F0003F06314319626168914210D84900401E8F
:10130000B0FBF1F2521CC2F30B02042A01D20420FA
:1013100022E0B0FBF1F0401CC0F30B001CE0A2681F
:10132000F2B301EBC10303EB0116431EB3FBF6F36B
:101330005B1C43F480431B0549D092B301EBC1020F
:1013400002EB0111401EB0FBF1F0401CC0F30B009A
:1013500040F4804040F400402168CA694CF6FF73B5
:101360009A431043C861D4E907100143206802681A
:1013700022F0C00211430160D4E903010143206857
:10138000826848F2FF339A4311438160D4E9050132
:1013900008432168CA6822F0FF021043C86001E0D8
:1013A0000EE016E02068016841F00101016025644B
:1013B000202084F83D00256384F83E50002070BD55
:1013C00001EB4106431EB3FBF6F35B1CB3E70120C0
:1013D000C2E701EB4101401EB0FBF1F0401CC0F33D
:1013E0000B00B7E7A086010080841E0000093D00C5
:1013F00040420F002DE9FF4F81B089460446FFF7B8
:101400002FFF054694F83D004FF0000820287DD1BD
:101410001923012250492046009501F0FBF80028CD
:1014200074D194F83C00012870D0012084F83C006D
:1014300020680168C90703D1016841F0010101601A
:101440002068016821F400610160242084F83D00D7
:10145000002626644148E0624FF0011B20272068E7
:10146000016841F4807101600095002259462046D0
:10147000049B01F0CFF850B120680068C00502D588
:101480004FF400702064032005B0BDE8F08F2168A0
:1014900009F0FE000861FFF7E3FE21680546486990
:1014A0004969C0F34000C1F380214FF0A00A0FE06A
:1014B000FFF7D6FE411B0498814200D808B984F892
:1014C0003DA0216848694969C0F34000C1F380210B
:1014D00094F83D20A02A02D008B90029E8D084F869
:1014E0003D7020684169C943890716D4016841F4F9
:1014F0000071016020684169806919230122164941
:101500002046009501F086F8B8B900E021E084F8A3
:101510003D7084F83C600020B6E7016841F400713A
:10152000016021686FF480604861192301220A4933
:101530002046009501F06EF808B10120A4E7039859
:1015400008F1010880458AD384F83D7084F83C6036
:10155000F3E7022098E70000020010000000FFFF00
:101560002DE9FF4F83B00025DDE910799A469346B7
:101570000446DDF848800095FFF772FE064694F8B1
:101580003D0020287CD1192301228849204600965D
:1015900001F040F80028F5D194F83C0001286FD004
:1015A000012084F83C0020680168C90703D1016864
:1015B00041F0010101602068016821F400610160CF
:1015C000222084F83D00402084F83E0025646762B4
:1015D000A4F82A90608D20857548E062CDE90086E8
:1015E00053465A462046049900F016FF00287CD145
:1015F000208DDFF8C091202768B1012814D002287F
:10160000206801681ED041F4806101602068416952
:1016100080690090BCE0206841698169009101689F
:1016200041F400710160B3E02068016821F4806139
:10163000016072B62068416981690091016841F4D6
:1016400000710AE041F40061016072B620684169EE
:1016500081690091016821F48061016062B697E0C0
:10166000032865D801280CD0022843464FF0000219
:101670004946204600960BD000F0CCFFA8BB0CE0FA
:1016800091E032464146204601F06AF868BB72E0BC
:1016900000F0C0FF48BB72B633E02068016821F457
:1016A0008061016072B620680069616A0870606AD2
:1016B000401C6062208D401E2085608D401E60852C
:1016C0003D4846F2A8110068B0FBF1F0C0EBC00045
:1016D00000EB80000090401E009007D02068406919
:1016E000C04340070DD50098F5E727E044F8305F88
:1016F0006773A573206940F02000206162B62573EE
:101700001CE02068016841F40071016020680069F4
:10171000616A0870606A401C6062218D491E2185E3
:10172000618D491E618562B621680969017026E0F4
:1017300032464146204601F013F818B1012007B0A7
:10174000BDE8F08F20680069616A0870606A401C1B
:101750006062208D401E81B22185608D401E6085B3
:1017600020684269D243520712D4032903D1016889
:1017700021F48061016020680069616A0870606A14
:10178000401C6062208D401E2085608D401E60855B
:10179000208D00287FF464AF84F83D7084F83E50BB
:1017A00084F83C50CBE70220C9E70000020010009B
:1017B0000000FFFF04000100140000202DE9FF4F8E
:1017C00083B09A46DDE9119793460446DDF84080E0
:1017D000FFF746FD054694F83D0020287FD11923E8
:1017E000012240492046009500F014FF002876D1E0
:1017F00094F83C00012872D0012084F83C00206855
:101800000168C90703D1016841F001010160206846
:10181000016821F400610160212084F83D0040202E
:1018200084F83E0000262664C4F82480A4F82A9098
:10183000608D20852C48E062CDE9007553465A46FC
:101840002046049900F066FE70B930E02A46394619
:10185000204600F0BDFF58B1206C042804D1206858
:10186000016841F400710160012007B0BDE8F08F0C
:10187000606A216800780861606A401C6062218D9E
:10188000491E89B22185628D521E62852268536984
:10189000DB435B070BD469B100781061606A401CC0
:1018A0006062208D401E2085608D401E6085208DE9
:1018B0000028CBD12A463946204600F07FFE00287A
:1018C000CAD154F83D0B016841F400710160202039
:1018D00004F81E09E67766770020C6E7FFE70220D6
:1018E000C3E70000020010000000FFFF10B586B043
:1018F00000210091019102910391006813498842EF
:1019000022D1134CA06940F00800A061A06969468B
:1019100000F0080004904FF44070009012200190F5
:10192000032003900B48FFF7A5FB0B48416841F0EB
:10193000E06141F002014160E06940F40010E061C3
:10194000E06900F40010049006B010BD005400409F
:1019500000100240000C01400000014070B504007E
:1019600013D021684CF6CC400860216845F25550F0
:101970000860D4E9000141602168A0688860FFF731
:101980006FFC054641F23C360DE0012070BD00BF02
:10199000FFF766FC401BB04205D92068C06880078D
:1019A00001D0032070BD2068C0688007F0D1216895
:1019B0004AF6AA200860002070BD00684AF6AA21F5
:1019C00001600020704700000248816802781144DD
:1019D0008160704708000020074810B5016841F099
:1019E00010010160032000F0A7F80F2000F006F8B6
:1019F00000F050F8002010BD0020024030B5054630
:101A0000204887B0C16941F00101C161C06906A9E0
:101A100000F00100009001A800F036F90498B8B178
:101A200000F052F9400018494FF08042B0FBF1F14C
:101A30001648491E0260416040F2E7320021C0E9C9
:101A400003218160816100F017FB040003D015E0E1
:101A500000F03AF9E7E70D4800F03CFB04000DD137
:101A60001C2000F03BF8102D07D2002229461C2034
:101A700000F042F80648056000E0012407B0204667
:101A800030BD00000010024040420F002C01002039
:101A90000C0000200F4808B5816941F00101816107
:101AA000816901F001010091C16941F08051C1617A
:101AB000C069002200F0805000900F21901E00F0BD
:101AC0001BF80548416821F0E06141F00071416078
:101AD00008BD00000010024000000140002809DBA2
:101AE00000F01F02012191404009800000F1E02038
:101AF000C0F8001170470000F0B40E4B1B680C4694
:101B0000C3F30223C3F10705042D00D90425191DD1
:101B1000072901D2002300E0DB1E012606FA05F1A9
:101B2000491E214099409E40761E16403143F0BC2C
:101B300001F074B80CED00E0064900F007020868F7
:101B40004FF6FF03184040EA0220034A10430860A2
:101B5000704700000CED00E00000FA052DE9F047A9
:101B60000F46050061D0434E306800F00700B842D0
:101B700009D2306820F0070038433060306800F048
:101B80000700B84251D128683B4C810712D5400765
:101B900003D5606840F4E06060602878000703D5F2
:101BA000606840F4605060606068A96820F0F000F0
:101BB000084360602878C00728D06868012810D0E2
:101BC0002168022810D0890700292EDA616821F0E7
:101BD000030101436160FFF743FB804641F288390E
:101BE0000DE021688903EFE78901EDE7FFF738FB96
:101BF000A0EB0801494502D90320BDE8F0876068E1
:101C0000696800F00C00B0EB810FEFD1306800F094
:101C10000700B8420BD9306820F007003843306025
:101C2000306800F00700B84201D00120E5E72878CD
:101C3000400705D56068E96820F4E060084360600B
:101C40002878000706D56068296920F4605040EACA
:101C5000C100606000F058F86168084AC1F30311E0
:101C6000515CC8400649086006480068FFF7C6FE98
:101C70000020C2E700200240001002403E3200086F
:101C8000140000200C0000200F2202600C4A536850
:101C900003F003034360536803F0F0038360536869
:101CA00003F4E063C36052684FF4E06303EAD202D6
:101CB00002610448006800F00700086070470000F7
:101CC00000100240002002400448054900684968AD
:101CD000044AC1F30221515CC8407047140000203F
:101CE000001002404E320008044805490068496867
:101CF000044AC1F3C221515CC8407047140000205F
:101D0000001002404E3200080E4A51680E4801F0A1
:101D10000C03042B11D0082B0FD10C48C1F38343C3
:101D2000C903C05C0AD55168084AC1F34041921EFC
:101D3000515C054A5043B0FBF1F0704704494843F9
:101D4000704700000010024000127A002E32000896
:101D500000093D002DE9F84F040070D02078C04DF7
:101D6000C00749D06868C0F38100012807D06868BF
:101D7000C0F38100022809D16868C00306D528682D
:101D8000800339D560680028E7D035E06068B0F599
:101D9000803F0BD010B1B0F5A02F11D0286820F4EF
:101DA00080302860286820F4802002E0286840F411
:101DB00080302860606890B1FFF752FA06460AE06A
:101DC000286840F480202860F0E700BFFFF748FA59
:101DD000801B642873D828688003F7D50CE0FFF7D0
:101DE0003FFA064605E000BFFFF73AFA801B642879
:101DF000F0D828688003F7D420789A4E80074FF0F7
:101E000001094FF0000839D5686810F00C0F07D0B1
:101E10006868C0F38100022809D16868C00306D44D
:101E20002868800714D52069012808D110E02069AE
:101E3000B0B1C6F80090FFF713FA074605E00AE1D3
:101E4000FFF70EFAC01B0228C4D828688007F7D510
:101E50002868616920F0F80040EAC10028600DE0C0
:101E6000C6F80080FFF7FCF9074604E0FFF7F8F931
:101E7000C01B022823D828688007F7D420780007E1
:101E80002CD57948A169D9B1C0F80090FFF7E8F9DD
:101E9000074604E0FFF7E4F9C01B02280FD8686A80
:101EA0008007F7D571484FF4FA510068B0FBF1F0A4
:101EB000009000BF0098411E0091FAD20EE080E031
:101EC000C0F80080FFF7CCF9074604E0FFF7C8F937
:101ED000C01B022875D8686A8007F7D420784007AD
:101EE00060D5E8690027C00008D4E86940F0805058
:101EF000E861E869012700F0805000905C480168C3
:101F0000C90513D40168834641F480710160FFF76D
:101F1000A7F9824606E000BFFFF7A2F9A0EB0A008E
:101F200064284ED8DBF80000C005F5D5E06801282C
:101F30000AD008B1052813D0286A20F001002862D1
:101F4000286A20F0040002E0286A40F001002862BC
:101F5000E06841F2883B98B1FFF782F982460BE0D6
:101F6000286A40F004002862EEE700BFFFF778F926
:101F7000A0EB0A0159455AD8286A8007F6D50CE02B
:101F8000FFF76EF9824605E0FFF76AF9A0EB0A0158
:101F900059454CD8286A8007F6D41FB1E86920F06B
:101FA0008050E861E06988B36968C1F38101022962
:101FB00044D00228C6F8608004D0FFF751F90446E7
:101FC00038E034E0FFF74CF9074604E0FFF748F942
:101FD000C01B02282BD828688001F7D4206AB0F5EE
:101FE000803F05D16868A16820F40030084368602C
:101FF000D4E908010843696821F474110843686052
:10200000C6F86090FFF72CF9044606E025E000BF13
:10201000FFF726F9001B022809D828688001F7D5A8
:102020001BE000BFFFF71CF9001B022802D90320A8
:10203000BDE8F88F28688001F4D40EE00128F7D0BD
:102040006868226A00F48031914204D1616A00F428
:102050007010884201D00120EAE70020E8E7000084
:10206000001002400000424280044242140000205E
:10207000007000407047704710B5040003D094F81A
:102080003D0010B107E0012010BD002084F83C00A5
:10209000204600F01EF8022084F83D00211D206833
:1020A00000F0C2FC012084F8460084F83E0084F869
:1020B0003F0084F8400084F8410084F8420084F82E
:1020C000430084F8440084F8450084F83D00002073
:1020D00010BD704790F83D10012901D001207047D4
:1020E000022180F83D100168CA6842F00102CA600E
:1020F00000680B49884208D0B0F1804F05D00949EB
:10210000884202D00849884204D1816801F0070161
:10211000062903D0016841F00101016000207047E9
:10212000002C0140000400400008004070472DE9E9
:10213000F04104460068C66805694FF00007A9072A
:1021400013D5B10711D5F91E016101202077206850
:1021500080698007204602D0FFF7E8FF04E000F026
:102160007EF8204600F07CF82777680716D57007C0
:1021700014D521686FF004000861022020772068E0
:10218000806910F4407F204602D0FFF7CFFF04E0C3
:1021900000F065F8204600F063F82777280715D58A
:1021A000300713D521686FF00800086104202077FC
:1021B0002068C0698007204602D0FFF7B7FF04E01F
:1021C00000F04DF8204600F04BF82777E80616D5CA
:1021D000F00614D521686FF0100008610820207700
:1021E0002068C06910F4407F204602D0FFF79EFFB0
:1021F00004E000F034F8204600F032F82777E807D2
:1022000008D0F00706D021686FF001000861204671
:1022100000F027F8280608D5300606D521686FF0AB
:10222000800008612046FFF725FF680608D5700684
:1022300006D521686FF040000861204600F018F8CC
:10224000A8060AD5B00608D521686FF020000861FD
:102250002046BDE8F041FFF70EBFBDE8F0817047B2
:1022600070470068B0F1804F01D1FFF7ADBB7047F8
:10227000704770B5040004D094F84100002510B1F7
:1022800006E0012070BD84F84050204600F024F89C
:10229000242084F841002068C16821F40051C16005
:1022A000204600F025FC2068016921F4904101617D
:1022B0002068416921F02A0141612068C16841F428
:1022C0000051C1606564202084F8410084F8420018
:1022D0006563002070BD000030B585B00024009417
:1022E00001940294039400681449884224D114484C
:1022F000816941F480418161816901F480410491E7
:10230000816941F00401816180690E4D00F0040093
:1023100004904FF40070009002200190032003907D
:1023200069462846FEF7A6FE2815CDE90004694651
:1023300028460294FEF79EFE05B030BD00380140ED
:1023400000100240000801402DE9F843044690F8CF
:102350004100984616460D46202802D00220BDE8CE
:10236000F88385B17EB100206064212084F84100AB
:10237000FEF776FFA6848146E684A0682027B0F5A4
:10238000805F02D003E00120E9E7206910B12E460A
:1023900000250EE000260CE08021204600F004FC21
:1023A000A8B9C6B116F8010B21684860E08C401E40
:1023B000E084E08C4B464FF00002CDF8008000280E
:1023C000EAD14FF04001204600F0EEFB40B184F826
:1023D00041700320C3E735F8020BC0F30800E3E7C0
:1023E00084F841700020BAE7FEE701684A69D243E9
:1023F00052050FD46FF480624A61002140F8301F0B
:10240000202242738173026942F004020261017367
:1024100001207047002070472DE9F84F04460068FE
:1024200089460B9D01689846174641F4806101601A
:102430002068016841F48071016000954FF0011B34
:102440000022594620460A9B00F0E4F84FF4007A37
:1024500040B120680068C00501D5C4F840A0032041
:10246000BDE8F88F216809F0FE0008612B46284975
:1024700020460A9A00F016F9F0BB2068416980698D
:1024800000902A4620460A9900F0A2F940B1206C3B
:1024900004283AD12068016841F40071016034E0F9
:1024A000FEB2B8F1010F09D02168380A08612A4646
:1024B00020460A9900F08CF90028E8D120680661CE
:1024C0002A4620460A9900F083F90028DFD12068C7
:1024D000016841F480710160009500225946204650
:1024E0000A9B00F097F80028B3D1216809F0FF009B
:1024F00040F00100086100E007E02B460449204657
:102500000A9A00F0CFF80028AAD00120A8E700001E
:10251000020001002DE9F843044600680D46DDE99C
:10252000089701689846164641F4807101604B4651
:1025300000224FF001112046009700F06BF848B1DF
:1025400020680068C00502D54FF4007020640320A5
:10255000BDE8F883216805F0FE0008613B464A4665
:102560001549204600F09EF888B9206841698069C5
:1025700000903A464946204600F02AF948B1206CBE
:10258000042804D12068016841F400710160012031
:10259000DEE7F5B2B8F1010F09D02168300A086111
:1025A0003A464946204600F013F90028E7D1206852
:1025B00005610020CCE700000200010070B516465E
:1025C0000D4604461EE02046FFF70FFF08B101202C
:1025D00070BD681C16D0FEF743FE801BA84200D8D1
:1025E00085B920684069C04340070BD5002044F8F6
:1025F000300F20216173A073216941F02001216116
:102600002073E4E720684069C0434007DBD4002022
:1026100070BD00002DE9F047984617460D46044668
:10262000C1F30746DDF820902AE000BFB8F1FF3F74
:1026300026D0FEF715FEA0EB0901414502D8B8F1FE
:10264000000F1DD12068012E16D0806925EA0000F8
:102650000004000C12D00020B84211D1002044F830
:10266000300F20216173A073216941F020012161A5
:1026700020730120BDE8F0874069E7E70120EBE720
:102680002068012E0AD0806925EA00000004000CB1
:1026900006D00020B842C9D00020EBE74069F3E73C
:1026A0000120F7E72DE9F047984616460D46044607
:1026B0004FF000094FF0200AC1F3074723E02068DC
:1026C0004069C043400515D42068016841F4007199
:1026D000016021686FF480604861C4F8309084F82C
:1026E0003DA084F83E90216C41F00401216484F8FF
:1026F0003C9021E0701C06D0FEF7B2FDA0EB080074
:10270000B04203D816B1012F1FD021E02068012F5D
:1027100015D0806925EA00000004000C18D000BF25
:1027200044F8309F84F80DA084F80E90216941F0A0
:102730002001216184F80C900120BDE8F0874069F8
:1027400025EA00000004000CEAD12068406901E09D
:102750002068806925EA00000004000CAFD1ECE796
:102760002DE9F041002590460E460446202728E03A
:102770004069C043C0060CD454F8301B6FF0100001
:10278000486144F810596777A577206A2062257759
:1027900014E0FEF765FDA0EB0800B04200D886B952
:1027A00020684069C04340060BD544F8305F67732A
:1027B000A573206940F02000206125730120BDE849
:1027C000F08120684169C9434906D1D40020F6E769
:1027D00070B516460D4604461EE02046FFF705FE7E
:1027E00008B1012070BD681C16D0FEF739FD801BB2
:1027F000A84200D885B920684069C04300060BD5BF
:10280000002044F8300F20216173A073216941F04A
:10281000200121612073E4E720684069C04300067D
:10282000DBD4002070BD0000154810B513490160CD
:102830000921416000214FF480228160C0E9031228
:10284000920042610176012242768176C27601775A
:102850004177FEF7FEFA08B1FEF757F9FEF77AF86E
:1028600008B1FEF752F90648FEF7C6FB002803D070
:10287000BDE81040FEF749B910BD000000640040FB
:102880005C00002070B586B00024184800940194C4
:1028900002940394816941F020018161816901F012
:1028A00020010491816941F004018161816901F095
:1028B00004010491816941F00801816180690C4E35
:1028C00000F008004FF401450490002229463046EC
:1028D000FEF7C0FC01200095CDE901040220039021
:1028E00069463046FEF7C6FB06B070BD00100240D8
:1028F000000801400D4810B50B4901600C494160CA
:1029000000214FF480428160C0E90312416181617E
:10291000C1610162FEF7AAFC002803D0BDE81040A7
:10292000FEF7F3B810BD0000005400408400002002
:10293000A0860100094810B50749016002214160E5
:1029400040F6FF718160FFF709F8002803D0BDE869
:102950001040FEF7DAB810BD00300040D80000206B
:102960000C4810B50A4901604FF4E1314160002183
:1029700081600C22C160C0E904128161C161FFF76E
:1029800078FC002803D0BDE81040FEF7BEB810BDAB
:1029900000380140E4000020FEE7FEE710B54FF0EC
:1029A000E020006900F0D0FB012803D0BDE8104012
:1029B00000F0B4BB10BD30B58FB028216846FDF7DC
:1029C000F9FD14210AA8FDF7F5FD09200121009069
:1029D0004FF48030002404910691CDE901040225D2
:1029E000CDE907504FF4E01009906846FFF7B2F9BF
:1029F00008B172B6FEE70F20CDE90A054FF48060FA
:102A0000CDE90C4002210AA80E94FFF7A7F8002890
:102A100001D072B6FEE70FB030BD70470148FFF736
:102A200086BB00002C010020F0B50268194B1A4C3F
:102A30001A4D4FF08047984205D0B84203D0A042CB
:102A400001D0A84203D122F070064A68324398426E
:102A500005D0B84203D0A04201D0A84203D122F44D
:102A60004074CA6822434C6922F08002224302600B
:102A70008A68C2620A688262984201D10969016368
:102A8000012141610169C90703D0016921F00101F8
:102A90000161F0BD002C014000040040000800402E
:102AA00001680C3151E8002F22F4907241E80023B4
:102AB000002BF5D10168143151E8002F22F00102FA
:102AC00041E80023002BF5D1016B012909D10168F0
:102AD0000C3151E8002F22F0100241E80023002BB6
:102AE000F5D1202180F842100021016370470000D9
:102AF00070B5044600680169E26821F44051114351
:102B000001612169A0680843616908432168CA68B6
:102B100041F20C639A430243CA6020684169A2698A
:102B200021F44071114341611E492068884202D15D
:102B3000FFF7DAF801E0FFF7C7F800EBC00101EB9F
:102B40000012606864218000B2FBF0F3B3FBF1F384
:102B50006FF018067343B2FBF0F5B2FBF0F605EB2D
:102B60008305322303EB0515B5FBF1F5B6FBF1F652
:102B700005F0F00505EB0615B2FBF0F6B2FBF0F040
:102B8000B0FBF1F06FF01802504306EB800003EB4E
:102B90000010B0FBF1F0216800F00F0028448860BD
:102BA00070BD0000003801402DE9F84398461746F3
:102BB0000D460446089E24E0701C22D0FEF750FB10
:102BC000A0EB0800B0421AD8CEB12068C16849070E
:102BD00017D5802D15D0402D13D00168C9430907A2
:102BE0000FD401680025406800902046FFF758FF89
:102BF0000820606484F840500120BDE8F883032079
:102C0000FBE72068006835EA000004D00020B842E5
:102C1000D2D00020F1E70120F9E7FEE70907090E0D
:102C2000002804DB00F1E02080F80014704700F079
:102C30000F0000F1E02080F8141D704730380A289A
:102C400001D2012070470020704770470A460146B4
:102C50000820FDF7F5BE0A4601460820FDF71CBF17
:102C600000F00700082815D2DFE800F00406080A83
:102C70000C0E101208A0704709A070470AA07047F8
:102C80000BA070470BA070470EA0704710A07047B4
:102C900010A0704713A070474E6F4572726F72009C
:102CA0005374756666000000466F726D0000000088
:102CB00041636B004269745265636573736976653D
:102CC00000000000426974446F6D696E616E7400AB
:102CD000437263005365744279536F66747761720F
:102CE00065000000556E6B6E6F776E002DE9F04F3A
:102CF00093B09946DDE91C76144688460546082FB0
:102D000003D9012013B0BDE8F08F3D48FEF78FF8DE
:102D10000146022804D03BA0FDF7B2FA0320F1E7F8
:102D2000182109A8FDF746FCCDE90C47CDF82C8009
:102D30005FEA080016D025F060400A900020079056
:102D400007AB4A4609A92E48FDF704FF70B12C488D
:102D5000FDF7DFFF00903B462A46414632A0FDF7D3
:102D60008FFACEE7C5F30A000990E7E7FEF778FA95
:102D700004463EE0FEF774FA001BB04239D3204807
:102D80000799FDF7C4FE1E48FDF7C3FF1C490968FB
:102D90008C698A6806924968059104F001011091D6
:102DA000C4F340010F910799CDE90010C4F3021656
:102DB000C4F3800BC4F3074A4FEA14693B462A4622
:102DC000414627A0FDF75CFA3046FFF749FFDDE9F1
:102DD0000512CDF800B0CDE90160CDE90521CDE9BE
:102DE00003A9DDE90F3221462D48FDF749FA0220FB
:102DF00088E703480799FEF7B9F80028BAD181E7B8
:102E00005C0000205B43414E5F54585D2073746149
:102E100074653D2564206E6F74206C697374656EF3
:102E2000696E670D0A0000005B43414E5F54585DB8
:102E300020616464206661696C206964653D257564
:102E40002069643D3078256C5820646C633D25759D
:102E5000206572723D30782530386C580D0A0000BC
:102E60005B43414E5F54585D2074696D656F7574A6
:102E7000206964653D25752069643D3078256C586E
:102E800020646C633D2575206D623D256C75206561
:102E900072723D30782530386C580D0A0000000001
:102EA000903200083FB5014681B049001D461446E6
:102EB0008DF800100020072301226946FDF70BFE64
:102EC0000723012202A9FDF706FE07232A46214611
:102ED000FDF701FE05B030BD13B50648007830B1EE
:102EE0004FF4FA73012269460348FFF72DFA009860
:102EF0001CBD000001000020E400002088B0FEF7A7
:102F00006BFDFFF758FDFFF7BDFCFFF78DFCFFF7EA
:102F1000F1FCFFF70FFDFFF723FDFDF71BFD21A0DF
:102F2000FDF7AEF9FDF7C2FC002440F2231625465A
:102F30001FA00A23006806908DF81840032206A9F6
:102F40003046FDF729FD010022461AD019A000BF26
:102F5000FDF796F902950395049502A80595FDF7EE
:102F600025FD01000FD01FA0FDF78AF9641CE4B213
:102F70000A2CDDD32148FEF720FD6420FEF768F817
:102F8000FEE71FA0E4E79DF811109DF81000CDE9C1
:102F900000019DF80F309DF80E2023A00299FDF747
:102FA0006FF9E3E753746172742E2E2E0D0A000040
:102FB00000AA550043414E5F5458207374643D305D
:102FC0007831323320646C633D33207265743D2563
:102FD0007520636E743D2575206661696C65640DAE
:102FE0000A00000043414E5F5258206661696C65DB
:102FF00064207265743D25750D0A0000D80000201C
:1030000043414E5F5458207374643D3078313233FD
:1030100020646C633D33207265743D257520636EBA
:10302000743D25750D0A000043414E5F52582073D0
:1030300074643D30782530335820646C633D2575C9
:1030400020646174613D253032582025303258208B
:10305000253032580D0A00000648416B096829B135
:10306000416BC968C9684968816270474FF0FF3198
:10307000FAE7000018000020D0E9013201699A60E7
:10308000D0E901235A604A68824201D182684A60CD
:10309000002202610868401E0860086870474268A4
:1030A0004A6093688B609368596091600861016819
:1030B000491C016070470000164810B5016B11B142
:1030C0000121C16110BD0021C1610169124A01E005
:1030D000B9B1491E01EB810352F82330002BF7D020
:1030E00001EB810302EB830202F1080453685B6881
:1030F0005360A34201D15B685360DA6802600161EA
:1031000010BD502080F31188BFF34F8FBFF36F8F36
:10311000FEE70000180000207401002010B55020C8
:1031200080F31188BFF34F8FBFF36F8F00F01AF851
:1031300018B104494FF080500860002080F31188D6
:1031400010BD000004ED00E00548416919B1006BB5
:1031500018B100207047012070470220704700001E
:10316000180000202DE9F0412E4C0027206B28B1DB
:10317000A069401CA0613846BDE8F081E668761C75
:10318000E66013D1606B006838B1502080F311887D
:10319000BFF34F8FBFF36F8FFEE7606BA16B61636F
:1031A000A063206A401C2062FFF756FFA06ADFF888
:1031B0007880864209D3606B0068A0B1606BC068FC
:1031C000C5686868864211D2A0622068C06A00EBB8
:1031D000800158F82100012800D90127E069002862
:1031E000C9D00127C7E74FF0FF30EDE7281DFFF7F3
:1031F00043FFA86A18B105F11800FFF73DFFE86A20
:103200002169884200D9206100EB800108EB810030
:10321000291DFFF744FFE86A2168C96A8842CAD3BA
:103220000127C8E7180000207401002001020203F2
:103230000405060708090A0B0C0D0E0F10100000FC
:103240000000000000000102030406070809000056
:103250000000010203043031323334353637383957
:1032600041424344454640305800303132333435D2
:10327000363738396162636465664030780004002F
:103280000008000000000000000200010000100023
:103290005B43414E5F54585D204553523D30782585
:1032A00030386C5820284557473D256C75204550CF
:1032B000563D256C7520424F46463D256C75204C89
:1032C00045433D256C752F2573205445433D256CA2
:1032D00075205245433D256C7529205453523D308D
:1032E000782530386C58204D53523D307825303891
:1032F0006C580D0A00000000183300080000002080
:103300005C00000028010008743300085C00002005
:103310003C0C000044010008000100000000000017
:1033200001000000100000000000000000127A0000
:10333000000000000000000000000000000000008D
:10334000000000000000000000000000000000007D
:10335000000000000000000000000000000000006D
:1033600000000000000000000000000000006D01EF
:043370000000000059
:04000005080000ED02
:00000001FF
