:020000040800F2
:10000000E820002029020008F319000899180008C8
:10001000F1190008ED070008C31C000800000000EB
:100020000000000000000000000000009101000836
:100030007108000800000000D5010008451A0008FA
:10004000430200084302000843020008430200087C
:10005000430200084302000843020008430200086C
:10006000430200084302000843020008430200085C
:10007000430200084302000843020008430200084C
:10008000430200084302000843020008430200083C
:10009000430200084302000843020008430200082C
:1000A000430200084302000843020008430200081C
:1000B000C51A000843020008430200084302000872
:1000C00043020008430200084302000843020008FC
:1000D00043020008430200084302000843020008EC
:1000E00043020008430200084302000800F002F83F
:1000F00000F03FF80AA090E8000C82448344AAF183
:100100000107DA4501D100F034F8AFF2090EBAE880
:100110000F0013F0010F18BFFB1A43F0010318473B
:10012000AC3B0000CC3B0000103A24BF78C878C13B
:10013000FAD8520724BF30C830C144BF04680C60ED
:10014000704700000023002400250026103A28BF35
:1001500078C1FBD8520728BF30C148BF0B60704739
:10016000752900F0C380002070471FB51FBD10B572
:1001700010BD00F04BFA1146FFF7F7FF01F0C6FD86
:1001800000F069FA03B4FFF7F2FF03BC01F0AAFD27
:10019000224B19680868B0E8F00F80F30988BFF3B4
:1001A0006F8F4FF0000080F311884EF00D0E7047F6
:1001B0000000000006480068006880F3088862B606
:1001C00061B6BFF34F8FBFF36F8F00DF00BF00BF7B
:1001D00008ED00E0EFF30980BFF36F8F0F4B1A6853
:1001E00020E9F00F106008B54FF0500080F311883F
:1001F000BFF34F8FBFF36F8F02F05AFD4FF0000037
:1002000080F31188BDE8084019680868B0E8F00F6D
:1002100080F30988BFF36F8F704700BF180000207C
:10022000EFF3058070470000094880470948004700
:10023000FEE7FEE7FEE7FEE7FEE7FEE7FEE7FEE796
:10024000FEE7FEE704480549054A064B70470000F3
:10025000C31A0008ED000008E81A0020E82000207A
:10026000E81C0020E81C0020704700000FB404497F
:1002700010B503AA029800F079F910BC5DF814FBE0
:10028000040000202DE9F0410E46044600202062C3
:100290002046E168884730B3252805D0D4E90121FC
:1002A0009047206A401CF2E7E16820460027884713
:1002B000050018D0A5F14100192802D820354FF4C7
:1002C00000673246294620462760FFF749FF40B1C4
:1002D000012804D0F61D26F007060836D8E7361D9B
:1002E000D6E72846DAE7206ABDE8F0812DE9F0413B
:1002F0000646002410687529314616A510D0AFF3C4
:100300000080002802DA404213A507E031688A071E
:1003100001D512A502E0490704D511A5012401E089
:10032000AFF3008000210A2206F1240709E0B0FBA8
:10033000F2FCB0FBF2F302FB1C003030785418469C
:10034000491C0028F3D123462A463046BDE8F04137
:1003500000F0B2B8000000002D0000002B000000EB
:1003600020000000032A40F2308010F0030C00F05F
:10037000158011F8013BBCF1020F624498BF11F8DF
:1003800001CB00F8013B38BF11F8013BA2F1040298
:1003900098BF00F801CB38BF00F8013B11F0030310
:1003A00000F02580083AC0F0088051F8043B083A74
:1003B00051F804CBA0E80810F5E7121D5CBF51F816
:1003C000043B40F8043BAFF30080D20724BF11F890
:1003D000013B11F801CB48BF11F8012B24BF00F8F5
:1003E000013B00F801CB48BF00F8012B704710B566
:1003F000203AC0F00B80B1E81850203AA0E818501D
:10040000B1E81850A0E81850BFF4F5AF5FEA027CDD
:1004100024BFB1E81850A0E8185044BF18C918C04C
:10042000BDE810405FEA827C24BF51F8043B40F8ED
:10043000043B08BF7047D20728BF31F8023B48BFD2
:1004400011F8012B28BF20F8023B48BF00F8012B10
:10045000704702F0FF0343EA032242EA024200F03F
:1004600099B84FF0000200B51346944696462039DD
:1004700022BFA0E80C50A0E80C50B1F12001BFF45D
:10048000F7AF090728BFA0E80C5048BF0CC05DF8C3
:1004900004EB890028BF40F8042B08BF704748BF11
:1004A00020F8022B11F0804F18BF00F8012B704785
:1004B00070477047704770472DE9F0470D469946E1
:1004C0009246044600F124080168880604D5E069D4
:1004D00021F01001216000E00120A84201DD471B4E
:1004E00000E00027A1697A1902EB0900081AA0614F
:1004F0002078C00602D42046AFF30080002608E032
:10050000D4E901211AF806009047206A401C761CA5
:1005100020624E45F4DB2078C0060AD52046AFF3B2
:10052000008006E0D4E9012130209047206A401C79
:100530002062381EA7F10107F4DC07E0D4E90121AD
:1005400018F805009047206A401C2062281EA5F17B
:100550000105F3DC2046AFF300802078000602D5C9
:100560000220BDE8F0870120FBE70000074B70B5D3
:100570000D467B4400F033F80446284600F042F86C
:1005800010B14FF0FF3070BD204670BD73170000F2
:100590004FF000020429C0F0128010F0030C3FF469
:1005A00062AFCCF1040CBCF1020F18BF00F8012BB4
:1005B000A8BF20F8022BA1EB0C01FFF754BF5FEAA4
:1005C000C17C24BF00F8012B00F8012B48BF00F8C4
:1005D000012B704701694A1C02610878704700B519
:1005E0008FB0CDE901310021059105497944CDE96C
:1005F000031011466846FFF745FE0FB000BD00002E
:10060000E5FFFFFF007B00F080007047754600F0BB
:100610002BF8AE4605006946534620F00700854694
:1006200018B020B5FFF70EFEBDE820404FF00006E1
:100630004FF000074FF000084FF0000B21F00701CA
:10064000AC46ACE8C009ACE8C009ACE8C009ACE80D
:10065000C0098D46704710B50446AFF300802046B0
:10066000BDE81040FFF78EBD00487047881A002093
:1006700000B50022BFB01146012001F0D5FB36497C
:10068000086024216846FFF7ECFE242233496846BF
:10069000FFF7ADFE6A460021314801F011FC24212C
:1006A00009A8FFF7DEFE2D492422243109A8FFF70F
:1006B0009EFE09AA00212B4801F002FC242112A869
:1006C000FFF7CFFE25492422483112A8FFF78FFEFD
:1006D00012AA0021244801F0F3FB24211BA8FFF7F4
:1006E000C0FE1E4924226C311BA8FFF780FE1BAA06
:1006F00000211E4801F0E4FB242124A8FFF7B1FEED
:1007000016492422903124A8FFF771FE24AA002163
:10071000174801F0D5FB24212DA8FFF7A2FE0F49B1
:100720002422B4312DA8FFF762FE2DAA0021114822
:1007300001F0C6FB242136A8FFF793FE07492422C7
:10074000D83136A8FFF753FE36AA00210A4801F037
:10075000B7FB3FB000BD000098000020443A0008FD
:10076000590800087908000841080008F519000830
:10077000F1070008D10700087D07000801F0F1FA31
:10078000014603A0FFF772FD642001F0DDFAF5E7F2
:100790005BE8BE85E58AA9E4BBBBE58AA15D20E8EC
:1007A000BF90E8A18CE4B8AD2E2E2E205469636B67
:1007B0003A202575207C20E6A8A1E68B9FE596824D
:1007C000E78B972F4C4544E997AAE783810D0A00F0
:1007D00040F2DC5401F0C5FA01460348FFF746FD3C
:1007E000204601F0B1FAF5E7403B0008FEE70000C3
:1007F00001F0B7FA014603A0FFF738FD642001F0CD
:10080000A3FAF5E75B43414EE4BBBBE58AA15D205B
:10081000E8BF90E8A18CE4B8AD2E2E2E2054696379
:100820006B3A202575207C20E6A8A1E68B9F4341EA
:100830004EE694B6E58F91E695B0E68DAE0D0A00D2
:1008400001F08FFA01460348FFF710FD642001F024
:100850007BFAF5E7183C000801F083FA01460348EB
:10086000FFF704FDFA2001F06FFAF5E7843B00087A
:10087000704772B6FEE700004FF0FF35064C294680
:10088000206801F0A3FA0028F9D101F06AFA0146C4
:100890000248FFF7EBFCF2E798000020D43B000889
:1008A00070B5040003D094F8200010B104E00120DA
:1008B00070BD204600F082F82068016841F0010117
:1008C000016000F0A7F90546052604E000F0A2F952
:1008D000401B0A2811D820684068C007F6D020685D
:1008E000016821F00201016000F094F905460BE077
:1008F00000F090F9401B0A2806D9606A40F40030E5
:10090000606284F82060D2E7206840688007EFD4F6
:10091000207E0128206801683DD021F0800101601F
:10092000607E01282068016838D021F04001016014
:10093000A07E01282068016833D021F020010160E9
:10094000E07E0128206801682ED041F0100101608E
:10095000207F01282068016829D021F0080101606A
:10096000607F01282068016824D021F00401016023
:10097000D4E902010843D4E9041211430843616831
:10098000491E08432168C86100206062012084F884
:100990002000002070BD41F08001C0E741F040011F
:1009A000C5E741F02001CAE721F01001CFE741F08F
:1009B0000801D4E741F00401D9E7000010B586B082
:1009C000002100910191029103910068134988422E
:1009D00022D11348C16941F00071C161C16901F0C0
:1009E00000710491816941F00401816180690D4CBD
:1009F00000F0040004904FF4006000906946204627
:100A000000F012F8A014009002200190032003903F
:100A10006946204600F008F806B010BD00640040AA
:100A200000100240000801402DE9F84FDFF8B891AE
:100A30000024A9F1040B23460F2709F1040AABF1A6
:100A4000040EC9E00125A5402A40AA427DD1674E87
:100A5000D1F804C0ACEB0608B44532D014DCBCF1CC
:100A6000030F3AD009DCBCF1000F2AD0BCF1010F12
:100A70001CD0BCF1020F31D11DE0BCF1110F17D019
:100A8000BCF1120F2AD119E0B8F5881F19D006DC85
:100A9000B8F5803F15D0B8F5801F1FD111E0B8F52B
:100AA000001F0ED0B8F5041F18D10AE0CB6815E07E
:100AB000CB681B1D12E0CB6808330FE0CB680C330A
:100AC0000CE08B682BB1012B4FF0080303D045617C
:100AD00004E0042302E0056100E00023FF2A01D8BE
:100AE000064601E000F104064FEA840501D9A5F1AC
:100AF0002005D6F8008007FA05FC28EA0C0803FA5E
:100B000005F548EA0508C6F800804D68ED0062D595
:100B1000374DAE6946F00106AE61AD6924F00306BB
:100B200005F001050095334D06EB050CDCF8085087
:100B3000A607360F07FA06F825EA0805DFF8B88099
:100B4000404503D14FF0000817E044E0DFF8AC80E7
:100B5000404502D14FF001080FE0DFF8A480404586
:100B600002D14FF0020808E0DFF89880404502D13A
:100B70004FF0030801E04FF0040808FA06F848EACD
:100B80000508CCF808804D68D9F80060ED024D46A4
:100B900001D5164300E096432E604D68DAF80060F8
:100BA000AD02554601D5164300E096432E604D68D0
:100BB000DBF80060AD035D4601D5164300E09643C7
:100BC0002E604D68DEF80060ED03754601D51643D2
:100BD00000E096432E60641C0D682A46E5407FF4D1
:100BE00031AFBDE8F88F000008040140000011108B
:100BF000001002400000014000080140000C0140CC
:100C000000100140001401400AB10161704709045D
:100C1000FBE70000014880687047000008000020E2
:100C200070B5040025D094F83D00002520B984F863
:100C30003C50204600F0B8F8242084F83D0020689D
:100C4000016821F0010101602068016841F4004160
:100C500001602068016821F40041016000F08CFA15
:100C60004D4A6168914201D84C4900E04C498842A4
:100C700001D2012070BD4B492368B0FBF1F15E68E1
:100C800026F03F060E435E606368934206D94FF438
:100C9000967359434FF47A73B1FBF3F12368491CFF
:100CA0001E6A26F03F06314319626168914210D8EE
:100CB0004900401EB0FBF1F2521CC2F30B02042AA1
:100CC00001D2042022E0B0FBF1F0401CC0F30B0085
:100CD0001CE0A268F2B301EBC10303EB0116431E53
:100CE000B3FBF6F35B1C43F480431B0549D092B37E
:100CF00001EBC10202EB0111401EB0FBF1F0401C00
:100D0000C0F30B0040F4804040F400402168CA6901
:100D10004CF6FF739A431043C861D4E907100143AE
:100D20002068026822F0C00211430160D4E9030187
:100D300001432068826848F2FF339A43114381607F
:100D4000D4E9050108432168CA6822F0FF02104374
:100D5000C86001E00EE016E02068016841F0010182
:100D600001602564202084F83D00256384F83E500E
:100D7000002070BD01EB4106431EB3FBF6F35B1C84
:100D8000B3E70120C2E701EB4101401EB0FBF1F0E7
:100D9000401CC0F30B00B7E7A086010080841E0052
:100DA00000093D0040420F0010B586B000210091BF
:100DB00001910291039100681349884222D1134C9A
:100DC000A06940F00800A061A069694600F0080031
:100DD00004904FF440700090122001900320039083
:100DE0000B48FFF721FE0B48416841F0E06141F0FC
:100DF00002014160E06940F40010E061E06900F444
:100E00000010049006B010BD0054004000100240D5
:100E1000000C01400000014070B5040013D02168AF
:100E20004CF6CC400860216845F255500860D4E982
:100E3000000141602168A0688860FFF7EBFE05466D
:100E400041F23C360DE0012070BD00BFFFF7E2FE2D
:100E5000401BB04205D92068C068800701D003203C
:100E600070BD2068C0688007F0D121684AF6AA20CA
:100E70000860002070BD00000248816802781144BB
:100E80008160704708000020074810B5016841F0F4
:100E900010010160032000F0A7F80F2000F006F811
:100EA00000F050F8002010BD0020024030B505468B
:100EB000204887B0C16941F00101C161C06906A93C
:100EC00000F00100009001A800F036F90498B8B1D4
:100ED00000F052F9400018494FF08042B0FBF1F1A8
:100EE0001648491E0260416040F2E7320021C0E925
:100EF00003218160816100F017FB040003D015E03D
:100F000000F03AF9E7E70D4800F03CFB04000DD192
:100F10001C2000F03BF8102D07D2002229461C208F
:100F200000F042F80648056000E0012407B02046C2
:100F300030BD00000010024040420F006C01002054
:100F40000C0000200F4808B5816941F00101816162
:100F5000816901F001010091C16941F08051C161D5
:100F6000C069002200F0805000900F21901E00F018
:100F70001BF80548416821F0E06141F000714160D3
:100F800008BD00000010024000000140002809DBFD
:100F900000F01F02012191404009800000F1E02093
:100FA000C0F8001170470000F0B40E4B1B680C46EF
:100FB000C3F30223C3F10705042D00D90425191D2D
:100FC000072901D2002300E0DB1E012606FA05F105
:100FD000491E214099409E40761E16403143F0BC88
:100FE00000F070BE0CED00E0064900F00702086852
:100FF0004FF6FF03184040EA0220034A10430860FE
:10100000704700000CED00E00000FA052DE9F04704
:101010000F46050061D0434E306800F00700B8422B
:1010200009D2306820F0070038433060306800F0A3
:101030000700B84251D128683B4C810712D54007C0
:1010400003D5606840F4E06060602878000703D54D
:10105000606840F4605060606068A96820F0F0004B
:10106000084360602878C00728D06868012810D03D
:101070002168022810D0890700292EDA616821F042
:10108000030101436160FFF7C5FD804641F28839E5
:101090000DE021688903EFE78901EDE7FFF7BAFD6D
:1010A000A0EB0801494502D90320BDE8F08760683C
:1010B000696800F00C00B0EB810FEFD1306800F0F0
:1010C0000700B8420BD9306820F007003843306081
:1010D000306800F00700B84201D00120E5E7287829
:1010E000400705D56068E96820F4E0600843606067
:1010F0002878000706D56068296920F4605040EA26
:10110000C100606000F058F86168084AC1F303113B
:10111000515CC8400649086006480068FFF7C6FEF3
:101120000020C2E700200240001002402A3A0008D6
:10113000140000200C0000200F2202600C4A5368AB
:1011400003F003034360536803F0F00383605368C4
:1011500003F4E063C36052684FF4E06303EAD20231
:1011600002610448006800F0070008607047000052
:101170000010024000200240044805490068496808
:10118000044AC1F30221515CC8407047140000209A
:10119000001002403A3A00080448054900684968CE
:1011A000044AC1F3C221515CC840704714000020BA
:1011B000001002403A3A00080E4A51680E4801F009
:1011C0000C03042B11D0082B0FD10C48C1F383431F
:1011D000C903C05C0AD55168084AC1F34041921E58
:1011E000515C054A5043B0FBF1F070470449484355
:1011F000704700000010024000127A001A3A0008FE
:1012000000093D002DE9F84F040070D02078C04D52
:10121000C00749D06868C0F38100012807D068681A
:10122000C0F38100022809D16868C00306D5286888
:10123000800339D560680028E7D035E06068B0F5F4
:10124000803F0BD010B1B0F5A02F11D0286820F44A
:1012500080302860286820F4802002E0286840F46C
:1012600080302860606890B1FFF7D4FC06460AE041
:10127000286840F480202860F0E700BFFFF7CAFC30
:10128000801B642873D828688003F7D50CE0FFF72B
:10129000C1FC064605E000BFFFF7BCFC801B6428CC
:1012A000F0D828688003F7D420789A4E80074FF052
:1012B00001094FF0000839D5686810F00C0F07D00D
:1012C0006868C0F38100022809D16868C00306D4A9
:1012D0002868800714D52069012808D110E020690A
:1012E000B0B1C6F80090FFF795FC074605E00AE1AB
:1012F000FFF790FCC01B0228C4D828688007F7D5E8
:101300002868616920F0F80040EAC10028600DE01B
:10131000C6F80080FFF77EFC074604E0FFF77AFC82
:10132000C01B022823D828688007F7D4207800073C
:101330002CD57948A169D9B1C0F80090FFF76AFCB3
:10134000074604E0FFF766FCC01B02280FD8686A56
:101350008007F7D571484FF4FA510068B0FBF1F0FF
:10136000009000BF0098411E0091FAD20EE080E08C
:10137000C0F80080FFF74EFC074604E0FFF74AFC88
:10138000C01B022875D8686A8007F7D42078400708
:1013900060D5E8690027C00008D4E86940F08050B3
:1013A000E861E869012700F0805000905C4801681E
:1013B000C90513D40168834641F480710160FFF7C9
:1013C00029FC824606E000BFFFF724FCA0EB0A00E0
:1013D00064284ED8DBF80000C005F5D5E068012888
:1013E0000AD008B1052813D0286A20F0010028622D
:1013F000286A20F0040002E0286A40F00100286218
:10140000E06841F2883B98B1FFF704FC82460BE0AC
:10141000286A40F004002862EEE700BFFFF7FAFBFD
:10142000A0EB0A0159455AD8286A8007F6D50CE086
:10143000FFF7F0FB824605E0FFF7ECFBA0EB0A01AB
:1014400059454CD8286A8007F6D41FB1E86920F0C6
:101450008050E861E06988B36968C1F381010229BD
:1014600044D00228C6F8608004D0FFF7D3FB0446BE
:1014700038E034E0FFF7CEFB074604E0FFF7CAFB95
:10148000C01B02282BD828688001F7D4206AB0F549
:10149000803F05D16868A16820F400300843686087
:1014A000D4E908010843696821F4741108436860AD
:1014B000C6F86090FFF7AEFB044606E025E000BFEB
:1014C000FFF7A8FB001B022809D828688001F7D580
:1014D0001BE000BFFFF79EFB001B022802D9032080
:1014E000BDE8F88F28688001F4D40EE00128F7D019
:1014F0006868226A00F48031914204D1616A00F484
:101500007010884201D00120EAE70020E8E70000DF
:1015100000100240000042428004424214000020B9
:10152000007000407047704710B5040003D094F875
:101530003D0010B107E0012010BD002084F83C0000
:10154000204600F01EF8022084F83D00211D20688E
:1015500000F0BEFA012084F8460084F83E0084F8CA
:101560003F0084F8400084F8410084F8420084F889
:10157000430084F8440084F8450084F83D000020CE
:1015800010BD704790F83D10012901D0012070472F
:10159000022180F83D100168CA6842F00102CA6069
:1015A00000680B49884208D0B0F1804F05D0094946
:1015B000884202D00849884204D1816801F00701BD
:1015C000062903D0016841F0010101600020704745
:1015D000002C0140000400400008004070472DE945
:1015E000F04104460068C66805694FF00007A90786
:1015F00013D5B10711D5F91E0161012020772068AC
:1016000080698007204602D0FFF7E8FF04E000F081
:101610007EF8204600F07CF82777680716D570071B
:1016200014D521686FF0040008610220207720683B
:10163000806910F4407F204602D0FFF7CFFF04E01E
:1016400000F065F8204600F063F82777280715D5E5
:10165000300713D521686FF0080008610420207757
:101660002068C0698007204602D0FFF7B7FF04E07A
:1016700000F04DF8204600F04BF82777E80616D525
:10168000F00614D521686FF010000861082020775B
:101690002068C06910F4407F204602D0FFF79EFF0B
:1016A00004E000F034F8204600F032F82777E8072D
:1016B00008D0F00706D021686FF0010008612046CD
:1016C00000F027F8280608D5300606D521686FF007
:1016D000800008612046FFF725FF680608D57006E0
:1016E00006D521686FF040000861204600F018F828
:1016F000A8060AD5B00608D521686FF02000086159
:101700002046BDE8F041FFF70EBFBDE8F08170470D
:1017100070470068B0F1804F01D1FFF7ADBB704753
:10172000704770B5040004D094F84100002510B152
:1017300006E0012070BD84F84050204600F024F8F7
:10174000242084F841002068C16821F40051C16060
:10175000204600F021FA2068016921F490410161DE
:101760002068416921F02A0141612068C16841F483
:101770000051C1606564202084F8410084F8420073
:101780006563002070BD000030B585B00024009472
:1017900001940294039400681449884224D11448A7
:1017A000816941F480418161816901F48041049142
:1017B000816941F00401816180690E4D00F00400EF
:1017C00004904FF4007000900220019003200390D9
:1017D00069462846FFF728F92815CDE9000469462F
:1017E00028460294FFF720F905B030BD00380140CB
:1017F00000100240000801402DE9F843044690F82B
:101800004100984616460D46202802D00220BDE829
:10181000F88385B17EB100206064212084F8410006
:10182000FFF7F8F9A6848146E684A0682027B0F582
:10183000805F02D003E00120E9E7206910B12E4665
:1018400000250EE000260CE08021204600F000FA82
:10185000A8B9C6B116F8010B21684860E08C401E9B
:10186000E084E08C4B464FF00002CDF80080002869
:10187000EAD14FF04001204600F0EAF940B184F887
:1018800041700320C3E735F8020BC0F30800E3E71B
:1018900084F841700020BAE7FEE700000D4810B55B
:1018A0000B4901601021416000218160C16001612C
:1018B0004161017641768176C17601774177FEF705
:1018C000EFFF002803D0BDE81040FEF7D2BF10BDE7
:1018D000006400409C000020FEF7CABE70B586B0D0
:1018E000002418480094019402940394816941F003
:1018F00020018161816901F020010491816941F039
:1019000004018161816901F004010491816941F060
:101910000801816180690C4E00F008004FF4004519
:101920000490002229463046FFF76EF90120009509
:10193000CDE901040220039069463046FFF774F8B0
:1019400006B070BD00100240000801400D4810B5FF
:101950000B4901600C49416000214FF480428160D5
:10196000C0E9031241618161C1610162FFF758F969
:10197000002803D0BDE81040FEF77BBF10BD00007B
:1019800000540040C4000020A0860100094810B5A2
:10199000074901600021416040F6FF718160FFF757
:1019A0003BFA002803D0BDE81040FEF762BF10BD2F
:1019B00000300040180100200C4810B50A490160B1
:1019C0004FF4E1314160002181600C22C160C0E927
:1019D00004128161C161FFF7A4FE002803D0BDE8B5
:1019E0001040FEF746BF10BD003801402401002022
:1019F000FEE7FEE700F0B5F9014603A0FEF736FC6E
:101A0000FA2000F0A1F9F5E75B534F43E4BBBBE5D7
:101A10008AA15D20E8BF90E8A18CE4B8AD2E2E2EFF
:101A2000205469636B3A202575207C20E6A8A1E646
:101A30008B9FE8AEA1E7AE97534F432F534F480D0E
:101A40000A00000010B54FF0E020006901F0EAFD47
:101A5000012803D0BDE8104001F0B0B910BD30B589
:101A60008FB028216846FEF7FCFC14210AA8FEF777
:101A7000F8FC0920012100904FF4803000240491EB
:101A80000691CDE901040225CDE907504FF4E0109D
:101A900009906846FFF7B6FB08B172B6FEE70F2063
:101AA000CDE90A054FF48060CDE90C4002210AA877
:101AB0000E94FFF7ABFA002801D072B6FEE70FB024
:101AC00030BD70470148FFF78ABD00006C0100205F
:101AD000F0B50268194B1A4C1A4D4FF080479842E6
:101AE00005D0B84203D0A04201D0A84203D122F0D1
:101AF00070064A683243984205D0B84203D0A042EB
:101B000001D0A84203D122F44074CA6822434C6930
:101B100022F08002224302608A68C2620A688262FE
:101B2000984201D109690163012141610169C90735
:101B300003D0016921F001010161F0BD002C0140D9
:101B4000000400400008004001680C3151E8002FFB
:101B500022F4907241E80023002BF5D10168143182
:101B600051E8002F22F0010241E80023002BF5D1BB
:101B7000016B012909D101680C3151E8002F22F0D5
:101B8000100241E80023002BF5D1202180F84210FB
:101B9000002101637047000070B5044600680169C8
:101BA000E26821F44051114301612169A0680843B2
:101BB000616908432168CA6841F20C639A43024391
:101BC000CA6020684169A26921F4407111434161F2
:101BD0001E492068884202D1FFF7DEFA01E0FFF7D4
:101BE000CBFA00EBC00101EB0012606864218000B9
:101BF000B2FBF0F3B3FBF1F36FF018067343B2FBE3
:101C0000F0F5B2FBF0F605EB8305322303EB051587
:101C1000B5FBF1F5B6FBF1F605F0F00505EB0615A1
:101C2000B2FBF0F6B2FBF0F0B0FBF1F06FF018028F
:101C3000504306EB800003EB0010B0FBF1F021688D
:101C400000F00F002844886070BD0000003801409B
:101C50002DE9F843984617460D460446089E24E0B1
:101C6000701C22D0FEF7D6FFA0EB0800B0421AD8B5
:101C7000CEB12068C168490717D5802D15D0402DF9
:101C800013D00168C94309070FD4016800254068D3
:101C900000902046FFF758FF0820606484F8405009
:101CA0000120BDE8F8830320FBE72068006835EADF
:101CB000000004D00020B842D2D00020F1E701207B
:101CC000F9E7FEE70907090E002804DB00F1E02030
:101CD00080F80014704700F00F0000F1E02080F859
:101CE000141D70477047000013B50648007830B1E6
:101CF0004FF4FA73012269460348FFF77DFD00980F
:101D00001CBD00000000002024010020FFF7BCF8EB
:101D1000FFF7A5FEFFF7E2FDFFF7C0FDFFF716FE98
:101D2000FFF734FEFFF748FE04A0FEF79FFA00F02D
:101D30001FF8FFF7D1FD00F02DF8FEE75374617234
:101D4000742E2E2E0D0A000010B5EFF3058111B18F
:101D50006FF0050403E0002408B100F0ADFE20465A
:101D600010BDEFF3058008B101F070BC01F068BC54
:101D7000EFF3058010B16FF005007047044801686B
:101D800011B14FF0FF307047012101600020704712
:101D90006800002010B5EFF3058010B16FF005006A
:101DA00010BD08480168012902D04FF0FF3010BD76
:101DB000054A002182F8141D0221016000F02CFF69
:101DC000002010BD680000200BE000E0F8B50D46D3
:101DD0000024211F4E1C002804D000BFEFF3058211
:101DE000A2B10DB10C461BE000216A46009101F042
:101DF0007DFA012813D1009890B10A494FF0805024
:101E00000860BFF34F8FBFF36F8F09E0294601F0E1
:101E1000BBFA012804D015B16FF0010400E034468C
:101E20002046F8BD04ED00E0F8B5144603460E4622
:101E30004FF00005EFF3058098BB93B39E423DD869
:101E40004CB1A0680028E06803D0502836D30120A8
:101E500002E008B132E00020012B05D010B3184693
:101E6000A26800F0DEFF20E040B1032000900022D5
:101E700011460120A36801F015F804E003220021B7
:101E8000012000F0EEFF050018D086B100231A46AD
:101E9000194601F07FF8012809D0284600F0BEFD60
:101EA00000250BE0184600F09FFF050006D00CB19E
:101EB000216800E00021284600F09CFD2846F8BD7E
:101EC0002DE9FF414FEA01034FF00005EFF30581D3
:101ED000039549BB40B38027182100244AB31668F4
:101EE00006B1344696691EB13146761E382E02D2AE
:101EF0001679F60703D0002004B0BDE8F0815669DA
:101F000006B1B708D2F808C0BCF1000F0DD0D568F3
:101F10005C2D18D312693AB136B18DE806103A46F5
:101F2000214601F054FB03900DE0D6685EB91269BA
:101F30004AB903AACDE90012BAB2214601F01AFB50
:101F4000012800D003950398D6E700002DE9F04161
:101F5000134C0F460546E6682068001D00F04CFC57
:101F6000681C07D137B12168BDE8F0410D48091D53
:101F700000F092BC20683544B5424560216805D226
:101F8000A06BBDE8F041091D00F06EBC606B091D3F
:101F900000F06AFCA06A854200D2A562BDE8F0812B
:101FA00018000020A40600202DE9F041054600F0AD
:101FB0007FFC2D4CA068401CA06020682B4F10B106
:101FC000606930B32BE02560A068012827D1002686
:101FD00006EB860007EB800000F038FC761C382EFC
:101FE000F6D3234800F032FC2148143000F02EFCD8
:101FF0001F48283000F02AFC1D483C3000F026FC29
:102000001B48503000F022FC194860631430A06374
:1020100005E02068E96AC06A884200D82560606AE5
:10202000401C60626864E86A2169884200D92061C6
:1020300000EB800007EB8000291D00F02DFC00F074
:1020400057FC606900280CD02068E96AC06A8842A1
:1020500007D208494FF080500860BFF34F8FBFF39D
:102060006F8FBDE8F081000018000020F40100200F
:102070005406002004ED00E038B500F019FC104CC7
:102080002068C8B90F4800F0E1FB0E48143000F09A
:10209000DDFB0C48E060143020610A4B0020F03B6F
:1020A000009003F1500210210A2000F0FBFE206096
:1020B00010B105A100F09EFCBDE8384000F018BC4E
:1020C00054000020A8070020546D72510000000049
:1020D00030B4026C0B46002A0BD0C1681144C160B9
:1020E0008468A14201D30168C16030BC1846FEF784
:1020F00039B930BC70472DE9F041856B174604466D
:102100000026026C82B1C7B1E068FEF72BF9E168E6
:10211000206C091AE1602268914202D2A168081A73
:10212000E060022F16D017E02068A8B9A06801F07F
:10213000F9FA06460020A0600EE06068FEF712F98A
:10214000216C606808446060A168884204D32068FC
:10215000606001E005B16D1E6D1CA5633046BDE8F1
:10216000F08110B5044690F8590058B101280CD000
:1021700002280FD0502080F31188BFF34F8FBFF398
:102180006F8FFEE7206B00F0C7FB2046BDE81040D4
:1021900000F0C2BB10BD000010484FF44061420780
:1021A00006D0C01D0D4920F00700411AC1F540615D
:1021B0000B4A00230144C2E900030839183A21F010
:1021C000070111604B600B600B1AC0E900139360AC
:1021D0004FF000405360506170470000880E0020AF
:1021E00084000020144E154CA6F29C474FF08058F6
:1021F000DFF84C9012E000BF00F05AFBF068C568B1
:10220000281D00F0F9FAA068401EA0606068401E1A
:10221000606000F06DFB2846FFF7A3FF60680028B0
:10222000EAD138680128F9D9C9F80080BFF34F8F87
:10223000BFF36F8FF2E70000900600201800002027
:1022400004ED00E070B51D46049C51B1C4F80020B7
:10225000C4E90F010121204600F058FE84F84C50DB
:1022600070BD2460F4E700002DE9F05F8846DDE9E9
:102270000B941546834691009A460A9EA522206B30
:10228000FEF7E7F86FF00301206B01EB85010844CE
:1022900020F00707780707D0502080F31188BFF39C
:1022A0004F8FBFF36F8FFEE70025B8F1000F0FD0FF
:1022B0005FF00000221818F8001082F8341018F8A7
:1022C000001011B1401C1028F4D384F8435001E0F1
:1022D00084F83450382E00D33726E662C4E91365FB
:1022E000201D00F0BEFA04F1180000F0BAFA2461D3
:1022F000C6F138006462A061656584F858505246A2
:102300005946384600F066FA2060B9F1000F01D056
:10231000C9F80040BDE8F09F30B5114900E0114612
:102320000A688242FBD34B685C18844203D1406840
:1023300018444860084643681C18944209D1084C68
:10234000183C2468A24209D052681A4442600A68C4
:1023500012680260814200D0086030BD0460F9E775
:102360008400002070B5002441600B4D0061914253
:1023700006D8D11A8269914206D2011D286907E068
:102380009A4203D2994201D3012403E0011DE86877
:1023900000F06AFA204670BD5400002010B50446D3
:1023A00000F086FAA06B28B15FF0000400F0A0FAFC
:1023B000204610BD0124F9E730B589B03C4D6EE0F0
:1023C0000498002806DADDE90601059A904704988A
:1023D000002864DB069C606910B1201D00F00CFA37
:1023E00003A800F0D7F8024604980A2857D2DFE87D
:1023F00000F00505052D334A05052D3394F8280016
:1024000040F0010084F828000599A069059B01446B
:102410002046FFF7A7FF68B3216A2046884794F853
:10242000280040073BD5002000900598A1690023B3
:1024300042181946204601F0BBFAD8B9502080F363
:102440001188BFF34F8FBFF36F8FFEE714F8280F8B
:1024500020F00100207022E094F8280040F00100F4
:1024600084F828000598A06128B1811813462046F9
:10247000FFF778FF13E0502080F31188BFF34F8FF0
:10248000BFF36F8FFEE794F82800810703D420463E
:1024900000F042FA03E020F0010084F82800002256
:1024A00004A9286800F086FE002889D109B030BD53
:1024B000540000202DE9FC410F46054600F0F0FBDA
:1024C00001A800F067F80446019818B101F0DEF9A0
:1024D000BDE8FC81254EAFB130690068D0B300275C
:1024E000291B3A46306800F0C5FA01F0CFF9002800
:1024F000EED11F494FF080500860BFF34F8FBFF3FC
:102500006F8FE5E7A542EBD801F0C0F9F0682746E8
:10251000C068C468201D00F06FF994F828004107D6
:1025200019D5A0692B4641193A462046FFF71AFFF4
:10253000A8B100200346014600902A46204601F03B
:1025400037FA60B9502080F31188BFF34F8FBFF383
:102550006F8FFEE707E020F0010084F82800216A71
:1025600020468847B4E70127BAE70000540000205E
:1025700004ED00E00648416B096829B1416BC96868
:10258000C9684968816270474FF0FF31FAE700007F
:102590001800002070B5054601F052F8064E0446BA
:1025A000B068844203D200F009F8012000E0002066
:1025B00028602046B46070BD54000020F8B5194D65
:1025C00020E0C068C4680668201D00F015F9216A83
:1025D0002046884794F82800400713D5A069304466
:1025E000B04206D924616060211DE86800F03CF922
:1025F00008E000200346014600903246204601F0E4
:10260000D7F938B1E86801680029DAD12969C5E944
:102610000310F8BD502080F31188BFF34F8FBFF334
:102620006F8FFEE75400002008484068401C4FF0C0
:10263000500080F3118804D0BFF34F8FBFF36F8F2A
:10264000FEE7BFF34F8FBFF36F8FFEE78C000020D4
:10265000074CE068016841B1C0680021D0F8000073
:10266000FFF728FFFFF7A8FEF3E701210020F7E7B7
:10267000540000202DE9F041044600F019F994F9C6
:10268000455004F1240609E0606A48B1304601F083
:10269000C5F808B100F03EFA6D1E6DB2002DF3DCF6
:1026A0004FF0FF3684F8456000F022F900F000F9A1
:1026B00094F9445004F1100709E0206948B1384604
:1026C00001F0ACF808B100F025FA6D1E6DB2002DD6
:1026D000F3DC84F84460BDE8F04100F009B9000083
:1026E0002DE9F0410546002700F0DAFA324E306855
:1026F00008B9FFF751FD706905424ED1C5B30835E1
:1027000068070ED005F00700C0F10800054468070F
:1027100007D0502080F31188BFF34F8FBFF36F8F26
:10272000FEE72DB37068854237D82348183001463C
:102730000C6801E020460C466168A94202D221687B
:102740000029F7D131688C4227D0076821680160E1
:1027500060680837411B10290FD96019420708D05B
:10276000502080F31188BFF34F8FBFF36F8FFEE7C8
:1027700013E041606560FFF7CFFD61687068401A43
:102780007060B268904200D2B0607069014300206E
:10279000C4E90001F068401CF06001F077F87807A8
:1027A00007D0502080F31188BFF34F8FBFF36F8F96
:1027B000FEE73846BDE8F0816C0000200449086857
:1027C00018B10868026D521C026508687047000065
:1027D0001800002010B5031F4FF080741C601B1FF1
:1027E00021F001011960191F024B0B6014394038A8
:1027F0000A6010BD29260008D0E9013201699A60FB
:10280000D0E901235A604A68824201D182684A6055
:10281000002202610868401E0860086870470000D6
:10282000034B036003F15C00086080201060704778
:10283000D0070020044B036003F15C0008604FF4F4
:1028400080701060704700002C0A002000F1080121
:102850004FF0FF32C0E90112C16001610021016047
:10286000704700210161704730B50B685A1C02D0D7
:1028700000F1080202E0026904E02246546825687B
:102880009D42FAD953684B6099608A605160086133
:102890000168491C016030BD42684A6093688B60E2
:1028A00093685960916008610168491C0160704734
:1028B000502080F31188BFF34F8FBFF36F8F0A4909
:1028C0004868401C486001280CD10848006810F096
:1028D000FF0F07D0502080F31188BFF34F8FBFF355
:1028E0006F8FFEE7704700008C00002004ED00E0D1
:1028F0000849486828B1401E486001D180F311881A
:102900007047502080F31188BFF34F8FBFF36F8F54
:10291000FEE700008C00002070B500282AD0164D7C
:10292000A0F1080460686969084207D1502080F36B
:102930001188BFF34F8FBFF36F8FFEE722683AB164
:10294000502080F31188BFF34F8FBFF36F8FFEE7E6
:102950008843606000F0A4F96068696808446860B2
:102960002046FFF7D9FC2869401C2861BDE870406B
:1029700000F08CBF70BD00006C0000204FF0E02024
:1029800000210161816105494FF47A720968B1FB48
:10299000F2F1491E416107210161704714000020D6
:1029A00010B5FDF73DFC114910280ED300F1E020D1
:1029B00090F8F0030A78904207D2502080F31188F3
:1029C000BFF34F8FBFF36F8FFEE709480068896838
:1029D00000F4E060884207D9502080F31188BFF3EB
:1029E0004F8FBFF36F8FFEE710BD00008C000020FB
:1029F0000CED00E010B5084B002200BF53F8324048
:102A00001CB1521C082AF9D310BD43F8321003EB55
:102A1000C201486010BD0000B401002010B50400E0
:102A20000AD000F013F894F8460000280CD1204694
:102A3000BDE81040FFF770BF502080F31188BFF34E
:102A40004F8FBFF36F8FFEE710BD0000084A0021D3
:102A500002EBC1035B68834206D1002042F83100DB
:102A600002EBC10148607047491C0829F0D3704748
:102A7000B401002070B515460E460446FFF718FF56
:102A800094F944100020491C01D184F8440094F9C1
:102A90004510491C01D184F84500FFF729FFA06BC0
:102AA00028B92A46314604F1240000F051F82046A6
:102AB000BDE87040FFF7DEBD10B5020014D00F482E
:102AC000006B38B1502080F31188BFF34F8FBFF3F4
:102AD0006F8FFEE700F0E4F800211046FFF736FAAA
:102AE00000F0D4FE002807D105494FF0805008605F
:102AF000BFF34F8FBFF36F8F10BD00001800002091
:102B000004ED00E002490A6A0260C968416070474A
:102B10001800002001490120C861704718000020FA
:102B200010B50C4650B1094909681831FFF79CFEF1
:102B30002046BDE810400121FFF708BA502080F37D
:102B40001188BFF34F8FBFF36F8FFEE7180000208F
:102B500070B514460D4668B10A4909681831FFF787
:102B60009BFE0CB14FF0FF3521462846BDE8704072
:102B7000FFF7ECB9502080F31188BFF34F8FBFF3FC
:102B80006F8FFEE71800002070B504003ED0226D64
:102B9000A2B1E06C884200D30146E06A884235D099
:102BA000012A33D11A4D2A6894420FD1502080F364
:102BB0001188BFF34F8FBFF36F8FFEE7502080F374
:102BC0001188BFF34F8FBFF36F8FFEE7E162A269F9
:102BD000002A02DBC1F13801A1610E4E00EB80003A
:102BE000616906EB8000814210D1201DFFF704FED1
:102BF000E06A2969884200D9286100EB800006EB71
:102C00008000211DBDE87040FFF746BE70BD00008A
:102C100018000020F401002030B587B00024039490
:102C200005AA04A903A80494FFF7FAFDDDE903014E
:102C30000094CDE90110002315A11748059A00F072
:102C4000C6FC164D0028E8621FD000F081FE012866
:102C500009D0401C19D1502080F31188BFF34F8F49
:102C6000BFF36F8FFEE7502080F31188BFF34F8FC3
:102C7000BFF36F8F4FF0FF30A86201206861EC60F6
:102C800007B0BDE8304000F045B807B030BD0000E7
:102C900049444C4500000000E521000818000020D0
:102CA0000248016B491C01637047000018000020B6
:102CB000164810B5016B11B10121C16110BD002191
:102CC000C1610169124A01E0B9B1491E01EB8103FA
:102CD00052F82330002BF7D001EB810302EB830283
:102CE00002F1080453685B685360A34201D15B683A
:102CF0005360DA680260016110BD502080F31188D2
:102D0000BFF34F8FBFF36F8FFEE700001800002066
:102D1000F40100201CB5264908780190FF200870B6
:102D200008788DF800009DF800009DF8002000F064
:102D3000F000904207D0502080F31188BFF34F8FEE
:102D4000BFF36F8FFEE79DF800001A4C00F05000B3
:102D500020700720A06005E09DF8002052008DF84B
:102D60000020401E9DF800201206F5D4A060032824
:102D700007D0502080F31188BFF34F8FBFF36F8FC0
:102D8000FEE74FF44070A060019808700A4801689F
:102D900041F470010160016841F070410160FFF78A
:102DA000EDFD00206060FDF705FA00201CBD00006D
:102DB00000E400E08C00002020ED00E010B5502081
:102DC00080F31188BFF34F8FBFF36F8F00F046FC85
:102DD00018B104494FF080500860002080F311883A
:102DE00010BD000004ED00E010B50C4648B184426F
:102DF0000FD9502080F31188BFF34F8FBFF36F8F2F
:102E0000FEE7502080F31188BFF34F8FBFF36F8F21
:102E1000FEE70222002100F024F8002800D084639D
:102E200010BD38B50C4648B184420FD9502080F30C
:102E30001188BFF34F8FBFF36F8FFEE7502080F3F1
:102E40001188BFF34F8FBFF36F8FFEE70221134648
:102E500000220091114600F025F8002800D084637C
:102E600038BDF8B517460E46050013D005FB06F031
:102E70005030FFF735FC04000AD0002084F84600EB
:102E800004F150023B46314628460094FFF7DAF938
:102E90002046F8BD502080F31188BFF34F8FBFF359
:102EA0006F8FFEE738B5049D18B153B1CAB181B137
:102EB00020E0502080F31188BFF34F8FBFF36F8F56
:102EC000FEE7502080F31188BFF34F8FBFF36F8F61
:102ED000FEE7502080F31188BFF34F8FBFF36F8F51
:102EE000FEE739B1502080F31188BFF34F8FBFF355
:102EF0006F8FFEE750241C46012384F846302B4692
:102F00000094FFF79FF9204638BD000070B50D46CC
:102F1000040025D0FFF7CCFCD4E90F20216802FB88
:102F20000011A1600021A163216861600A46D4E913
:102F30000F01401E00FB0121E16021464FF0FF30F0
:102F400001F8440F487004F110008DB1FFF77EFCCA
:102F500004F12400FFF77AFCFFF7CAFC012070BDE2
:102F6000502080F31188BFF34F8FBFF36F8FFEE7C0
:102F700021690029F0D000F051FC0028ECD0044970
:102F80004FF080500860BFF34F8FBFF36F8FE3E7C0
:102F900004ED00E02DE9FF4782B01D468A464FF060
:102FA0000008040003D0BAF1000F08D011E050204F
:102FB00080F31188BFF34F8FBFF36F8FFEE7206C54
:102FC00038B1502080F31188BFF34F8FBFF36F8F5C
:102FD000FEE7022D0AD1E06B012807D0502080F3D4
:102FE0001188BFF34F8FBFF36F8FFEE700F01AFB1E
:102FF0003F4F4FF000094FF0805648B9049838B160
:10300000502080F31188BFF34F8FBFF36F8FFEE71F
:10301000FFF74EFCA06BE16B884207D3022D05D071
:103020000498D0B1B8F1000F1AD01EE02A465146DC
:103030002046FFF760F8616A19B104F1240000F03E
:10304000EDFB20B13E60BFF34F8FBFF36F8FFFF7F3
:103050004FFC012006B0BDE8F087FFF749FC22E0F5
:103060006846FFF74FFD4FF00108FFF741FCFFF7FF
:1030700017FEFFF71DFC94F94400401C01D184F8B1
:10308000449094F94500401C01D184F84590FFF725
:103090002FFC04A9684600F033FA30B12046FFF750
:1030A000E9FA00F0F3FB0020D4E7FFF701FCA06B86
:1030B000E16B884213D1FFF71BFC04F11000049967
:1030C000FFF72EFD2046FFF7D5FA00F0DFFB0028C2
:1030D0009ED13E60BFF34F8FBFF36F8F98E7FFF72E
:1030E00007FC2046FFF7C6FA00F0D0FB90E700008F
:1030F00004ED00E02DE9F0471F46904689460400A4
:1031000003D0B9F1000F08D011E0502080F31188EE
:10311000BFF34F8FBFF36F8FFEE7206C38B15020A5
:1031200080F31188BFF34F8FBFF36F8FFEE7022F3D
:103130000AD1E06B012807D0502080F31188BFF33B
:103140004F8FBFF36F8FFEE7FFF72AFC5020EFF39E
:10315000118680F31188BFF34F8FBFF36F8FA06B81
:10316000E16B884206D3022F04D0002086F3118839
:10317000BDE8F08794F94550A06B3A464946204691
:10318000FEF7B9FF681C04D06D1C84F8455001207F
:10319000ECE7606A0028FAD004F1240000F03EFB5E
:1031A0000028F4D0B8F1000FF1D00121C8F80010C8
:1031B000EDE700002DE9F747002683B08A460400BA
:1031C00003D0BAF1000F08D011E0502080F311882D
:1031D000BFF34F8FBFF36F8FFEE7206C38B15020E5
:1031E00080F31188BFF34F8FBFF36F8FFEE700F0BE
:1031F00019FADFF8F4804FF000094FF0805748B912
:10320000059838B1502080F31188BFF34F8FBFF37A
:103210006F8FFEE7FFF74CFBA56BC5B1514620460B
:10322000FEF756FF6D1EA563206950B104F1100032
:1032300000F0F4FA28B1C8F80070BFF34F8FBFF365
:103240006F8FFFF755FB012006B0BDE8F0870598AA
:1032500008B11EB106E0FFF74BFB27E06846FFF719
:1032600051FC0126FFF744FBFFF71AFDFFF720FB97
:1032700094F94400401C01D184F8449094F945002D
:10328000401C01D184F84590FFF732FB05A9684640
:1032900000F036F9002820460AD0FFF7EBF900F0DD
:1032A000F5FA2046FFF77AF80028B3D00020CBE7E4
:1032B000FFF774F890B104F124000599FFF730FC92
:1032C0002046FFF7D7F900F0E1FA0028A2D1C8F8AC
:1032D0000070BFF34F8FBFF36F8F9BE72046FFF760
:1032E000C9F900F0D3FA95E704ED00E02DE9F047C5
:1032F00090468946040003D0B9F1000F08D011E0D0
:10330000502080F31188BFF34F8FBFF36F8FFEE71C
:10331000206C38B1502080F31188BFF34F8FBFF37A
:103320006F8FFEE7FFF73CFB5020EFF3118680F331
:103330001188BFF34F8FBFF36F8FA76BF7B194F96D
:10334000445049462046FEF7C3FE7F1EA763681C13
:1033500004D06D1C84F84450012010E0206900283E
:10336000FAD004F1100000F059FA0028F4D0B8F1B6
:10337000000FF1D00121C8F80010EDE7002086F31E
:103380001188BDE8F08700002DE9F343002683B0E3
:103390000400354609D0206C78B1502080F31188A4
:1033A000BFF34F8FBFF36F8FFEE7502080F311887C
:1033B000BFF34F8FBFF36F8FFEE700F033F9DFF8F5
:1033C0003C814FF000094FF0805748B9049838B15C
:1033D000502080F31188BFF34F8FBFF36F8FFEE74C
:1033E000FFF766FAA06BC8B1401EA063206810B951
:1033F000FFF7E4F9A060206950B104F1100000F07B
:103400000DFA28B1C8F80070BFF34F8FBFF36F8F6C
:10341000FFF76EFA012005B0BDE8F083049808B10B
:1034200066B10FE03DB1502080F31188BFF34F8F9C
:10343000BFF36F8FFEE7FFF75BFA5DE06846FFF7CB
:1034400061FB0126FFF754FAFFF72AFCFFF730FA79
:1034500094F94400401C01D184F8449094F945004B
:10346000401C01D184F84590FFF742FA04A9684650
:1034700000F046F80028204612D0FFF7FBF800F0D5
:1034800005FA2046FEF78AFF0028A9D09DB3FFF772
:103490000FFA606A50B3206B0068C0F1380126E073
:1034A000FEF77CFFE0B1206838B9FFF701FAA068A9
:1034B00000F078F90546FFF71BFA04F1240004999F
:1034C000FFF72EFB2046FFF7D5F800F0DFF90028C4
:1034D00086D1C8F80070BFF34F8FBFF36F8F7FE7BF
:1034E0002046FFF7C7F800F0D1F979E70021A0687E
:1034F000FFF74AFB9FE7FFE700208CE704ED00E0C1
:103500002DE9F0410C46050011D0C4B1FFF7D0F908
:10351000174BDA686E682068911B471C17D02F681C
:103520001B6A9F4219D0964217D8012410E0502000
:1035300080F31188BFF34F8FBFF36F8FFEE75020EA
:1035400080F31188BFF34F8FBFF36F8FFEE7002426
:10355000FFF7CEF92046BDE8F081884205D9401A30
:1035600020602846FFF7CEFAF1E700202060DCE774
:10357000180000202DE9FF5F8346DDE90E8799469C
:1035800016468A469000FFF7ABF805001CD05C2079
:10359000FFF7A6F8040014D00020256384F8590032
:1035A000CDE90240CDE900874B46324651465846A8
:1035B000FEF75AFE2046FEF7F7FC012004B0BDE8F6
:1035C000F09F2846FFF7A8F94FF0FF30F6E7F0B577
:1035D00085B0DDE90B640A9DA6B1DCB15C270097DC
:1035E0002663022684F85960002604AFCDE902461E
:1035F000CDE90057FEF738FE2046FEF7D5FC0498CB
:1036000005B0F0BD502080F31188BFF34F8FBFF39A
:103610006F8FFEE7502080F31188BFF34F8FBFF309
:103620006F8FFEE70548416919B1006B18B10020A2
:1036300070470120704702207047000018000020EA
:103640000148C068704700001800002010B5FFF75F
:10365000A7F90148C06810BD180000202DE9F0410D
:103660002E4C0027206B28B1A069401CA061384671
:10367000BDE8F081E668761CE66013D1606B0068F7
:1036800038B1502080F31188BFF34F8FBFF36F8F95
:10369000FEE7606BA16B6163A063206A401C20623F
:1036A000FEF768FFA06ADFF87880864209D3606B76
:1036B0000068A0B1606BC068C5686868864211D2B6
:1036C000A0622068C06A00EB800158F82100012840
:1036D00000D90127E0690028C9D00127C7E74FF0CA
:1036E000FF30EDE7281DFFF787F8A86A18B105F14C
:1036F0001800FFF781F8E86A2169884200D9206143
:1037000000EB800108EB8100291DFFF7C5F8E86A8E
:103710002168C96A8842CAD30127C8E71800002077
:10372000F401002070B504004FF0000133D01B4DB0
:103730002868844207D0502080F31188BFF34F8F50
:10374000BFF36F8FFEE7206D38B1401E2065E36C3C
:10375000E26A9A421FD040B11DE0502080F31188E8
:10376000BFF34F8FBFF36F8FFEE7201DFFF744F8C5
:10377000E06CE062C0F13800A061E06A296988422B
:1037800000D92861064900EB800001EB8000211D73
:10379000FFF782F80121084670BD000018000020E4
:1037A000F401002070B504004FF000002BD0194D3B
:1037B000E16A2A68D26A914226D2A069002804DB15
:1037C0002868C06AC0F13800A061134E01EB810186
:1037D000606906EB8101884211D1201DFFF70CF8CA
:1037E0002868C06AE0622969884200D9286100EB34
:1037F000800006EB8000211DFFF74EF802E02868EC
:10380000C06AE062012070BDE16C2A68D26A914210
:10381000F8D370BD18000020F401002070B5C06816
:10382000C46854B104F118000646FEF7E5FF144DD4
:10383000286B50B13146134815E0502080F31188B1
:10384000BFF34F8FBFF36F8FFEE7201DFEF7D4FF4E
:10385000E06A2969884200D928610B4900EB8000A1
:1038600001EB8000211DFFF717F8E06A2968C96A9B
:10387000884202D90120E86170BD002070BD0000BF
:10388000180000207C060020F40100202DE9F047FC
:103890002C4D00242746286B38B1FFF709F8286B18
:1038A000401E2863286B40B146E0502080F3118809
:1038B000BFF34F8FBFF36F8FFEE7A968224E012041
:1038C000D1B3A6F5916980463068E0B1F068C4686C
:1038D00004F11800FEF790FF201DFEF78DFFE06A4F
:1038E0002969884200D9286100EB800109EB810039
:1038F000211DFEF7D1FFE06A2968C96A8842E3D337
:10390000C5F81C80E0E70CB1FEF734FEAC694CB1A1
:103910004FEA0806FFF7A2FE00B1EE61641EF9D17E
:103920000020A861E86938B1084901273807086014
:10393000BFF34F8FBFF36F8FFEF7DAFF3846BDE856
:10394000F0870000180000207C06002004ED00E055
:1039500010B586B0FEF790FB114C2068B8B100207E
:103960000390049005AA04A903A8FEF763FFDDE90C
:10397000032102208DE8070000230AA10B48059AC5
:10398000FFF725FE606010B106B0012010BD502089
:1039900080F31188BFF34F8FBFF36F8FFEE70000F6
:1039A00054000020546D72205376630051260008A5
:1039B0002DE9FF411E46134602000A9D4FF000000C
:1039C00016D0144C2768002F0FD0CDE900130292B7
:1039D000062917DAFFF726FE02284FF000030FD062
:1039E000002269462068FFF7D5FA04B0BDE8F081EF
:1039F000502080F31188BFF34F8FBFF36F8FFEE726
:103A00002A46EEE70023324669463846FFF772FB46
:103A1000EBE7000054000020010202030405060742
:103A200008090A0B0C0D0E0F10100000000000001A
:103A3000000001020304060708090000000001025B
:103A4000030400009C3C000800000000000000008F
:103A5000000000000000000000020000180000004C
:103A60000000000000000000AC3C00080000000066
:103A70000000000000000000000000000004000042
:103A80002800000000000000000000007C3C00084E
:103A90000000000000000000000000000000000026
:103AA00000020000200000000000000000000000F4
:103AB000643C00080000000000000000000000005E
:103AC00000000000000200001800000000000000DC
:103AD00000000000903C0008000000000000000012
:103AE00000000000000000000004000020000000B2
:103AF0000000000000000000703C00080000000012
:103B000000000000000000000000000000020000B3
:103B1000080000000000000000000000C03C000899
:103B20000000000000000000000000000000000095
:103B3000000200000800000000000000000000007B
:103B40005BE59D87E8A1A1E4BBBBE58AA15D20E818
:103B5000BF90E8A18CE4B8AD2E2E2E205469636B83
:103B60003A202575207C20E6A8A1E68B9FE68EA74B
:103B7000E588B6E794B5E88AAFE59D87E8A1A10D91
:103B80000A0000005BE98787E6A0B7E4BBBBE58AD3
:103B9000A15D20E8BF90E8A18CE4B8AD2E2E2E20C8
:103BA0005469636B3A202575207C20E6A8A1E68B3A
:103BB0009FE8AFBBE58F963133E4B8B2E794B5E543
:103BC0008E8B2FE794B5E6B5812FE6B8A9E5BAA6A6
:103BD0000D0A00005BE69585E99A9CE4BBBBE58A8B
:103BE000A15D20E8BF90E8A18CE4B8AD2E2E2E2078
:103BF0005469636B3A202575207C20E6A8A1E68BEA
:103C00009FE6A380E6B58BE69585E99A9CE78AB6A0
:103C1000E680815C720A00005BE58585E694BEE77C
:103C200094B5E4BBBBE58AA15D20E8BF90E8A18C18
:103C3000E4B8AD2E2E2E205469636B3A20257520F2
:103C40007C20E6A8A1E68B9FE588A4E696ADE585F5
:103C500085E694BEE794B5E78AB6E680815C720A91
:103C600000000000536F6343616C635461736B0029
:103C700042616C616E63655461736B00436861728D
:103C80006765436F6E74726F6C5461736B000000F4
:103C900043616E436F6D6D5461736B004461746179
:103CA000436F6C6C6563745461736B004661756C33
:103CB0007450726F746563745461736B000000001C
:103CC0004173736973745461736B0000EC3C0008BA
:103CD000000000209C00000028010008883D00082A
:103CE0009C0000204C20000044010008010000005E
:103CF00000000000010000001000000000000000B3
:103D000000127A0000000000000000000000000027
:103D100000000000000000000000000000000000A3
:103D20000000000000000000000000000000000093
:103D30000000000000000000000000000000000083
:103D40000000000000000000000000000000000073
:103D50000000000000000000000000000000000063
:103D60000000000000000000000000000000000053
:103D7000000000000000000000000000AAAAAAAA9B
:083D800000000000000000003B
:04000005080000ED02
:00000001FF
